{
  "contractName": "Lv1NobleStack",
  "abi": [
    {
      "inputs": [
        {
          "internalType": "address",
          "name": "_taxReceiver",
          "type": "address"
        },
        {
          "internalType": "uint256",
          "name": "rate",
          "type": "uint256"
        },
        {
          "internalType": "uint256",
          "name": "delay",
          "type": "uint256"
        },
        {
          "internalType": "address[]",
          "name": "_operator",
          "type": "address[]"
        }
      ],
      "stateMutability": "nonpayable",
      "type": "constructor"
    },
    {
      "anonymous": false,
      "inputs": [
        {
          "indexed": true,
          "internalType": "address",
          "name": "owner",
          "type": "address"
        },
        {
          "indexed": true,
          "internalType": "address",
          "name": "spender",
          "type": "address"
        },
        {
          "indexed": false,
          "internalType": "uint256",
          "name": "value",
          "type": "uint256"
        }
      ],
      "name": "Approval",
      "type": "event"
    },
    {
      "anonymous": false,
      "inputs": [
        {
          "indexed": false,
          "internalType": "address",
          "name": "receiver",
          "type": "address"
        },
        {
          "indexed": false,
          "internalType": "uint256",
          "name": "claimed",
          "type": "uint256"
        }
      ],
      "name": "Claimed",
      "type": "event"
    },
    {
      "anonymous": false,
      "inputs": [
        {
          "indexed": true,
          "internalType": "address",
          "name": "_operator",
          "type": "address"
        }
      ],
      "name": "OperatorAdded",
      "type": "event"
    },
    {
      "anonymous": false,
      "inputs": [
        {
          "indexed": true,
          "internalType": "address",
          "name": "_operator",
          "type": "address"
        }
      ],
      "name": "OperatorRemoved",
      "type": "event"
    },
    {
      "anonymous": false,
      "inputs": [
        {
          "indexed": true,
          "internalType": "address",
          "name": "from",
          "type": "address"
        },
        {
          "indexed": true,
          "internalType": "address",
          "name": "to",
          "type": "address"
        },
        {
          "indexed": false,
          "internalType": "uint256",
          "name": "value",
          "type": "uint256"
        }
      ],
      "name": "Transfer",
      "type": "event"
    },
    {
      "anonymous": false,
      "inputs": [
        {
          "indexed": true,
          "internalType": "address",
          "name": "_account",
          "type": "address"
        },
        {
          "indexed": false,
          "internalType": "bool",
          "name": "_exclude",
          "type": "bool"
        }
      ],
      "name": "UpdateExcludeFromTax",
      "type": "event"
    },
    {
      "anonymous": false,
      "inputs": [
        {
          "indexed": true,
          "internalType": "address",
          "name": "_taxReceiver",
          "type": "address"
        }
      ],
      "name": "UpdateTaxReceiver",
      "type": "event"
    },
    {
      "anonymous": false,
      "inputs": [
        {
          "indexed": false,
          "internalType": "uint256",
          "name": "_newTax",
          "type": "uint256"
        },
        {
          "indexed": false,
          "internalType": "uint256",
          "name": "_maxTaxAmount",
          "type": "uint256"
        }
      ],
      "name": "UpdateTransferTax",
      "type": "event"
    },
    {
      "anonymous": false,
      "inputs": [
        {
          "indexed": false,
          "internalType": "address",
          "name": "user",
          "type": "address"
        },
        {
          "indexed": false,
          "internalType": "uint256",
          "name": "userRewards",
          "type": "uint256"
        },
        {
          "indexed": false,
          "internalType": "uint256",
          "name": "locked",
          "type": "uint256"
        },
        {
          "indexed": false,
          "internalType": "uint256",
          "name": "checkpoint",
          "type": "uint256"
        }
      ],
      "name": "UserRewardsUpdated",
      "type": "event"
    },
    {
      "inputs": [],
      "name": "DOMAIN_SEPARATOR",
      "outputs": [
        {
          "internalType": "bytes32",
          "name": "",
          "type": "bytes32"
        }
      ],
      "stateMutability": "view",
      "type": "function"
    },
    {
      "inputs": [],
      "name": "PERMIT_TYPEHASH",
      "outputs": [
        {
          "internalType": "bytes32",
          "name": "",
          "type": "bytes32"
        }
      ],
      "stateMutability": "view",
      "type": "function"
    },
    {
      "inputs": [
        {
          "internalType": "address",
          "name": "_operator",
          "type": "address"
        }
      ],
      "name": "addOperator",
      "outputs": [],
      "stateMutability": "nonpayable",
      "type": "function"
    },
    {
      "inputs": [
        {
          "internalType": "address",
          "name": "owner",
          "type": "address"
        },
        {
          "internalType": "address",
          "name": "spender",
          "type": "address"
        }
      ],
      "name": "allowance",
      "outputs": [
        {
          "internalType": "uint256",
          "name": "",
          "type": "uint256"
        }
      ],
      "stateMutability": "view",
      "type": "function"
    },
    {
      "inputs": [
        {
          "internalType": "address",
          "name": "spender",
          "type": "address"
        },
        {
          "internalType": "uint256",
          "name": "wad",
          "type": "uint256"
        }
      ],
      "name": "approve",
      "outputs": [
        {
          "internalType": "bool",
          "name": "",
          "type": "bool"
        }
      ],
      "stateMutability": "nonpayable",
      "type": "function"
    },
    {
      "inputs": [
        {
          "internalType": "address",
          "name": "guy",
          "type": "address"
        }
      ],
      "name": "balanceOf",
      "outputs": [
        {
          "internalType": "uint256",
          "name": "",
          "type": "uint256"
        }
      ],
      "stateMutability": "view",
      "type": "function"
    },
    {
      "inputs": [
        {
          "internalType": "address",
          "name": "",
          "type": "address"
        }
      ],
      "name": "blacklist",
      "outputs": [
        {
          "internalType": "bool",
          "name": "",
          "type": "bool"
        }
      ],
      "stateMutability": "view",
      "type": "function"
    },
    {
      "inputs": [
        {
          "internalType": "address",
          "name": "dst",
          "type": "address"
        },
        {
          "internalType": "uint256",
          "name": "amount",
          "type": "uint256"
        }
      ],
      "name": "burn",
      "outputs": [
        {
          "internalType": "bool",
          "name": "",
          "type": "bool"
        }
      ],
      "stateMutability": "nonpayable",
      "type": "function"
    },
    {
      "inputs": [
        {
          "internalType": "address",
          "name": "user",
          "type": "address"
        }
      ],
      "name": "calculate",
      "outputs": [
        {
          "internalType": "uint256",
          "name": "",
          "type": "uint256"
        }
      ],
      "stateMutability": "view",
      "type": "function"
    },
    {
      "inputs": [
        {
          "internalType": "address",
          "name": "to",
          "type": "address"
        }
      ],
      "name": "claim",
      "outputs": [
        {
          "internalType": "uint256",
          "name": "claiming",
          "type": "uint256"
        }
      ],
      "stateMutability": "nonpayable",
      "type": "function"
    },
    {
      "inputs": [],
      "name": "decimals",
      "outputs": [
        {
          "internalType": "uint8",
          "name": "",
          "type": "uint8"
        }
      ],
      "stateMutability": "view",
      "type": "function"
    },
    {
      "inputs": [],
      "name": "deploymentChainId",
      "outputs": [
        {
          "internalType": "uint256",
          "name": "",
          "type": "uint256"
        }
      ],
      "stateMutability": "view",
      "type": "function"
    },
    {
      "inputs": [
        {
          "internalType": "address",
          "name": "",
          "type": "address"
        }
      ],
      "name": "excludeFromTax",
      "outputs": [
        {
          "internalType": "bool",
          "name": "",
          "type": "bool"
        }
      ],
      "stateMutability": "view",
      "type": "function"
    },
    {
      "inputs": [],
      "name": "listOperators",
      "outputs": [
        {
          "internalType": "address[]",
          "name": "",
          "type": "address[]"
        }
      ],
      "stateMutability": "view",
      "type": "function"
    },
    {
      "inputs": [],
      "name": "maxTaxAmount",
      "outputs": [
        {
          "internalType": "uint256",
          "name": "",
          "type": "uint256"
        }
      ],
      "stateMutability": "view",
      "type": "function"
    },
    {
      "inputs": [
        {
          "internalType": "address",
          "name": "dst",
          "type": "address"
        },
        {
          "internalType": "uint256",
          "name": "wad",
          "type": "uint256"
        }
      ],
      "name": "mint",
      "outputs": [
        {
          "internalType": "bool",
          "name": "",
          "type": "bool"
        }
      ],
      "stateMutability": "nonpayable",
      "type": "function"
    },
    {
      "inputs": [],
      "name": "name",
      "outputs": [
        {
          "internalType": "string",
          "name": "",
          "type": "string"
        }
      ],
      "stateMutability": "view",
      "type": "function"
    },
    {
      "inputs": [
        {
          "internalType": "address",
          "name": "",
          "type": "address"
        }
      ],
      "name": "nonces",
      "outputs": [
        {
          "internalType": "uint256",
          "name": "",
          "type": "uint256"
        }
      ],
      "stateMutability": "view",
      "type": "function"
    },
    {
      "inputs": [
        {
          "internalType": "address",
          "name": "owner",
          "type": "address"
        },
        {
          "internalType": "address",
          "name": "spender",
          "type": "address"
        },
        {
          "internalType": "uint256",
          "name": "amount",
          "type": "uint256"
        },
        {
          "internalType": "uint256",
          "name": "deadline",
          "type": "uint256"
        },
        {
          "internalType": "uint8",
          "name": "v",
          "type": "uint8"
        },
        {
          "internalType": "bytes32",
          "name": "r",
          "type": "bytes32"
        },
        {
          "internalType": "bytes32",
          "name": "s",
          "type": "bytes32"
        }
      ],
      "name": "permit",
      "outputs": [],
      "stateMutability": "nonpayable",
      "type": "function"
    },
    {
      "inputs": [
        {
          "internalType": "address",
          "name": "_operator",
          "type": "address"
        }
      ],
      "name": "removeOperator",
      "outputs": [],
      "stateMutability": "nonpayable",
      "type": "function"
    },
    {
      "inputs": [],
      "name": "rewardDelay",
      "outputs": [
        {
          "internalType": "uint256",
          "name": "",
          "type": "uint256"
        }
      ],
      "stateMutability": "view",
      "type": "function"
    },
    {
      "inputs": [],
      "name": "rewardRate",
      "outputs": [
        {
          "internalType": "uint256",
          "name": "",
          "type": "uint256"
        }
      ],
      "stateMutability": "view",
      "type": "function"
    },
    {
      "inputs": [],
      "name": "rewardToken",
      "outputs": [
        {
          "internalType": "contract ISocietyKey",
          "name": "",
          "type": "address"
        }
      ],
      "stateMutability": "view",
      "type": "function"
    },
    {
      "inputs": [
        {
          "internalType": "address",
          "name": "",
          "type": "address"
        }
      ],
      "name": "rewards",
      "outputs": [
        {
          "internalType": "uint256",
          "name": "accumulated",
          "type": "uint256"
        },
        {
          "internalType": "uint128",
          "name": "locked",
          "type": "uint128"
        },
        {
          "internalType": "uint128",
          "name": "checkpoint",
          "type": "uint128"
        }
      ],
      "stateMutability": "view",
      "type": "function"
    },
    {
      "inputs": [
        {
          "internalType": "uint256",
          "name": "delay",
          "type": "uint256"
        }
      ],
      "name": "setDelay",
      "outputs": [],
      "stateMutability": "nonpayable",
      "type": "function"
    },
    {
      "inputs": [
        {
          "internalType": "uint256",
          "name": "rate",
          "type": "uint256"
        }
      ],
      "name": "setRate",
      "outputs": [],
      "stateMutability": "nonpayable",
      "type": "function"
    },
    {
      "inputs": [
        {
          "internalType": "contract ISocietyKey",
          "name": "token",
          "type": "address"
        }
      ],
      "name": "setSociety",
      "outputs": [],
      "stateMutability": "nonpayable",
      "type": "function"
    },
    {
      "inputs": [
        {
          "internalType": "uint256",
          "name": "_newTax",
          "type": "uint256"
        },
        {
          "internalType": "uint256",
          "name": "_maxTaxAmount",
          "type": "uint256"
        }
      ],
      "name": "setTransferTax",
      "outputs": [],
      "stateMutability": "nonpayable",
      "type": "function"
    },
    {
      "inputs": [
        {
          "internalType": "address",
          "name": "user",
          "type": "address"
        }
      ],
      "name": "setTreasury",
      "outputs": [],
      "stateMutability": "nonpayable",
      "type": "function"
    },
    {
      "inputs": [],
      "name": "symbol",
      "outputs": [
        {
          "internalType": "string",
          "name": "",
          "type": "string"
        }
      ],
      "stateMutability": "view",
      "type": "function"
    },
    {
      "inputs": [],
      "name": "taxReceiver",
      "outputs": [
        {
          "internalType": "address",
          "name": "",
          "type": "address"
        }
      ],
      "stateMutability": "view",
      "type": "function"
    },
    {
      "inputs": [
        {
          "internalType": "address",
          "name": "user",
          "type": "address"
        }
      ],
      "name": "toggleBlacklist",
      "outputs": [],
      "stateMutability": "nonpayable",
      "type": "function"
    },
    {
      "inputs": [],
      "name": "totalSupply",
      "outputs": [
        {
          "internalType": "uint256",
          "name": "",
          "type": "uint256"
        }
      ],
      "stateMutability": "view",
      "type": "function"
    },
    {
      "inputs": [
        {
          "internalType": "address",
          "name": "dst",
          "type": "address"
        },
        {
          "internalType": "uint256",
          "name": "wad",
          "type": "uint256"
        }
      ],
      "name": "transfer",
      "outputs": [
        {
          "internalType": "bool",
          "name": "",
          "type": "bool"
        }
      ],
      "stateMutability": "nonpayable",
      "type": "function"
    },
    {
      "inputs": [
        {
          "internalType": "address",
          "name": "src",
          "type": "address"
        },
        {
          "internalType": "address",
          "name": "dst",
          "type": "address"
        },
        {
          "internalType": "uint256",
          "name": "wad",
          "type": "uint256"
        }
      ],
      "name": "transferFrom",
      "outputs": [
        {
          "internalType": "bool",
          "name": "",
          "type": "bool"
        }
      ],
      "stateMutability": "nonpayable",
      "type": "function"
    },
    {
      "inputs": [],
      "name": "transferTax",
      "outputs": [
        {
          "internalType": "uint256",
          "name": "",
          "type": "uint256"
        }
      ],
      "stateMutability": "view",
      "type": "function"
    },
    {
      "inputs": [],
      "name": "treasury",
      "outputs": [
        {
          "internalType": "address",
          "name": "",
          "type": "address"
        }
      ],
      "stateMutability": "view",
      "type": "function"
    },
    {
      "inputs": [
        {
          "internalType": "address",
          "name": "_account",
          "type": "address"
        },
        {
          "internalType": "bool",
          "name": "_exclude",
          "type": "bool"
        }
      ],
      "name": "updateExcludeFromTax",
      "outputs": [],
      "stateMutability": "nonpayable",
      "type": "function"
    },
    {
      "inputs": [
        {
          "internalType": "address",
          "name": "_taxReceiver",
          "type": "address"
        }
      ],
      "name": "updateTaxReceiver",
      "outputs": [],
      "stateMutability": "nonpayable",
      "type": "function"
    },
    {
      "inputs": [],
      "name": "version",
      "outputs": [
        {
          "internalType": "string",
          "name": "",
          "type": "string"
        }
      ],
      "stateMutability": "pure",
      "type": "function"
    }
  ],
  "bytecode": "0x610120604052600360e0819052623f3f3f60e81b610100908152620000269190816200029f565b50604080518082019091526003808252623f3f3f60e81b602090920191825262000053916004916200029f565b506005805460ff191660121781557f6e71edae12b1b97f4d1f60370fef10105fa2faae0126114a169c64845d6126c960805260105568056bc75e2d63100000601155348015620000a257600080fd5b506040516200286d3803806200286d833981016040819052620000c591620003ba565b6040518060400160405280600d81526020016c4c76314e6f626c65537461636b60981b81525060405180604001604052806006815260200165131d8c5394dd60d21b81525060128686868686868682828282600390805190602001906200012e9291906200029f565b508151620001449060049060208501906200029f565b506005805460ff191660ff9290921691909117905550504660c08190526200016c81620001e9565b60a052505060078054336001600160a01b03199182168117909255600b879055600c869055600980549091166001600160a01b0389161790556000908152600f60209081526040909120805460ff191660011790558351620001d7935060089250908401906200032e565b505050505050505050505050620005b3565b60007f8b73c3c69bb8fe3d512ecc4cf759cc79239f7b179b0ffacaa9a75d522b39400f60036040516200021d9190620004bc565b60408051918290038220828201825260018352603160f81b602093840152815180840194909452838201527fc89efdaa54c0f20c7adf612882df0950f5a951637e0307cdcb4c672f298b8bc6606084015260808301949094523060a0808401919091528451808403909101815260c09092019093528051920191909120919050565b828054620002ad9062000560565b90600052602060002090601f016020900481019282620002d157600085556200031c565b82601f10620002ec57805160ff19168380011785556200031c565b828001600101855582156200031c579182015b828111156200031c578251825591602001919060010190620002ff565b506200032a92915062000386565b5090565b8280548282559060005260206000209081019282156200031c579160200282015b828111156200031c57825182546001600160a01b0319166001600160a01b039091161782556020909201916001909101906200034f565b5b808211156200032a576000815560010162000387565b80516001600160a01b0381168114620003b557600080fd5b919050565b60008060008060808587031215620003d157600080fd5b620003dc856200039d565b602086810151604088015160608901519397509095509350906001600160401b03808211156200040b57600080fd5b818801915088601f8301126200042057600080fd5b8151818111156200043557620004356200059d565b8060051b604051601f19603f830116810181811085821117156200045d576200045d6200059d565b604052828152858101935084860182860187018d10156200047d57600080fd5b600095505b83861015620004ab5762000496816200039d565b85526001959095019493860193860162000482565b50989b979a50959850505050505050565b600080835481600182811c915080831680620004d957607f831692505b6020808410821415620004fa57634e487b7160e01b86526022600452602486fd5b818015620005115760018114620005235762000552565b60ff1986168952848901965062000552565b60008a81526020902060005b868110156200054a5781548b8201529085019083016200052f565b505084890196505b509498975050505050505050565b600181811c908216806200057557607f821691505b602082108114156200059757634e487b7160e01b600052602260045260246000fd5b50919050565b634e487b7160e01b600052604160045260246000fd5b60805160a05160c05161226e620005ff6000396000818161055401528181610a640152611182015260008181610a9901526111b701526000818161036801526110fa015261226e6000f3fe608060405234801561001057600080fd5b50600436106102485760003560e01c806370a082311161013b578063ac8a584a116100b8578063e177246e1161007c578063e177246e146105c2578063e6ef73d6146105d5578063f0f44260146105e8578063f7c618c1146105fb578063f9f92be41461060e57600080fd5b8063ac8a584a14610533578063b068574c14610546578063cd0d00961461054f578063d505accf14610576578063dd62ed3e1461058957600080fd5b806395d89b41116100ff57806395d89b41146104df5780639870d7fe146104e757806399d9b547146104fa5780639dc29fac1461050d578063a9059cbb1461052057600080fd5b806370a082311461047b57806370fe1ad1146104a45780637b0a47ee146104ad5780637ecebe00146104b65780638124f7ac146104d657600080fd5b8063313ce567116101c957806354fd4d501161018d57806354fd4d50146103ea57806356b09616146104075780635ac45c9a1461041a57806360d1259e1461042d57806361d027b31461045057600080fd5b8063313ce5671461038a57806334fcf437146103a95780633644e515146103bc57806340c10f19146103c457806350003ca6146103d757600080fd5b80631e83409a116102105780631e83409a14610315578063222442ba1461032857806323b872dd1461033d5780632e16a69e1461035057806330adf81f1461036357600080fd5b8063039a93ca1461024d57806306fdde031461026b5780630700037d14610280578063095ea7b3146102e057806318160ddd14610303575b600080fd5b610255610631565b6040516102629190611ff1565b60405180910390f35b610273610693565b604051610262919061203e565b6102bb61028e366004611d63565b600d60205260009081526040902080546001909101546001600160801b0380821691600160801b90041683565b604080519384526001600160801b039283166020850152911690820152606001610262565b6102f36102ee366004611e9f565b610721565b6040519015158152602001610262565b6000545b604051908152602001610262565b610307610323366004611d63565b610737565b61033b610336366004611d63565b610971565b005b6102f361034b366004611db9565b6109bd565b61033b61035e366004611d63565b6109dd565b6103077f000000000000000000000000000000000000000000000000000000000000000081565b6005546103979060ff1681565b60405160ff9091168152602001610262565b61033b6103b7366004611ee8565b610a30565b610307610a5f565b6102f36103d2366004611e9f565b610abf565b6103076103e5366004611d63565b610b2a565b6040805180820190915260018152603160f81b6020820152610273565b61033b610415366004611d63565b610c8f565b61033b610428366004611e71565b610d03565b6102f361043b366004611d63565b600f6020526000908152604090205460ff1681565b600754610463906001600160a01b031681565b6040516001600160a01b039091168152602001610262565b610307610489366004611d63565b6001600160a01b031660009081526001602052604090205490565b610307600c5481565b610307600b5481565b6103076104c4366004611d63565b60066020526000908152604090205481565b61030760105481565b610273610d8c565b61033b6104f5366004611d63565b610d99565b61033b610508366004611f01565b610e3b565b6102f361051b366004611e9f565b610ef5565b6102f361052e366004611e9f565b610f4e565b61033b610541366004611d63565b610f5b565b61030760115481565b6103077f000000000000000000000000000000000000000000000000000000000000000081565b61033b610584366004611dfa565b61108b565b610307610597366004611d80565b6001600160a01b03918216600090815260026020908152604080832093909416825291909152205490565b61033b6105d0366004611ee8565b6112fd565b600954610463906001600160a01b031681565b61033b6105f6366004611d63565b61132c565b600a54610463906001600160a01b031681565b6102f361061c366004611d63565b600e6020526000908152604090205460ff1681565b6060600880548060200260200160405190810160405280929190818152602001828054801561068957602002820191906000526020600020905b81546001600160a01b0316815260019091019060200180831161066b575b5050505050905090565b600380546106a09061217d565b80601f01602080910402602001604051908101604052809291908181526020018280546106cc9061217d565b80156107195780601f106106ee57610100808354040283529160200191610719565b820191906000526020600020905b8154815290600101906020018083116106fc57829003601f168201915b505050505081565b600061072e3384846113b4565b90505b92915050565b600a546000906001600160a01b03166107975760405162461bcd60e51b815260206004820152601760248201527f72657761726420746f6b656e206973206e6f742073657400000000000000000060448201526064015b60405180910390fd5b6107a033610b2a565b9050600081116107df5760405162461bcd60e51b815260206004820152600a6024820152690dcdee840cadcdeeaced60b31b604482015260640161078e565b60408051606081018252600080825260208201819052918101829052600c54909142919061080d908361213e565b6001600160801b03161061082357600060208301525b6001600160801b038082166040808501918252336000818152600d6020908152908390208751808255918801519451808716600160801b029686169690961760019091015591517f7c7dd8fac996b27cc5b9f5c6ab9a8c00789de8a93223d6973b6ab4d8b4e35063946108999492939291611fbf565b60405180910390a1600a546040516340c10f1960e01b81526001600160a01b03868116600483015260248201869052909116906340c10f1990604401602060405180830381600087803b1580156108ef57600080fd5b505af1158015610903573d6000803e3d6000fd5b505050506040513d601f19601f820116820180604052508101906109279190611ecb565b50604080516001600160a01b0386168152602081018590527fd8138f8a3f377c5259ca548e70e4c2de94f129f5a11036a15b69513cba2b426a910160405180910390a15050919050565b6007546001600160a01b0316331461099b5760405162461bcd60e51b815260040161078e90612093565b600a80546001600160a01b0319166001600160a01b0392909216919091179055565b60006109c9848361141d565b506109d58484846114c6565b949350505050565b6007546001600160a01b03163314610a075760405162461bcd60e51b815260040161078e90612093565b6001600160a01b03166000908152600e60205260409020805460ff19811660ff90911615179055565b6007546001600160a01b03163314610a5a5760405162461bcd60e51b815260040161078e90612093565b600b55565b6000467f00000000000000000000000000000000000000000000000000000000000000008114610a9757610a928161150a565b610ab9565b7f00000000000000000000000000000000000000000000000000000000000000005b91505090565b6000805b600854811015610b205760088181548110610ae057610ae06121ff565b6000918252602090912001546001600160a01b0316331415610b0e57610b0684846115be565b915050610731565b80610b18816121b8565b915050610ac3565b5060009392505050565b6007546000906001600160a01b0383811691161415610b4b57506000919050565b6001600160a01b0382166000908152600e602052604090205460ff1615610b7457506000919050565b6001600160a01b038216600090815260016020526040902054610b9957506000919050565b6001600160a01b0382166000908152600d60209081526040918290208251606081018452815481526001909101546001600160801b0380821693830193909352600160801b9004909116918101829052600b54600c5491924292670de0b6b3a76400009291610c129190610c0d9086612166565b61164e565b84602001516001600160801b0316610c2a919061211f565b6040850151610c42906001600160801b031685612166565b6001600160a01b038816600090815260016020526040902054610c65919061211f565b610c6f91906120e5565b610c79919061211f565b610c8391906120fd565b82516109d591906120e5565b6007546001600160a01b03163314610cb95760405162461bcd60e51b815260040161078e90612093565b600980546001600160a01b0319166001600160a01b0383169081179091556040517fed41655d45059d9b504295d7ab2312fbb986057ab2cdfc5f876eb2f7f556091290600090a250565b6007546001600160a01b03163314610d2d5760405162461bcd60e51b815260040161078e90612093565b6001600160a01b0382166000818152600f6020908152604091829020805460ff191685151590811790915591519182527f5a2d1d25810ada2e8594e10bfa2981033d345580d9345da546ad39515db7645d910160405180910390a25050565b600480546106a09061217d565b6007546001600160a01b03163314610dc35760405162461bcd60e51b815260040161078e90612093565b6008805460018101825560009182527ff3f7a9fe364faab93b216da50a3214154f22a0a2b415b23a84c8169e8b636ee30180546001600160a01b0319166001600160a01b03841690811790915560405190917fac6fa858e9350a46cec16539926e0fde25b7629f84b5a72bffaae4df888ae86d91a250565b6007546001600160a01b03163314610e655760405162461bcd60e51b815260040161078e90612093565b600a821115610eae5760405162461bcd60e51b815260206004820152601560248201527474617820666565206d6f7265207468616e2031302560581b604482015260640161078e565b6010829055601181905560408051838152602081018390527fe7a2cfe4bb087fff5c33eb67f83294cf34b6163457766a10a0e6e9104d8cb424910160405180910390a15050565b6000805b600854811015610b205760088181548110610f1657610f166121ff565b6000918252602090912001546001600160a01b0316331415610f3c57610b068484611664565b80610f46816121b8565b915050610ef9565b600061072e3384846114c6565b6007546001600160a01b03163314610f855760405162461bcd60e51b815260040161078e90612093565b60005b6008548110156110875760088181548110610fa557610fa56121ff565b6000918252602090912001546001600160a01b03838116911614156110755760088054610fd490600190612166565b81548110610fe457610fe46121ff565b600091825260209091200154600880546001600160a01b039092169183908110611010576110106121ff565b9060005260206000200160006101000a8154816001600160a01b0302191690836001600160a01b03160217905550600880548061104f5761104f6121e9565b600082815260209020810160001990810180546001600160a01b03191690550190555050565b8061107f816121b8565b915050610f88565b5050565b428410156110db5760405162461bcd60e51b815260206004820152601d60248201527f45524332305065726d69743a206578706972656420646561646c696e65000000604482015260640161078e565b6001600160a01b038716600090815260066020526040812080544692917f0000000000000000000000000000000000000000000000000000000000000000918b918b918b918661112a836121b8565b909155506040805160208101969096526001600160a01b0394851690860152929091166060840152608083015260a082015260c0810187905260e00160405160208183030381529060405280519060200120905060007f000000000000000000000000000000000000000000000000000000000000000083146111b5576111b08361150a565b6111d7565b7f00000000000000000000000000000000000000000000000000000000000000005b60405161190160f01b602082015260228101919091526042810183905260620160408051601f198184030181528282528051602091820120600080855291840180845281905260ff8a169284019290925260608301889052608083018790529092509060019060a0016020604051602081039080840390855afa158015611262573d6000803e3d6000fd5b5050604051601f1901519150506001600160a01b0381161580159061129857508a6001600160a01b0316816001600160a01b0316145b6112e45760405162461bcd60e51b815260206004820152601e60248201527f45524332305065726d69743a20696e76616c6964207369676e61747572650000604482015260640161078e565b6112ef8b8b8b6113b4565b505050505050505050505050565b6007546001600160a01b031633146113275760405162461bcd60e51b815260040161078e90612093565b600c55565b6007546001600160a01b031633146113565760405162461bcd60e51b815260040161078e90612093565b336113925760405162461bcd60e51b815260206004820152600c60248201526b7a65726f206164647265737360a01b604482015260640161078e565b600780546001600160a01b0319166001600160a01b0392909216919091179055565b6001600160a01b03838116600081815260026020908152604080832094871680845294825280832086905551858152919392917f8c5be1e5ebec7d5bd14f71427d1e84f3dd0314c0f7b2291e5b200ac8c7c3b92591015b60405180910390a35060019392505050565b60006001600160a01b03831633146114bd576001600160a01b038316600090815260026020908152604080832033845290915290205460001981146114bb57828110156114ac5760405162461bcd60e51b815260206004820152601c60248201527f45524332303a20496e73756666696369656e7420617070726f76616c00000000604482015260640161078e565b6114b984338584036113b4565b505b505b50600192915050565b60006114d18461174a565b6114da8361174a565b6114e584848461190c565b915060006114f48585856119b5565b90506115008584611aa4565b6109d58484611aa4565b60007f8b73c3c69bb8fe3d512ecc4cf759cc79239f7b179b0ffacaa9a75d522b39400f600360405161153c9190611f23565b60408051918290038220828201825260018352603160f81b602093840152815180840194909452838201527fc89efdaa54c0f20c7adf612882df0950f5a951637e0307cdcb4c672f298b8bc6606084015260808301949094523060a0808401919091528451808403909101815260c09092019093528051920191909120919050565b60006115ca8383611aa4565b60006115d68484611c09565b6001600160a01b0385166000908152600f602052604090205490915060ff1661072e57600060646010548561160b919061211f565b61161591906120fd565b905060115481111561162657506011545b8015611646576009546116449086906001600160a01b0316836119b5565b505b509392505050565b600081831061165d578161072e565b5090919050565b60006001600160a01b0383163314611736576001600160a01b03831660009081526002602090815260408083203384529091529020548211156116e25760405162461bcd60e51b8152602060048201526016602482015275696e73756666696369656e7420616c6c6f77616e636560501b604482015260640161078e565b6001600160a01b0383166000908152600260209081526040808320338452909152902054611711908390612166565b6001600160a01b03841660009081526002602090815260408083203384529091529020555b6117408383611aa4565b61072e8383611ca3565b600a546001600160a01b03161561190957600061176682610b2a565b905080156110875760408051606081018252600080825260208201819052918101829052600c54909142919061179c908361213e565b6001600160801b0316106117b257600060208301525b6001600160801b0380821660408085019182526001600160a01b0387166000908152600d6020908152908290208651808255918701519351808616600160801b029585169590951760019091015590517f7c7dd8fac996b27cc5b9f5c6ab9a8c00789de8a93223d6973b6ab4d8b4e350639361183393899392909190611fbf565b60405180910390a1600a546040516340c10f1960e01b81526001600160a01b03868116600483015260248201869052909116906340c10f1990604401602060405180830381600087803b15801561188957600080fd5b505af115801561189d573d6000803e3d6000fd5b505050506040513d601f19601f820116820180604052508101906118c19190611ecb565b50604080516001600160a01b0386168152602081018590527fd8138f8a3f377c5259ca548e70e4c2de94f129f5a11036a15b69513cba2b426a91015b60405180910390a15050505b50565b6001600160a01b0383166000908152600f602052604081205460ff1615801561194e57506001600160a01b0383166000908152600f602052604090205460ff16155b156119ae576000606460105484611965919061211f565b61196f91906120fd565b905060115481111561198057506011545b61198a8184612166565b925080156119ac576009546119aa9086906001600160a01b0316836119b5565b505b505b5092915050565b6001600160a01b038316600090815260016020526040812054821115611a1d5760405162461bcd60e51b815260206004820152601b60248201527f45524332303a20496e73756666696369656e742062616c616e63650000000000604482015260640161078e565b6001600160a01b038085166000908152600160205260408082208054869003905591851681522054611a509083906120e5565b6001600160a01b0380851660008181526001602052604090819020939093559151908616907fddf252ad1be2c89b69c2b068fc378daa952ba7f163c4a11628f55a4df523b3ef9061140b9086815260200190565b6007546001600160a01b0383811691161415611abe575050565b6001600160a01b0382166000908152600e602052604090205460ff1615611ae3575050565b6040805160608101825260008082526020820181905291810191909152611b0983610b2a565b81526001600160a01b0383166000908152600160205260409020544290611b2f57600092505b60009050600c54826040015182611b46919061213e565b6001600160801b03161015611b78578282602001818151611b6791906120ba565b6001600160801b0316905250611b88565b6001600160801b03831660208301525b6001600160801b0380821660408085019182526001600160a01b0387166000908152600d6020908152908290208651808255918701519351808616600160801b029585169590951760019091015590517f7c7dd8fac996b27cc5b9f5c6ab9a8c00789de8a93223d6973b6ab4d8b4e35063936118fd93899392909190611fbf565b6001600160a01b038216600090815260016020526040812054611c2d9083906120e5565b6001600160a01b03841660009081526001602052604081209190915554611c559083906120e5565b60009081556040518381526001600160a01b03851691907fddf252ad1be2c89b69c2b068fc378daa952ba7f163c4a11628f55a4df523b3ef906020015b60405180910390a350600192915050565b6001600160a01b038216600090815260016020526040812054821115611d0b5760405162461bcd60e51b815260206004820152601b60248201527f45524332303a20496e73756666696369656e742062616c616e63650000000000604482015260640161078e565b6001600160a01b03831660008181526001602090815260408083208054879003905582548690038355518581529192917fddf252ad1be2c89b69c2b068fc378daa952ba7f163c4a11628f55a4df523b3ef9101611c92565b600060208284031215611d7557600080fd5b813561072e81612215565b60008060408385031215611d9357600080fd5b8235611d9e81612215565b91506020830135611dae81612215565b809150509250929050565b600080600060608486031215611dce57600080fd5b8335611dd981612215565b92506020840135611de981612215565b929592945050506040919091013590565b600080600080600080600060e0888a031215611e1557600080fd5b8735611e2081612215565b96506020880135611e3081612215565b95506040880135945060608801359350608088013560ff81168114611e5457600080fd5b9699959850939692959460a0840135945060c09093013592915050565b60008060408385031215611e8457600080fd5b8235611e8f81612215565b91506020830135611dae8161222a565b60008060408385031215611eb257600080fd5b8235611ebd81612215565b946020939093013593505050565b600060208284031215611edd57600080fd5b815161072e8161222a565b600060208284031215611efa57600080fd5b5035919050565b60008060408385031215611f1457600080fd5b50508035926020909101359150565b600080835481600182811c915080831680611f3f57607f831692505b6020808410821415611f5f57634e487b7160e01b86526022600452602486fd5b818015611f735760018114611f8457611fb1565b60ff19861689528489019650611fb1565b60008a81526020902060005b86811015611fa95781548b820152908501908301611f90565b505084890196505b509498975050505050505050565b6001600160a01b0394909416845260208401929092526001600160801b03908116604084015216606082015260800190565b6020808252825182820181905260009190848201906040850190845b818110156120325783516001600160a01b03168352928401929184019160010161200d565b50909695505050505050565b600060208083528351808285015260005b8181101561206b5785810183015185820160400152820161204f565b8181111561207d576000604083870101525b50601f01601f1916929092016040019392505050565b6020808252600d908201526c6f6e6c7920747265617375727960981b604082015260600190565b60006001600160801b038083168185168083038211156120dc576120dc6121d3565b01949350505050565b600082198211156120f8576120f86121d3565b500190565b60008261211a57634e487b7160e01b600052601260045260246000fd5b500490565b6000816000190483118215151615612139576121396121d3565b500290565b60006001600160801b038381169083168181101561215e5761215e6121d3565b039392505050565b600082821015612178576121786121d3565b500390565b600181811c9082168061219157607f821691505b602082108114156121b257634e487b7160e01b600052602260045260246000fd5b50919050565b60006000198214156121cc576121cc6121d3565b5060010190565b634e487b7160e01b600052601160045260246000fd5b634e487b7160e01b600052603160045260246000fd5b634e487b7160e01b600052603260045260246000fd5b6001600160a01b038116811461190957600080fd5b801515811461190957600080fdfea2646970667358221220db9d50d6048e9cd408774bcf32b5baf87ba4fb4774bccacacd8fb6d72b929a9964736f6c63430008070033",
  "immutableReferences": {
    "518": [
      {
        "length": 32,
        "start": 872
      },
      {
        "length": 32,
        "start": 4346
      }
    ],
    "520": [
      {
        "length": 32,
        "start": 2713
      },
      {
        "length": 32,
        "start": 4535
      }
    ],
    "522": [
      {
        "length": 32,
        "start": 1364
      },
      {
        "length": 32,
        "start": 2660
      },
      {
        "length": 32,
        "start": 4482
      }
    ]
  },
  "source": "// SPDX-License-Identifier: MIT\n\npragma solidity ^ 0.8.7;\n\n\n/**\n * @dev Interface of the ERC20 standard as defined in the EIP.\n */\ninterface IERC20 {\n    /**\n     * @dev Returns the amount of tokens in existence.\n     */\n    function totalSupply() external view returns (uint256);\n\n    /**\n     * @dev Returns the amount of tokens owned by `account`.\n     */\n    function balanceOf(address account) external view returns (uint256);\n\n    /**\n     * @dev Moves `amount` tokens from the caller's account to `recipient`.\n     *\n     * Returns a boolean value indicating whether the operation succeeded.\n     *\n     * Emits a {Transfer} event.\n     */\n    function transfer(address recipient, uint256 amount) external returns (bool);\n\n    /**\n     * @dev Returns the remaining number of tokens that `spender` will be\n     * allowed to spend on behalf of `owner` through {transferFrom}. This is\n     * zero by default.\n     *\n     * This value changes when {approve} or {transferFrom} are called.\n     */\n    function allowance(address owner, address spender) external view returns (uint256);\n\n    /**\n     * @dev Sets `amount` as the allowance of `spender` over the caller's tokens.\n     *\n     * Returns a boolean value indicating whether the operation succeeded.\n     *\n     * IMPORTANT: Beware that changing an allowance with this method brings the risk\n     * that someone may use both the old and the new allowance by unfortunate\n     * transaction ordering. One possible solution to mitigate this race\n     * condition is to first reduce the spender's allowance to 0 and set the\n     * desired value afterwards:\n     * https://github.com/ethereum/EIPs/issues/20#issuecomment-263524729\n     *\n     * Emits an {Approval} event.\n     */\n    function approve(address spender, uint256 amount) external returns (bool);\n\n    /**\n     * @dev Moves `amount` tokens from `sender` to `recipient` using the\n     * allowance mechanism. `amount` is then deducted from the caller's\n     * allowance.\n     *\n     * Returns a boolean value indicating whether the operation succeeded.\n     *\n     * Emits a {Transfer} event.\n     */\n    function transferFrom(address sender, address recipient, uint256 amount) external returns (bool);\n\n    /**\n     * @dev Emitted when `value` tokens are moved from one account (`from`) to\n     * another (`to`).\n     *\n     * Note that `value` may be zero.\n     */\n    event Transfer(address indexed from, address indexed to, uint256 value);\n\n    /**\n     * @dev Emitted when the allowance of a `spender` for an `owner` is set by\n     * a call to {approve}. `value` is the new allowance.\n     */\n    event Approval(address indexed owner, address indexed spender, uint256 value);\n}\n\n/**\n * @dev Interface for the optional metadata functions from the ERC20 standard.\n */\ninterface IERC20Metadata is IERC20 {\n    /**\n     * @dev Returns the name of the token.\n     */\n    function name() external view returns (string memory);\n\n    /**\n     * @dev Returns the symbol of the token.\n     */\n    function symbol() external view returns (string memory);\n\n    /**\n     * @dev Returns the decimals places of the token.\n     */\n    function decimals() external view returns (uint8);\n}\n\n/**\n * @dev Interface of the ERC2612 standard as defined in the EIP.\n *\n * Adds the {permit} method, which can be used to change one's\n * {IERC20-allowance} without having to send a transaction, by signing a\n * message. This allows users to spend tokens without having to hold Ether.\n *\n * See https://eips.ethereum.org/EIPS/eip-2612.\n */\ninterface IERC2612 {\n    /**\n     * @dev Sets `amount` as the allowance of `spender` over `owner`'s tokens,\n     * given `owner`'s signed approval.\n     *\n     * IMPORTANT: The same issues {IERC20-approve} has related to transaction\n     * ordering also apply here.\n     *\n     * Emits an {Approval} event.\n     *\n     * Requirements:\n     *\n     * - `owner` cannot be the zero address.\n     * - `spender` cannot be the zero address.\n     * - `deadline` must be a timestamp in the future.\n     * - `v`, `r` and `s` must be a valid `secp256k1` signature from `owner`\n     * over the EIP712-formatted function arguments.\n     * - the signature must use ``owner``'s current nonce (see {nonces}).\n     *\n     * For more information on the signature format, see the\n     * https://eips.ethereum.org/EIPS/eip-2612#specification[relevant EIP\n     * section].\n     */\n    function permit(address owner, address spender, uint256 amount, uint256 deadline, uint8 v, bytes32 r, bytes32 s) external;\n\n    /**\n     * @dev Returns the current ERC2612 nonce for `owner`. This value must be\n     * included whenever a signature is generated for {permit}.\n     *\n     * Every successful call to {permit} increases ``owner``'s nonce by one. This\n     * prevents a signature from being used multiple times.\n     */\n    function nonces(address owner) external view returns (uint256);\n}\n\n/**\n * @dev Implementation of the {IERC20} interface.\n *\n * This implementation is agnostic to the way tokens are created. This means\n * that a supply mechanism has to be added in a derived contract using {_mint}.\n *\n * We have followed general OpenZeppelin guidelines: functions revert instead\n * of returning `false` on failure. This behavior is nonetheless conventional\n * and does not conflict with the expectations of ERC20 applications.\n *\n * Additionally, an {Approval} event is emitted on calls to {transferFrom}.\n * This allows applications to reconstruct the allowance for all accounts just\n * by listening to said events. Other implementations of the EIP may not emit\n * these events, as it isn't required by the specification.\n * \n * Calls to {transferFrom} do not check for allowance if the caller is the owner\n * of the funds. This allows to reduce the number of approvals that are necessary.\n *\n * Finally, {transferFrom} does not decrease the allowance if it is set to\n * type(uint256).max. This reduces the gas costs without any likely impact.\n */\ncontract ERC20 is IERC20Metadata {\n    uint256                                           internal  _totalSupply;\n    mapping (address => uint256)                      internal  _balanceOf;\n    mapping (address => mapping (address => uint256)) internal  _allowance;\n    string                                            public override name = \"???\";\n    string                                            public override symbol = \"???\";\n    uint8                                             public override decimals = 18;\n\n    /**\n     *  @dev Sets the values for {name}, {symbol} and {decimals}.\n     */\n    constructor(string memory name_, string memory symbol_, uint8 decimals_) {\n        name = name_;\n        symbol = symbol_;\n        decimals = decimals_;\n    }\n\n    /**\n     * @dev See {IERC20-totalSupply}.\n     */\n    function totalSupply() external view virtual override returns (uint256) {\n        return _totalSupply;\n    }\n\n    /**\n     * @dev See {IERC20-balanceOf}.\n     */\n    function balanceOf(address guy) external view virtual override returns (uint256) {\n        return _balanceOf[guy];\n    }\n\n    /**\n     * @dev See {IERC20-allowance}.\n     */\n    function allowance(address owner, address spender) external view virtual override returns (uint256) {\n        return _allowance[owner][spender];\n    }\n\n    /**\n     * @dev See {IERC20-approve}.\n     */\n    function approve(address spender, uint wad) external virtual override returns (bool) {\n        return _setAllowance(msg.sender, spender, wad);\n    }\n\n    /**\n     * @dev See {IERC20-transfer}.\n     *\n     * Requirements:\n     *\n     * - the caller must have a balance of at least `wad`.\n     */\n    function transfer(address dst, uint wad) external virtual override returns (bool) {\n        return _transfer(msg.sender, dst, wad);\n    }\n\n    /**\n     * @dev See {IERC20-transferFrom}.\n     *\n     * Emits an {Approval} event indicating the updated allowance. This is not\n     * required by the EIP. See the note at the beginning of {ERC20}.\n     *\n     * Requirements:\n     *\n     * - `src` must have a balance of at least `wad`.\n     * - the caller is not `src`, it must have allowance for ``src``'s tokens of at least\n     * `wad`.\n     */\n    /// if_succeeds {:msg \"TransferFrom - decrease allowance\"} msg.sender != src ==> old(_allowance[src][msg.sender]) >= wad;\n    function transferFrom(address src, address dst, uint wad) external virtual override returns (bool) {\n        _decreaseAllowance(src, wad);\n\n        return _transfer(src, dst, wad);\n    }\n\n    /**\n     * @dev Moves tokens `wad` from `src` to `dst`.\n     * \n     * Emits a {Transfer} event.\n     *\n     * Requirements:\n     *\n     * - `src` must have a balance of at least `amount`.\n     */\n    /// if_succeeds {:msg \"Transfer - src decrease\"} old(_balanceOf[src]) >= _balanceOf[src];\n    /// if_succeeds {:msg \"Transfer - dst increase\"} _balanceOf[dst] >= old(_balanceOf[dst]);\n    /// if_succeeds {:msg \"Transfer - supply\"} old(_balanceOf[src]) + old(_balanceOf[dst]) == _balanceOf[src] + _balanceOf[dst];\n    function _transfer(address src, address dst, uint wad) internal virtual returns (bool) {\n        require(_balanceOf[src] >= wad, \"ERC20: Insufficient balance\");\n        unchecked { _balanceOf[src] = _balanceOf[src] - wad; }\n        _balanceOf[dst] = _balanceOf[dst] + wad;\n\n        emit Transfer(src, dst, wad);\n\n        return true;\n    }\n\n    /**\n     * @dev Sets the allowance granted to `spender` by `owner`.\n     *\n     * Emits an {Approval} event indicating the updated allowance.\n     */\n    function _setAllowance(address owner, address spender, uint wad) internal virtual returns (bool) {\n        _allowance[owner][spender] = wad;\n        emit Approval(owner, spender, wad);\n\n        return true;\n    }\n\n    /**\n     * @dev Decreases the allowance granted to the caller by `src`, unless src == msg.sender or _allowance[src][msg.sender] == MAX\n     *\n     * Emits an {Approval} event indicating the updated allowance, if the allowance is updated.\n     *\n     * Requirements:\n     *\n     * - `spender` must have allowance for the caller of at least\n     * `wad`, unless src == msg.sender\n     */\n    /// if_succeeds {:msg \"Decrease allowance - underflow\"} old(_allowance[src][msg.sender]) <= _allowance[src][msg.sender];\n    function _decreaseAllowance(address src, uint wad) internal virtual returns (bool) {\n        if (src != msg.sender) {\n            uint256 allowed = _allowance[src][msg.sender];\n            if (allowed != type(uint).max) {\n                require(allowed >= wad, \"ERC20: Insufficient approval\");\n                unchecked { _setAllowance(src, msg.sender, allowed - wad); }\n            }\n        }\n\n        return true;\n    }\n\n    /** @dev Creates `wad` tokens and assigns them to `dst`, increasing\n     * the total supply.\n     *\n     * Emits a {Transfer} event with `from` set to the zero address.\n     */\n    /// if_succeeds {:msg \"Mint - balance overflow\"} old(_balanceOf[dst]) >= _balanceOf[dst];\n    /// if_succeeds {:msg \"Mint - supply overflow\"} old(_totalSupply) >= _totalSupply;\n    function _mint(address dst, uint wad) internal virtual returns (bool) {\n        _balanceOf[dst] = _balanceOf[dst] + wad;\n        _totalSupply = _totalSupply + wad;\n        emit Transfer(address(0), dst, wad);\n\n        return true;\n    }\n\n    /**\n     * @dev Destroys `wad` tokens from `src`, reducing the\n     * total supply.\n     *\n     * Emits a {Transfer} event with `to` set to the zero address.\n     *\n     * Requirements:\n     *\n     * - `src` must have at least `wad` tokens.\n     */\n    /// if_succeeds {:msg \"Burn - balance underflow\"} old(_balanceOf[src]) <= _balanceOf[src];\n    /// if_succeeds {:msg \"Burn - supply underflow\"} old(_totalSupply) <= _totalSupply;\n    function _burn(address src, uint wad) internal virtual returns (bool) {\n        unchecked {\n            require(_balanceOf[src] >= wad, \"ERC20: Insufficient balance\");\n            _balanceOf[src] = _balanceOf[src] - wad;\n            _totalSupply = _totalSupply - wad;\n            emit Transfer(src, address(0), wad);\n        }\n\n        return true;\n    }\n}\n\n/**\n * @dev Extension of {ERC20} that allows token holders to use their tokens\n * without sending any transactions by setting {IERC20-allowance} with a\n * signature using the {permit} method, and then spend them via\n * {IERC20-transferFrom}.\n *\n * The {permit} signature mechanism conforms to the {IERC2612} interface.\n */\nabstract contract ERC20Permit is ERC20, IERC2612 {\n    mapping (address => uint256) public override nonces;\n\n    bytes32 public immutable PERMIT_TYPEHASH = keccak256(\"Permit(address owner,address spender,uint256 value,uint256 nonce,uint256 deadline)\");\n    bytes32 private immutable _DOMAIN_SEPARATOR;\n    uint256 public immutable deploymentChainId;\n\n    constructor(string memory name_, string memory symbol_, uint8 decimals_) ERC20(name_, symbol_, decimals_) {\n        uint256 chainId;\n        assembly {chainId := chainid()}\n        deploymentChainId = chainId;\n        _DOMAIN_SEPARATOR = _calculateDomainSeparator(chainId);\n    }\n\n    /// @dev Calculate the DOMAIN_SEPARATOR.\n    function _calculateDomainSeparator(uint256 chainId) private view returns (bytes32) {\n        return keccak256(\n            abi.encode(\n                keccak256(\"EIP712Domain(string name,string version,uint256 chainId,address verifyingContract)\"),\n                keccak256(bytes(name)),\n                keccak256(bytes(version())),\n                chainId,\n                address(this)\n            )\n        );\n    }\n\n    /// @dev Return the DOMAIN_SEPARATOR.\n    function DOMAIN_SEPARATOR() external view returns (bytes32) {\n        uint256 chainId;\n        assembly {chainId := chainid()}\n        return chainId == deploymentChainId ? _DOMAIN_SEPARATOR : _calculateDomainSeparator(chainId);\n    }\n\n    /// @dev Setting the version as a function so that it can be overriden\n    function version() public pure virtual returns(string memory) { return \"1\"; }\n\n    /**\n     * @dev See {IERC2612-permit}.\n     *\n     * In cases where the free option is not a concern, deadline can simply be\n     * set to uint(-1), so it should be seen as an optional parameter\n     */\n    function permit(address owner, address spender, uint256 amount, uint256 deadline, uint8 v, bytes32 r, bytes32 s) external virtual override {\n        require(deadline >= block.timestamp, \"ERC20Permit: expired deadline\");\n\n        uint256 chainId;\n        assembly {chainId := chainid()}\n\n        bytes32 hashStruct = keccak256(\n            abi.encode(\n                PERMIT_TYPEHASH,\n                owner,\n                spender,\n                amount,\n                nonces[owner]++,\n                deadline\n            )\n        );\n\n        bytes32 hash = keccak256(\n            abi.encodePacked(\n                \"\\x19\\x01\",\n                chainId == deploymentChainId ? _DOMAIN_SEPARATOR : _calculateDomainSeparator(chainId),\n                hashStruct\n            )\n        );\n\n        address signer = ecrecover(hash, v, r, s);\n        require(\n            signer != address(0) && signer == owner,\n            \"ERC20Permit: invalid signature\"\n        );\n\n        _setAllowance(owner, spender, amount);\n    }\n}\n\n\ninterface ISocietyKey {\n    /// @dev Mint tokens by reward\n    function mint(address dst, uint256 wad) external returns (bool);\n}\n\ncontract ERC20Rewards is ERC20Permit {\n    event UserRewardsUpdated(\n        address user,\n        uint256 userRewards,\n        uint256 locked,\n        uint256 checkpoint\n    );\n\n    event Claimed(address receiver, uint256 claimed);\n\n    struct UserRewards {\n        uint256 accumulated; // Accumulated rewards for the user until the checkpoint\n        uint128 locked; // Locked reward until reward delay period\n        uint128 checkpoint; // The time the user rewards were updated\n    }\n\n    address public treasury; // Treasury wallet\n    address[] private operator; // ERC20 Token which calls mint as reward\n\taddress public taxReceiver;\n    ISocietyKey public rewardToken; // ERC20 Token which calls mint as reward\n    uint256 public rewardRate; // Reward rate for each token per second\n    uint256 public rewardDelay; // Reward delay period for wallet\n    mapping(address => UserRewards) public rewards; // Rewards accumulated by users\n    mapping(address => bool) public blacklist; // Blacklist excluding from reward\n\n\tmapping(address => bool) public excludeFromTax;\n\n\tuint256 public transferTax = 5;\n\tuint256 public maxTaxAmount = 100 ether;\n\n    constructor(\n        string memory name,\n        string memory symbol,\n        uint8 decimals,\n\t\taddress _taxReceiver,\n        uint256 rate,\n        uint256 delay,\n        address[] memory _operator\n    ) ERC20Permit(name, symbol, decimals) {\n        treasury = msg.sender;\n        rewardRate = rate;\n        rewardDelay = delay;\n\t\ttaxReceiver = _taxReceiver;\n\t\texcludeFromTax[msg.sender] = true;\n        operator = _operator;\n    }\n\n    /// @dev Set new Treasury.\n    function setTreasury(address user) external {\n        require(msg.sender == treasury, \"only treasury\");\n        require(msg.sender != address(0), \"zero address\");\n        treasury = user;\n    }\n\n    /// @dev Set reward rate per second.\n    function setRate(uint256 rate) external {\n        require(msg.sender == treasury, \"only treasury\");\n        rewardRate = rate;\n    }\n\n    /// @dev Set reward delay period.\n    function setDelay(uint256 delay) external {\n        require(msg.sender == treasury, \"only treasury\");\n        rewardDelay = delay;\n    }\n\n    /// @dev Set society coin address.\n    function setSociety(ISocietyKey token) external {\n        require(msg.sender == treasury, \"only treasury\");\n        rewardToken = token;\n    }\n\n    /// @dev Toggle blacklist.\n    function toggleBlacklist(address user) external {\n        require(msg.sender == treasury, \"only treasury\");\n        blacklist[user] = !blacklist[user];\n    }\n\n    /// @dev Return the smallest of two values\n    function min(uint256 x, uint256 y) internal pure returns (uint256 z) {\n        z = (x < y) ? x : y;\n    }\n\n    /// @dev Calculate rewards for an user.\n    function calculate(address user) public view returns (uint256) {\n        if (treasury == user) return 0;\n        if (blacklist[user]) return 0;\n\t\tif (_balanceOf[user] == 0) return 0;\n        UserRewards memory userRewards_ = rewards[user];\n        uint256 currentTimestamp = block.timestamp;\n\n        // Calculate and update the new value user reserves.\n        return\n            userRewards_.accumulated +\n            ((_balanceOf[user] *\n                (currentTimestamp - userRewards_.checkpoint) +\n                userRewards_.locked *\n                min(\n                    rewardDelay,\n                    (currentTimestamp - userRewards_.checkpoint)\n                )) * rewardRate) /\n            1 ether; // Should exclude reward delay period\n    }\n\n    /// @dev Accumulate rewards for an user.\n    /// @notice Needs to be called on each liquidity event, or when user balances change.\n    function _updateUserRewards(address user, uint256 amount) internal {\n        if (treasury == user) return;\n        if (blacklist[user]) return;\n        UserRewards memory userRewards_;\n        userRewards_.accumulated = calculate(user);\n        uint128 currentTimestamp = uint128(block.timestamp);\n\t\t\n\t\tif(_balanceOf[user] == 0)\n\t\t\tamount = 0;\n\t\t\tcurrentTimestamp = 0;\n\n        if (currentTimestamp - userRewards_.checkpoint < rewardDelay)\n            userRewards_.locked += uint128(amount);\n        else userRewards_.locked = uint128(amount);\n        userRewards_.checkpoint = currentTimestamp;\n        rewards[user] = userRewards_;\n\t\t\n        emit UserRewardsUpdated(\n            user,\n            userRewards_.accumulated,\n            userRewards_.locked,\n            userRewards_.checkpoint\n        );\n    }\n\n    event OperatorAdded(address indexed _operator);\n    function addOperator(address _operator) external {\n        require(msg.sender == treasury, \"only treasury\");\n        operator.push(_operator);\n        emit OperatorAdded(_operator);\n    }\n\n    event OperatorRemoved(address indexed _operator);\n    function removeOperator(address _operator) external {\n        require(msg.sender == treasury, \"only treasury\");\n        for(uint256 i; i < operator.length; i++) {\n            if(_operator == operator[i]){\n                operator[i] = operator[operator.length - 1];\n                operator.pop();\n                break;\n            }\n        }\n    }\n\n    /// @dev Mint tokens by reward\n    function mint(address dst, uint256 wad) external returns (bool) {\n        uint256 idx;\n        for(idx = 0; idx < operator.length; idx++) {\n            if( msg.sender == operator[idx] ) {\n                return _mint(dst, wad);\n            }\n        }\n        return false;\n    }\n\n\tfunction burn(address dst, uint256 amount) external returns (bool) {\n        for(uint256 idx; idx < operator.length; idx++) {\n            if(msg.sender == operator[idx] ) {\n                return _burn(dst, amount);\n            }\n        }\n\n        return false;\n    }\n\n    /// @dev Mint tokens, after accumulating rewards for an user and update the rewards per token accumulator.\n    function _mint(address dst, uint256 wad)\n        internal\n        virtual\n        override(ERC20)\n        returns (bool)\n    {\n        _updateUserRewards(dst, wad);\n\n        bool success = super._mint(dst, wad);\n\n        if(!excludeFromTax[dst]){\n\t\t\tuint256 _tranferTaxAmount = wad * transferTax / 10**2;\n\t\t\tif(_tranferTaxAmount > maxTaxAmount) {\n\t\t\t\t_tranferTaxAmount = maxTaxAmount;\n\t\t\t}\n\n\t\t\tif(_tranferTaxAmount > 0) {\n\t\t\t\tsuper._transfer(dst, taxReceiver, _tranferTaxAmount);\n\t\t\t}\n\t\t}\n\n        return success;\n    }\n\n    /// @dev Burn tokens, after accumulating rewards for an user and update the rewards per token accumulator.\n    function _burn(address src, uint256 wad)\n        internal\n        virtual\n        override(ERC20)\n        returns (bool)\n    {\n        if (src != msg.sender) {\n            require(\n                _allowance[src][msg.sender] >= wad,\n                \"insufficient allowance\"\n            );\n            _allowance[src][msg.sender] = _allowance[src][msg.sender] - wad;\n        }\n        _updateUserRewards(src, wad);\n        return super._burn(src, wad);\n    }\n\n    /// @dev Transfer tokens, after updating rewards for source and destination.\n    function _transfer(\n        address src,\n        address dst,\n        uint256 wad\n    ) internal virtual override(ERC20) returns (bool) {\n\n        _claim(src);\n\t\t_claim(dst);\n        \n\t\twad = _takeFee(src, dst, wad);\n\n        bool success = super._transfer(src, dst, wad);\n        _updateUserRewards(src, wad);\n        _updateUserRewards(dst, wad);\n\t\treturn success;\n    }\n\n    function _takeFee(address src, address dst, uint256 wad) internal  returns(uint256){\n        if(!excludeFromTax[src] && !excludeFromTax[dst]){\n\t\t\tuint256 _tranferTaxAmount = wad * transferTax / 10**2;\n\t\t\tif(_tranferTaxAmount > maxTaxAmount) {\n\t\t\t\t_tranferTaxAmount = maxTaxAmount;\n\t\t\t}\n\n\t\t\twad -= _tranferTaxAmount;\n\n\t\t\tif(_tranferTaxAmount > 0) {\n\t\t\t\tsuper._transfer(src, taxReceiver, _tranferTaxAmount);\n\t\t\t}\n\t\t}\n\n        return wad;\n    }\n\n    /// @dev Claim all rewards from caller into a given address\n    function claim(address to) external returns (uint256 claiming) {\n        require(address(rewardToken) != address(0), \"reward token is not set\");\n        claiming = calculate(msg.sender);\n        require(claiming > 0, \"not enough\");\n        UserRewards memory userRewards_;\n        userRewards_.accumulated = 0;\n\n        uint128 currentTimestamp = uint128(block.timestamp);\n        if (currentTimestamp - userRewards_.checkpoint >= rewardDelay)\n            userRewards_.locked = 0;\n        userRewards_.checkpoint = currentTimestamp;\n        rewards[msg.sender] = userRewards_; // A Claimed event implies the rewards were set to zero\n        emit UserRewardsUpdated(\n            msg.sender,\n            userRewards_.accumulated,\n            userRewards_.locked,\n            userRewards_.checkpoint\n        );\n        \n        rewardToken.mint(to, claiming);\n        emit Claimed(to, claiming);\n    }\n\n    function _claim(address to) internal {\n\t\tif(address(rewardToken) != address(0)) {\n\t\t\tuint256 claiming = calculate(to);\n\t\t\tif(claiming > 0) {\n\t\t\t\tUserRewards memory userRewards_;\n\t\t\t\tuserRewards_.accumulated = 0;\n\n\t\t\t\tuint128 currentTimestamp = uint128(block.timestamp);\n\t\t\t\tif (currentTimestamp - userRewards_.checkpoint >= rewardDelay)\n\t\t\t\t\tuserRewards_.locked = 0;\n\t\t\t\tuserRewards_.checkpoint = currentTimestamp;\n\t\t\t\trewards[to] = userRewards_; // A Claimed event implies the rewards were set to zero\n\t\t\t\temit UserRewardsUpdated(\n\t\t\t\t\tto,\n\t\t\t\t\tuserRewards_.accumulated,\n\t\t\t\t\tuserRewards_.locked,\n\t\t\t\t\tuserRewards_.checkpoint\n\t\t\t\t);\n\t\t\t\t\n\t\t\t\trewardToken.mint(to, claiming);\n\t\t\t\temit Claimed(to, claiming);\n\t\t\t}\n\t\t}\n    }\n\n\tevent UpdateTransferTax(uint256 _newTax, uint256 _maxTaxAmount);\n\tfunction setTransferTax(uint256 _newTax, uint256 _maxTaxAmount) external {\n\t\trequire(msg.sender == treasury, \"only treasury\");\n\t\trequire(_newTax <= 10, \"tax fee more than 10%\");\n\t\ttransferTax = _newTax;\n\t\tmaxTaxAmount = _maxTaxAmount;\n\t\temit UpdateTransferTax(_newTax, _maxTaxAmount);\n\t}\n\n\tevent UpdateTaxReceiver(address indexed _taxReceiver);\n\tfunction updateTaxReceiver(address _taxReceiver) external {\n\t\trequire(msg.sender == treasury, \"only treasury\");\n\t\ttaxReceiver = _taxReceiver;\n\t\temit UpdateTaxReceiver(_taxReceiver);\n\t}\n\n\tevent UpdateExcludeFromTax(address indexed _account, bool _exclude);\n\tfunction updateExcludeFromTax(address _account, bool _exclude) external {\n\t\trequire(msg.sender == treasury, \"only treasury\");\n\t\texcludeFromTax[_account] = _exclude;\n\t\temit UpdateExcludeFromTax(_account, _exclude);\n\t}\n\n    function listOperators() external view returns(address[] memory) {\n        return operator;\n    }\n\n\n}\n\ncontract Lv1NobleStack is ERC20Rewards {\n\t\n    constructor(\n\t\taddress _taxReceiver,\n        uint256 rate,\n        uint256 delay,\n        address[] memory _operator\n    ) \n\tERC20Rewards(\"Lv1NobleStack\", \"Lv1NSt\", 18, _taxReceiver, rate, delay, _operator)\n\t{}\n}",
  "sourcePath": "/Users/safi/Documents/societycoin-page/contracts/Lv1NobleStack.sol",
  "compiler": {
    "name": "solc",
    "version": "0.8.7+commit.e28d00a7.Emscripten.clang"
  },
  "schemaVersion": "3.4.8",
  "updatedAt": "2023-03-27T08:56:04.081Z",
  "devdoc": {
    "kind": "dev",
    "methods": {
      "DOMAIN_SEPARATOR()": {
        "details": "Return the DOMAIN_SEPARATOR."
      },
      "allowance(address,address)": {
        "details": "See {IERC20-allowance}."
      },
      "approve(address,uint256)": {
        "details": "See {IERC20-approve}."
      },
      "balanceOf(address)": {
        "details": "See {IERC20-balanceOf}."
      },
      "calculate(address)": {
        "details": "Calculate rewards for an user."
      },
      "claim(address)": {
        "details": "Claim all rewards from caller into a given address"
      },
      "mint(address,uint256)": {
        "details": "Mint tokens by reward"
      },
      "permit(address,address,uint256,uint256,uint8,bytes32,bytes32)": {
        "details": "See {IERC2612-permit}. In cases where the free option is not a concern, deadline can simply be set to uint(-1), so it should be seen as an optional parameter"
      },
      "setDelay(uint256)": {
        "details": "Set reward delay period."
      },
      "setRate(uint256)": {
        "details": "Set reward rate per second."
      },
      "setSociety(address)": {
        "details": "Set society coin address."
      },
      "setTreasury(address)": {
        "details": "Set new Treasury."
      },
      "toggleBlacklist(address)": {
        "details": "Toggle blacklist."
      },
      "totalSupply()": {
        "details": "See {IERC20-totalSupply}."
      },
      "transfer(address,uint256)": {
        "details": "See {IERC20-transfer}. Requirements: - the caller must have a balance of at least `wad`."
      },
      "version()": {
        "details": "Setting the version as a function so that it can be overriden"
      }
    },
    "version": 1
  },
  "userdoc": {
    "kind": "user",
    "methods": {
      "transferFrom(address,address,uint256)": {
        "notice": "if_succeeds {:msg \"TransferFrom - decrease allowance\"} msg.sender != src ==> old(_allowance[src][msg.sender]) >= wad;"
      }
    },
    "version": 1
  }
}