{
  "contractName": "P2PSwapLv2NobleStack",
  "abi": [
    {
      "inputs": [
        {
          "internalType": "address",
          "name": "_posToken",
          "type": "address"
        },
        {
          "internalType": "address",
          "name": "_keyToken",
          "type": "address"
        },
        {
          "internalType": "address[]",
          "name": "_validTokens",
          "type": "address[]"
        }
      ],
      "stateMutability": "nonpayable",
      "type": "constructor"
    },
    {
      "anonymous": false,
      "inputs": [
        {
          "indexed": true,
          "internalType": "address",
          "name": "previousOwner",
          "type": "address"
        },
        {
          "indexed": true,
          "internalType": "address",
          "name": "newOwner",
          "type": "address"
        }
      ],
      "name": "OwnershipTransferred",
      "type": "event"
    },
    {
      "inputs": [],
      "name": "distributor",
      "outputs": [
        {
          "internalType": "contract RewardDistributor",
          "name": "",
          "type": "address"
        }
      ],
      "stateMutability": "view",
      "type": "function"
    },
    {
      "inputs": [],
      "name": "gasLimit",
      "outputs": [
        {
          "internalType": "uint256",
          "name": "",
          "type": "uint256"
        }
      ],
      "stateMutability": "view",
      "type": "function"
    },
    {
      "inputs": [],
      "name": "geUnlockTime",
      "outputs": [
        {
          "internalType": "uint256",
          "name": "",
          "type": "uint256"
        }
      ],
      "stateMutability": "view",
      "type": "function"
    },
    {
      "inputs": [],
      "name": "owner",
      "outputs": [
        {
          "internalType": "address",
          "name": "",
          "type": "address"
        }
      ],
      "stateMutability": "view",
      "type": "function"
    },
    {
      "inputs": [],
      "name": "posToKey",
      "outputs": [
        {
          "internalType": "uint256",
          "name": "",
          "type": "uint256"
        }
      ],
      "stateMutability": "view",
      "type": "function"
    },
    {
      "inputs": [],
      "name": "posToken",
      "outputs": [
        {
          "internalType": "contract IPOS",
          "name": "",
          "type": "address"
        }
      ],
      "stateMutability": "view",
      "type": "function"
    },
    {
      "inputs": [],
      "name": "renounceOwnership",
      "outputs": [],
      "stateMutability": "nonpayable",
      "type": "function"
    },
    {
      "inputs": [],
      "name": "societyKey",
      "outputs": [
        {
          "internalType": "contract ISocietyKey",
          "name": "",
          "type": "address"
        }
      ],
      "stateMutability": "view",
      "type": "function"
    },
    {
      "inputs": [],
      "name": "swapRate",
      "outputs": [
        {
          "internalType": "uint256",
          "name": "",
          "type": "uint256"
        }
      ],
      "stateMutability": "view",
      "type": "function"
    },
    {
      "inputs": [
        {
          "internalType": "address",
          "name": "newOwner",
          "type": "address"
        }
      ],
      "name": "transferOwnership",
      "outputs": [],
      "stateMutability": "nonpayable",
      "type": "function"
    },
    {
      "stateMutability": "payable",
      "type": "receive"
    },
    {
      "inputs": [],
      "name": "listValidTokens",
      "outputs": [
        {
          "internalType": "address[]",
          "name": "",
          "type": "address[]"
        }
      ],
      "stateMutability": "view",
      "type": "function"
    },
    {
      "inputs": [
        {
          "internalType": "address",
          "name": "_token",
          "type": "address"
        }
      ],
      "name": "addValidToken",
      "outputs": [],
      "stateMutability": "nonpayable",
      "type": "function"
    },
    {
      "inputs": [
        {
          "internalType": "address",
          "name": "_token",
          "type": "address"
        }
      ],
      "name": "removeValidToken",
      "outputs": [],
      "stateMutability": "nonpayable",
      "type": "function"
    },
    {
      "inputs": [
        {
          "internalType": "uint256",
          "name": "_amount",
          "type": "uint256"
        }
      ],
      "name": "deposit",
      "outputs": [],
      "stateMutability": "nonpayable",
      "type": "function"
    },
    {
      "inputs": [
        {
          "internalType": "uint256",
          "name": "_amount",
          "type": "uint256"
        },
        {
          "internalType": "address",
          "name": "_token",
          "type": "address"
        }
      ],
      "name": "swap",
      "outputs": [],
      "stateMutability": "nonpayable",
      "type": "function"
    },
    {
      "inputs": [
        {
          "internalType": "address",
          "name": "_token",
          "type": "address"
        },
        {
          "internalType": "uint256",
          "name": "_amount",
          "type": "uint256"
        }
      ],
      "name": "withdrawERC20",
      "outputs": [],
      "stateMutability": "nonpayable",
      "type": "function"
    },
    {
      "inputs": [
        {
          "internalType": "uint256",
          "name": "_amount",
          "type": "uint256"
        }
      ],
      "name": "getAmountReceive",
      "outputs": [
        {
          "internalType": "uint256",
          "name": "",
          "type": "uint256"
        }
      ],
      "stateMutability": "view",
      "type": "function"
    },
    {
      "inputs": [
        {
          "internalType": "uint256",
          "name": "_amount",
          "type": "uint256"
        }
      ],
      "name": "withdrawPOS",
      "outputs": [],
      "stateMutability": "nonpayable",
      "type": "function"
    },
    {
      "inputs": [
        {
          "internalType": "uint256",
          "name": "_amount",
          "type": "uint256"
        }
      ],
      "name": "withdrawSocietyKey",
      "outputs": [],
      "stateMutability": "nonpayable",
      "type": "function"
    },
    {
      "inputs": [
        {
          "internalType": "address",
          "name": "depositor",
          "type": "address"
        }
      ],
      "name": "balanceOfPos",
      "outputs": [
        {
          "internalType": "uint256",
          "name": "",
          "type": "uint256"
        }
      ],
      "stateMutability": "view",
      "type": "function"
    },
    {
      "inputs": [
        {
          "internalType": "address",
          "name": "depositor",
          "type": "address"
        }
      ],
      "name": "balanceOfSocietyKey",
      "outputs": [
        {
          "internalType": "uint256",
          "name": "",
          "type": "uint256"
        }
      ],
      "stateMutability": "view",
      "type": "function"
    },
    {
      "inputs": [
        {
          "internalType": "address",
          "name": "_account",
          "type": "address"
        },
        {
          "internalType": "bool",
          "name": "_whitelist",
          "type": "bool"
        }
      ],
      "name": "updateWhitelist",
      "outputs": [],
      "stateMutability": "nonpayable",
      "type": "function"
    },
    {
      "inputs": [
        {
          "internalType": "bool",
          "name": "_mode",
          "type": "bool"
        }
      ],
      "name": "updateWhitelistMode",
      "outputs": [],
      "stateMutability": "nonpayable",
      "type": "function"
    },
    {
      "inputs": [
        {
          "internalType": "uint256",
          "name": "_gasLimit",
          "type": "uint256"
        }
      ],
      "name": "updateGasLimit",
      "outputs": [],
      "stateMutability": "nonpayable",
      "type": "function"
    },
    {
      "inputs": [],
      "name": "manualDistributeReward",
      "outputs": [],
      "stateMutability": "nonpayable",
      "type": "function"
    },
    {
      "inputs": [
        {
          "internalType": "address",
          "name": "_shareHolder",
          "type": "address"
        }
      ],
      "name": "claimRewardManual",
      "outputs": [],
      "stateMutability": "nonpayable",
      "type": "function"
    }
  ],
  "bytecode": "0x60806040526001600481905560078190556207a120600955600b805460ff191690911790553480156200003157600080fd5b50604051620031b7380380620031b78339810160408190526200005491620001cb565b60008054336001600160a01b031991821681178355600180549092168117909155604051909182917f8be0079c531659141344cd1fd0a4f28419497f9722a3daafe3b4186f6b6457e0908290a3508133604051620000b290620001a0565b6001600160a01b03928316815291166020820152604001604051809103906000f080158015620000e6573d6000803e3d6000fd5b50600880546001600160a01b03199081166001600160a01b03938416179091556005805482168684161790556006805490911691841691909117905560005b81518110156200019657600c828281518110620001465762000146620002f6565b60209081029190910181015182546001810184556000938452919092200180546001600160a01b0319166001600160a01b03909216919091179055806200018d81620002cc565b91505062000125565b5050505062000322565b6112888062001f2f83390190565b80516001600160a01b0381168114620001c657600080fd5b919050565b600080600060608486031215620001e157600080fd5b620001ec84620001ae565b92506020620001fd818601620001ae565b60408601519093506001600160401b03808211156200021b57600080fd5b818701915087601f8301126200023057600080fd5b8151818111156200024557620002456200030c565b8060051b604051601f19603f830116810181811085821117156200026d576200026d6200030c565b604052828152858101935084860182860187018c10156200028d57600080fd5b600095505b83861015620002bb57620002a681620001ae565b85526001959095019493860193860162000292565b508096505050505050509250925092565b6000600019821415620002ef57634e487b7160e01b600052601160045260246000fd5b5060010190565b634e487b7160e01b600052603260045260246000fd5b634e487b7160e01b600052604160045260246000fd5b611bfd80620003326000396000f3fe6080604052600436106101855760003560e01c8063b6b55f25116100d1578063c3e58e921161008a578063d478bfeb11610064578063d478bfeb1461045b578063f2fde38b1461047b578063f68016b71461049b578063f687d12a146104b157600080fd5b8063c3e58e92146103fb578063c7d706791461041b578063d3986f081461043b57600080fd5b8063b6b55f2514610351578063b6c5232414610371578063bb88841114610386578063bfe109281461039b578063c00cd1b6146103bb578063c06c5c32146103db57600080fd5b8063686b77551161013e5780637cf75a30116101185780637cf75a30146102bf5780638da5cb5b146102df578063a1db978214610311578063b30e2dc51461033157600080fd5b8063686b77551461025e578063698518e514610294578063715018a6146102aa57600080fd5b80630806f6ef146101915780630d392cd9146101ba5780631ebca1c7146101dc5780632db50276146101fc57806340c56b271461021e5780634ad2ff931461023e57600080fd5b3661018c57005b600080fd5b34801561019d57600080fd5b506101a760075481565b6040519081526020015b60405180910390f35b3480156101c657600080fd5b506101da6101d53660046118f6565b6104d1565b005b3480156101e857600080fd5b506101da6101f73660046118db565b61052f565b34801561020857600080fd5b50610211610613565b6040516101b19190611a0b565b34801561022a57600080fd5b506101da610239366004611991565b610675565b34801561024a57600080fd5b506101da6102593660046118db565b610808565b34801561026a57600080fd5b506101a76102793660046118db565b6001600160a01b031660009081526003602052604090205490565b3480156102a057600080fd5b506101a760045481565b3480156102b657600080fd5b506101da61086b565b3480156102cb57600080fd5b506101da6102da366004611991565b6108df565b3480156102eb57600080fd5b506000546001600160a01b03165b6040516001600160a01b0390911681526020016101b1565b34801561031d57600080fd5b506101da61032c36600461192d565b610a15565b34801561033d57600080fd5b506101da61034c3660046118db565b610a5b565b34801561035d57600080fd5b506101da61036c366004611991565b610baa565b34801561037d57600080fd5b506002546101a7565b34801561039257600080fd5b506101da610d21565b3480156103a757600080fd5b506008546102f9906001600160a01b031681565b3480156103c757600080fd5b506101a76103d6366004611991565b610d55565b3480156103e757600080fd5b506101a76103f63660046118db565b610d72565b34801561040757600080fd5b506006546102f9906001600160a01b031681565b34801561042757600080fd5b506005546102f9906001600160a01b031681565b34801561044757600080fd5b506101da6104563660046119c3565b610d9a565b34801561046757600080fd5b506101da610476366004611957565b610f61565b34801561048757600080fd5b506101da6104963660046118db565b610f9e565b3480156104a757600080fd5b506101a760095481565b3480156104bd57600080fd5b506101da6104cc366004611991565b611088565b6000546001600160a01b031633146105045760405162461bcd60e51b81526004016104fb90611a8b565b60405180910390fd5b6001600160a01b03919091166000908152600a60205260409020805460ff1916911515919091179055565b6000546001600160a01b031633146105595760405162461bcd60e51b81526004016104fb90611a8b565b610562816110b7565b156105bd5760405162461bcd60e51b815260206004820152602560248201527f49455243323020746f6b656e20697320616c726561647920612076616c6964206044820152643a37b5b2b760d91b60648201526084016104fb565b600c80546001810182556000919091527fdf6966c971051c3d54ec59162606531493a51404a002842f56009d7e5cf4a8c70180546001600160a01b0319166001600160a01b03831617905561061061111b565b50565b6060600c80548060200260200160405190810160405280929190818152602001828054801561066b57602002820191906000526020600020905b81546001600160a01b0316815260019091019060200180831161064d575b5050505050905090565b336000908152600360205260409020548111156106cd5760405162461bcd60e51b81526020600482015260166024820152754465706f73697420616d6f756e74206973206c65737360501b60448201526064016104fb565b33600090815260036020526040812080548392906106ec908490611b19565b909155506106fa905061111b565b6008543360008181526003602052604090819020549051630a5b654b60e11b8152600481019290925260248201526001600160a01b03909116906314b6ca9690604401600060405180830381600087803b15801561075757600080fd5b505af115801561076b573d6000803e3d6000fd5b50506005546001600160a01b0316915063a9059cbb9050335b6040516001600160e01b031960e084901b1681526001600160a01b03909116600482015260248101849052604401602060405180830381600087803b1580156107cc57600080fd5b505af11580156107e0573d6000803e3d6000fd5b505050506040513d601f19601f820116820180604052508101906108049190611974565b5050565b600854604051634ad2ff9360e01b81526001600160a01b03838116600483015290911690634ad2ff93906024015b600060405180830381600087803b15801561085057600080fd5b505af1158015610864573d6000803e3d6000fd5b5050505050565b6000546001600160a01b031633146108955760405162461bcd60e51b81526004016104fb90611a8b565b600080546040516001600160a01b03909116907f8be0079c531659141344cd1fd0a4f28419497f9722a3daafe3b4186f6b6457e0908390a3600080546001600160a01b0319169055565b806108e933610d72565b10156109415760405162461bcd60e51b815260206004820152602160248201527f4465706f73697420616d6f756e74206c657373207468616e20726571756972656044820152601960fa1b60648201526084016104fb565b61096f6109596007548361140790919063ffffffff16565b3360009081526003602052604090205490611450565b3360009081526003602052604090205561098761111b565b6008543360008181526003602052604090819020549051630a5b654b60e11b8152600481019290925260248201526001600160a01b03909116906314b6ca9690604401600060405180830381600087803b1580156109e457600080fd5b505af11580156109f8573d6000803e3d6000fd5b50506006546001600160a01b0316915063a9059cbb905033610784565b6000546001600160a01b03163314610a3f5760405162461bcd60e51b81526004016104fb90611a8b565b610a4761111b565b6108046001600160a01b0383163383611492565b6000546001600160a01b03163314610a855760405162461bcd60e51b81526004016104fb90611a8b565b610a8e816110b7565b610ae65760405162461bcd60e51b815260206004820152602360248201527f49455243323020746f6b656e206973206e6f7420696e20612076616c6964206c6044820152621a5cdd60ea1b60648201526084016104fb565b6000610af1826114fa565b600c805491925090610b0590600190611b19565b81548110610b1557610b15611ba3565b600091825260209091200154600c80546001600160a01b039092169183908110610b4157610b41611ba3565b9060005260206000200160006101000a8154816001600160a01b0302191690836001600160a01b03160217905550600c805480610b8057610b80611b8d565b600082815260209020810160001990810180546001600160a01b031916905501905561080461111b565b600b5460ff1615610c1457336000908152600a602052604090205460ff16610c145760405162461bcd60e51b815260206004820152601960248201527f63616c6c6572206973206e6f742077686974656c69737465640000000000000060448201526064016104fb565b6005546001600160a01b03166323b872dd336040516001600160e01b031960e084901b1681526001600160a01b03909116600482015230602482015260448101849052606401602060405180830381600087803b158015610c7457600080fd5b505af1158015610c88573d6000803e3d6000fd5b505050506040513d601f19601f82011682018060405250810190610cac9190611974565b50610cb561111b565b3360009081526003602052604081208054839290610cd4908490611ac0565b90915550506008543360008181526003602052604090819020549051630a5b654b60e11b8152600481019290925260248201526001600160a01b03909116906314b6ca9690604401610836565b6000546001600160a01b03163314610d4b5760405162461bcd60e51b81526004016104fb90611a8b565b610d5361111b565b565b6000610d6c6004548361140790919063ffffffff16565b92915050565b6007546001600160a01b0382166000908152600360205260408120549091610d6c9190611556565b610da3816110b7565b610def5760405162461bcd60e51b815260206004820152601d60248201527f7377617020746f6b656e206973206e6f742076616c696420746f6b656e00000060448201526064016104fb565b610df761111b565b6000610e0e6004548461140790919063ffffffff16565b9050610e256001600160a01b0383163330866115d5565b6006546007546001600160a01b03909116906340c10f19903090610e4a908590611556565b6040516001600160e01b031960e085901b1681526001600160a01b0390921660048301526024820152604401602060405180830381600087803b158015610e9057600080fd5b505af1158015610ea4573d6000803e3d6000fd5b505050506040513d601f19601f82011682018060405250810190610ec89190611974565b506005546001600160a01b031663a9059cbb336040516001600160e01b031960e084901b1681526001600160a01b03909116600482015260248101849052604401602060405180830381600087803b158015610f2357600080fd5b505af1158015610f37573d6000803e3d6000fd5b505050506040513d601f19601f82011682018060405250810190610f5b9190611974565b50505050565b6000546001600160a01b03163314610f8b5760405162461bcd60e51b81526004016104fb90611a8b565b600b805460ff1916911515919091179055565b6000546001600160a01b03163314610fc85760405162461bcd60e51b81526004016104fb90611a8b565b6001600160a01b03811661102d5760405162461bcd60e51b815260206004820152602660248201527f4f776e61626c653a206e6577206f776e657220697320746865207a65726f206160448201526564647265737360d01b60648201526084016104fb565b600080546040516001600160a01b03808516939216917f8be0079c531659141344cd1fd0a4f28419497f9722a3daafe3b4186f6b6457e091a3600080546001600160a01b0319166001600160a01b0392909216919091179055565b6000546001600160a01b031633146110b25760405162461bcd60e51b81526004016104fb90611a8b565b600955565b60008060005b600c5481101561111457600c81815481106110da576110da611ba3565b6000918252602090912001546001600160a01b03858116911614156111025760019150611114565b8061110c81611b5c565b9150506110bd565b5092915050565b6006546040516370a0823160e01b81523060048201526000916001600160a01b0316906370a082319060240160206040518083038186803b15801561115f57600080fd5b505afa158015611173573d6000803e3d6000fd5b505050506040513d601f19601f8201168201806040525081019061119791906119aa565b600554604051630f41a04d60e11b81523060048201529192506001600160a01b031690631e83409a90602401602060405180830381600087803b1580156111dd57600080fd5b505af11580156111f1573d6000803e3d6000fd5b505050506040513d601f19601f8201168201806040525081019061121591906119aa565b506006546040516370a0823160e01b81523060048201526000916001600160a01b0316906370a082319060240160206040518083038186803b15801561125a57600080fd5b505afa15801561126e573d6000803e3d6000fd5b505050506040513d601f19601f8201168201806040525081019061129291906119aa565b905060006112a08284611450565b90508015801590611334575060065460085460405163a9059cbb60e01b81526001600160a01b0391821660048201526024810184905291169063a9059cbb90604401602060405180830381600087803b1580156112fc57600080fd5b505af1158015611310573d6000803e3d6000fd5b505050506040513d601f19601f820116820180604052508101906113349190611974565b156113985760085460405163b6b55f2560e01b8152600481018390526001600160a01b039091169063b6b55f2590602401600060405180830381600087803b15801561137f57600080fd5b505af1158015611393573d6000803e3d6000fd5b505050505b6008546009546040516001624d3b8760e01b031981526001600160a01b039092169163ffb2c479916113d09160040190815260200190565b600060405180830381600087803b1580156113ea57600080fd5b505af11580156113fe573d6000803e3d6000fd5b50505050505050565b600061144983836040518060400160405280601a81526020017f536166654d6174683a206469766973696f6e206279207a65726f00000000000081525061160d565b9392505050565b600061144983836040518060400160405280601e81526020017f536166654d6174683a207375627472616374696f6e206f766572666c6f770000815250611644565b6040516001600160a01b0383166024820152604481018290526114f590849063a9059cbb60e01b906064015b60408051601f198184030181529190526020810180516001600160e01b03166001600160e01b031990931692909217909152611675565b505050565b60008060005b600c5481101561111457600c818154811061151d5761151d611ba3565b6000918252602090912001546001600160a01b038581169116141561154457809150611114565b8061154e81611b5c565b915050611500565b60008261156557506000610d6c565b60006115718385611afa565b90508261157e8583611ad8565b146114495760405162461bcd60e51b815260206004820152602160248201527f536166654d6174683a206d756c7469706c69636174696f6e206f766572666c6f6044820152607760f81b60648201526084016104fb565b6040516001600160a01b0380851660248301528316604482015260648101829052610f5b9085906323b872dd60e01b906084016114be565b6000818361162e5760405162461bcd60e51b81526004016104fb9190611a58565b50600061163b8486611ad8565b95945050505050565b600081848411156116685760405162461bcd60e51b81526004016104fb9190611a58565b50600061163b8486611b19565b60006116ca826040518060400160405280602081526020017f5361666545524332303a206c6f772d6c6576656c2063616c6c206661696c6564815250856001600160a01b03166117479092919063ffffffff16565b8051909150156114f557808060200190518101906116e89190611974565b6114f55760405162461bcd60e51b815260206004820152602a60248201527f5361666545524332303a204552433230206f7065726174696f6e20646964206e6044820152691bdd081cdd58d8d9595960b21b60648201526084016104fb565b6060611756848460008561175e565b949350505050565b6060824710156117bf5760405162461bcd60e51b815260206004820152602660248201527f416464726573733a20696e73756666696369656e742062616c616e636520666f6044820152651c8818d85b1b60d21b60648201526084016104fb565b843b61180d5760405162461bcd60e51b815260206004820152601d60248201527f416464726573733a2063616c6c20746f206e6f6e2d636f6e747261637400000060448201526064016104fb565b600080866001600160a01b0316858760405161182991906119ef565b60006040518083038185875af1925050503d8060008114611866576040519150601f19603f3d011682016040523d82523d6000602084013e61186b565b606091505b509150915061187b828286611886565b979650505050505050565b60608315611895575081611449565b8251156118a55782518084602001fd5b8160405162461bcd60e51b81526004016104fb9190611a58565b80356001600160a01b03811681146118d657600080fd5b919050565b6000602082840312156118ed57600080fd5b611449826118bf565b6000806040838503121561190957600080fd5b611912836118bf565b9150602083013561192281611bb9565b809150509250929050565b6000806040838503121561194057600080fd5b611949836118bf565b946020939093013593505050565b60006020828403121561196957600080fd5b813561144981611bb9565b60006020828403121561198657600080fd5b815161144981611bb9565b6000602082840312156119a357600080fd5b5035919050565b6000602082840312156119bc57600080fd5b5051919050565b600080604083850312156119d657600080fd5b823591506119e6602084016118bf565b90509250929050565b60008251611a01818460208701611b30565b9190910192915050565b6020808252825182820181905260009190848201906040850190845b81811015611a4c5783516001600160a01b031683529284019291840191600101611a27565b50909695505050505050565b6020815260008251806020840152611a77816040850160208701611b30565b601f01601f19169190910160400192915050565b6020808252818101527f4f776e61626c653a2063616c6c6572206973206e6f7420746865206f776e6572604082015260600190565b60008219821115611ad357611ad3611b77565b500190565b600082611af557634e487b7160e01b600052601260045260246000fd5b500490565b6000816000190483118215151615611b1457611b14611b77565b500290565b600082821015611b2b57611b2b611b77565b500390565b60005b83811015611b4b578181015183820152602001611b33565b83811115610f5b5750506000910152565b6000600019821415611b7057611b70611b77565b5060010190565b634e487b7160e01b600052601160045260246000fd5b634e487b7160e01b600052603160045260246000fd5b634e487b7160e01b600052603260045260246000fd5b801515811461061057600080fdfea2646970667358221220c6db8975febcad2323b943231530268091b8be913588146cfd98611afe9afb9464736f6c6343000807003360806040526ec097ce7bc90715b34b9f1000000000600b55610708600c55633b9aca00600d5534801561003157600080fd5b50604051611288380380611288833981016040819052610050916100a7565b600280546001600160a01b039384166001600160a01b03199182161790915560008054821633179055600180549290931691161790556100da565b80516001600160a01b03811681146100a257600080fd5b919050565b600080604083850312156100ba57600080fd5b6100c38361008b565b91506100d16020840161008b565b90509250929050565b61119f806100e96000396000f3fe60806040526004361061014f5760003560e01c8063a6871bc3116100b6578063e2d2e2191161006f578063e2d2e219146103d4578063e7841ec0146103ea578063ecd0c0c3146103ff578063efca2eed1461041f578063ffb2c47914610435578063ffd49c841461045557600080fd5b8063a6871bc3146102f3578063a87df83214610313578063b6b55f2514610328578063b88a802f14610348578063cab34c081461035d578063ce7c2ac21461037d57600080fd5b80633a98ef39116101085780633a98ef39146102375780634ad2ff931461024d5780634fab0ae81461026d57806360379e13146102835780638da5cb5b146102a5578063997664d7146102dd57600080fd5b806309bbedde1461015b5780630a05cd011461017f57806311ce023d146101bf57806314b6ca96146101d557806328fd3198146101f75780632d48e8961461021757600080fd5b3661015657005b600080fd5b34801561016757600080fd5b506003545b6040519081526020015b60405180910390f35b34801561018b57600080fd5b5061019f61019a366004610f3f565b61046b565b604080519485526020850193909352918301526060820152608001610176565b3480156101cb57600080fd5b5061016c600b5481565b3480156101e157600080fd5b506101f56101f0366004610f5a565b6104c4565b005b34801561020357600080fd5b5061016c610212366004610f3f565b610651565b34801561022357600080fd5b506101f5610232366004610fd8565b6106da565b34801561024357600080fd5b5061016c60075481565b34801561025957600080fd5b506101f5610268366004610f3f565b610711565b34801561027957600080fd5b5061016c600d5481565b34801561028f57600080fd5b50610298610749565b6040516101769190610ffa565b3480156102b157600080fd5b506001546102c5906001600160a01b031681565b6040516001600160a01b039091168152602001610176565b3480156102e957600080fd5b5061016c60085481565b3480156102ff57600080fd5b506101f561030e366004610f3f565b6107ab565b34801561031f57600080fd5b5060095461016c565b34801561033457600080fd5b506101f5610343366004610fa6565b610920565b34801561035457600080fd5b506101f5610989565b34801561036957600080fd5b506002546102c5906001600160a01b031681565b34801561038957600080fd5b506103b9610398366004610f3f565b60066020526000908152604090208054600182015460029092015490919083565b60408051938452602084019290925290820152606001610176565b3480156103e057600080fd5b5061016c600a5481565b3480156103f657600080fd5b50600e5461016c565b34801561040b57600080fd5b506000546102c5906001600160a01b031681565b34801561042b57600080fd5b5061016c60095481565b34801561044157600080fd5b506101f5610450366004610fa6565b610994565b34801561046157600080fd5b5061016c600c5481565b6001600160a01b03811660009081526005602052604081205490808061049085610651565b6001600160a01b03909516600090815260066020908152604080832060020154600490925290912054949690949350915050565b6000546001600160a01b03163314806104e757506001546001600160a01b031633145b6104f057600080fd5b6001600160a01b038216600090815260066020526040902054156105175761051782610aa9565b60008111801561053d57506001600160a01b038216600090815260066020526040902054155b156105a357600380546001600160a01b0384166000818152600460205260408120839055600183018455929092527fc2575a0e9e593c00f959f8c92f12db2869c3395a3b0502d05e2516446f71f85b0180546001600160a01b03191690911790556105d6565b801580156105c857506001600160a01b03821660009081526006602052604090205415155b156105d6576105d682610bd4565b6001600160a01b03821660009081526006602052604090205460075461060791839161060191610ce9565b90610d34565b6007556001600160a01b038216600090815260066020526040902081905561062e81610d98565b6001600160a01b0390921660009081526006602052604090206001019190915550565b6001600160a01b03811660009081526006602052604081205461067657506000919050565b6001600160a01b03821660009081526006602052604081205461069890610d98565b6001600160a01b0384166000908152600660205260409020600101549091508082116106c8575060009392505050565b6106d28282610ce9565b949350505050565b6000546001600160a01b03163314806106fd57506001546001600160a01b031633145b61070657600080fd5b600c91909155600d55565b6000546001600160a01b031633148061073457506001546001600160a01b031633145b61073d57600080fd5b61074681610aa9565b50565b606060038054806020026020016040519081016040528092919081815260200182805480156107a157602002820191906000526020600020905b81546001600160a01b03168152600190910190602001808311610783575b5050505050905090565b6000546001600160a01b03163314806107ce57506001546001600160a01b031633145b6107d757600080fd5b6002546040516370a0823160e01b81523060048201526000916001600160a01b0316906370a082319060240160206040518083038186803b15801561081b57600080fd5b505afa15801561082f573d6000803e3d6000fd5b505050506040513d601f19601f820116820180604052508101906108539190610fbf565b9050478015610894576040516001600160a01b0384169082156108fc029083906000818181858888f19350505050158015610892573d6000803e3d6000fd5b505b60025460405163a9059cbb60e01b81526001600160a01b038581166004830152602482018590529091169063a9059cbb90604401602060405180830381600087803b1580156108e257600080fd5b505af11580156108f6573d6000803e3d6000fd5b505050506040513d601f19601f8201168201806040525081019061091a9190610f84565b50505050565b6000546001600160a01b031633148061094357506001546001600160a01b031633145b61094c57600080fd5b6008546109599082610d34565b600855600754600b546109839161097a916109749085610db5565b90610e34565b600a5490610d34565b600a5550565b61099233610aa9565b565b6000546001600160a01b03163314806109b757506001546001600160a01b031633145b6109c057600080fd5b600354806109cc575050565b6000805a905060005b84831080156109e357508381105b15610aa25783600e54106109f7576000600e555b610a296003600e5481548110610a0f57610a0f611153565b6000918252602090912001546001600160a01b0316610e76565b15610a6057610a606003600e5481548110610a4657610a46611153565b6000918252602090912001546001600160a01b0316610aa9565b610a75610a6e5a8490610ce9565b8490610d34565b92505a600e80549193506000610a8a8361110c565b91905055508080610a9a9061110c565b9150506109d5565b5050505050565b6001600160a01b038116600090815260066020526040902054610ac95750565b6000610ad482610651565b90508015610bd057600954610ae99082610d34565b60095560025460405163a9059cbb60e01b81526001600160a01b038481166004830152602482018490529091169063a9059cbb90604401602060405180830381600087803b158015610b3a57600080fd5b505af1158015610b4e573d6000803e3d6000fd5b505050506040513d601f19601f82011682018060405250810190610b729190610f84565b506001600160a01b03821660009081526005602090815260408083204290556006909152902060020154610ba69082610d34565b6001600160a01b038316600090815260066020526040902060028101919091555461062e90610d98565b5050565b60038054610be4906001906110f5565b81548110610bf457610bf4611153565b60009182526020808320909101546001600160a01b0384811684526004909252604090922054600380549290931692918110610c3257610c32611153565b600091825260208083209190910180546001600160a01b0319166001600160a01b03948516179055918316815260049182905260408120546003805491939291610c7e906001906110f5565b81548110610c8e57610c8e611153565b60009182526020808320909101546001600160a01b031683528201929092526040019020556003805480610cc457610cc461113d565b600082815260209020810160001990810180546001600160a01b031916905501905550565b6000610d2b83836040518060400160405280601e81526020017f536166654d6174683a207375627472616374696f6e206f766572666c6f770000815250610ebb565b90505b92915050565b600080610d41838561109c565b905083811015610d2b5760405162461bcd60e51b815260206004820152601b60248201527f536166654d6174683a206164646974696f6e206f766572666c6f77000000000060448201526064015b60405180910390fd5b6000610d2e600b54610974600a5485610db590919063ffffffff16565b600082610dc457506000610d2e565b6000610dd083856110d6565b905082610ddd85836110b4565b14610d2b5760405162461bcd60e51b815260206004820152602160248201527f536166654d6174683a206d756c7469706c69636174696f6e206f766572666c6f6044820152607760f81b6064820152608401610d8f565b6000610d2b83836040518060400160405280601a81526020017f536166654d6174683a206469766973696f6e206279207a65726f000000000000815250610ef5565b600c546001600160a01b03821660009081526005602052604081205490914291610ea0919061109c565b108015610d2e5750600d54610eb483610651565b1192915050565b60008184841115610edf5760405162461bcd60e51b8152600401610d8f9190611047565b506000610eec84866110f5565b95945050505050565b60008183610f165760405162461bcd60e51b8152600401610d8f9190611047565b506000610eec84866110b4565b80356001600160a01b0381168114610f3a57600080fd5b919050565b600060208284031215610f5157600080fd5b610d2b82610f23565b60008060408385031215610f6d57600080fd5b610f7683610f23565b946020939093013593505050565b600060208284031215610f9657600080fd5b81518015158114610d2b57600080fd5b600060208284031215610fb857600080fd5b5035919050565b600060208284031215610fd157600080fd5b5051919050565b60008060408385031215610feb57600080fd5b50508035926020909101359150565b6020808252825182820181905260009190848201906040850190845b8181101561103b5783516001600160a01b031683529284019291840191600101611016565b50909695505050505050565b600060208083528351808285015260005b8181101561107457858101830151858201604001528201611058565b81811115611086576000604083870101525b50601f01601f1916929092016040019392505050565b600082198211156110af576110af611127565b500190565b6000826110d157634e487b7160e01b600052601260045260246000fd5b500490565b60008160001904831182151516156110f0576110f0611127565b500290565b60008282101561110757611107611127565b500390565b600060001982141561112057611120611127565b5060010190565b634e487b7160e01b600052601160045260246000fd5b634e487b7160e01b600052603160045260246000fd5b634e487b7160e01b600052603260045260246000fdfea2646970667358221220296e34df46d5be527d292b7761f42829f8321a8ffb8d3dc5183b62784f099a8364736f6c63430008070033",
  "immutableReferences": {},
  "source": "// SPDX-License-Identifier: MIT\n\npragma solidity ^ 0.8.7;\n\n\n/**\n * @dev Interface of the ERC20 standard as defined in the EIP.\n */\ninterface IERC20 {\n    /**\n     * @dev Returns the amount of tokens in existence.\n     */\n    function totalSupply() external view returns (uint256);\n\n    /**\n     * @dev Returns the amount of tokens owned by `account`.\n     */\n    function balanceOf(address account) external view returns (uint256);\n\n    /**\n     * @dev Moves `amount` tokens from the caller's account to `recipient`.\n     *\n     * Returns a boolean value indicating whether the operation succeeded.\n     *\n     * Emits a {Transfer} event.\n     */\n    function transfer(address recipient, uint256 amount) external returns (bool);\n\n    /**\n     * @dev Returns the remaining number of tokens that `spender` will be\n     * allowed to spend on behalf of `owner` through {transferFrom}. This is\n     * zero by default.\n     *\n     * This value changes when {approve} or {transferFrom} are called.\n     */\n    function allowance(address owner, address spender) external view returns (uint256);\n\n    /**\n     * @dev Sets `amount` as the allowance of `spender` over the caller's tokens.\n     *\n     * Returns a boolean value indicating whether the operation succeeded.\n     *\n     * IMPORTANT: Beware that changing an allowance with this method brings the risk\n     * that someone may use both the old and the new allowance by unfortunate\n     * transaction ordering. One possible solution to mitigate this race\n     * condition is to first reduce the spender's allowance to 0 and set the\n     * desired value afterwards:\n     * https://github.com/ethereum/EIPs/issues/20#issuecomment-263524729\n     *\n     * Emits an {Approval} event.\n     */\n    function approve(address spender, uint256 amount) external returns (bool);\n\n    /**\n     * @dev Moves `amount` tokens from `sender` to `recipient` using the\n     * allowance mechanism. `amount` is then deducted from the caller's\n     * allowance.\n     *\n     * Returns a boolean value indicating whether the operation succeeded.\n     *\n     * Emits a {Transfer} event.\n     */\n    function transferFrom(address sender, address recipient, uint256 amount) external returns (bool);\n\n    /**\n     * @dev Emitted when `value` tokens are moved from one account (`from`) to\n     * another (`to`).\n     *\n     * Note that `value` may be zero.\n     */\n    event Transfer(address indexed from, address indexed to, uint256 value);\n\n    /**\n     * @dev Emitted when the allowance of a `spender` for an `owner` is set by\n     * a call to {approve}. `value` is the new allowance.\n     */\n    event Approval(address indexed owner, address indexed spender, uint256 value);\n}\n\nlibrary SafeMath {\n    /**\n     * @dev Returns the addition of two unsigned integers, reverting on\n     * overflow.\n     *\n     * Counterpart to Solidity's `+` operator.\n     *\n     * Requirements:\n     *\n     * - Addition cannot overflow.\n     */\n    function add(uint256 a, uint256 b) internal pure returns (uint256) {\n        uint256 c = a + b;\n        require(c >= a, \"SafeMath: addition overflow\");\n\n        return c;\n    }\n\n    /**\n     * @dev Returns the subtraction of two unsigned integers, reverting on\n     * overflow (when the result is negative).\n     *\n     * Counterpart to Solidity's `-` operator.\n     *\n     * Requirements:\n     *\n     * - Subtraction cannot overflow.\n     */\n    function sub(uint256 a, uint256 b) internal pure returns (uint256) {\n        return sub(a, b, \"SafeMath: subtraction overflow\");\n    }\n\n    /**\n     * @dev Returns the subtraction of two unsigned integers, reverting with custom message on\n     * overflow (when the result is negative).\n     *\n     * Counterpart to Solidity's `-` operator.\n     *\n     * Requirements:\n     *\n     * - Subtraction cannot overflow.\n     */\n    function sub(uint256 a, uint256 b, string memory errorMessage) internal pure returns (uint256) {\n        require(b <= a, errorMessage);\n        uint256 c = a - b;\n\n        return c;\n    }\n\n    /**\n     * @dev Returns the multiplication of two unsigned integers, reverting on\n     * overflow.\n     *\n     * Counterpart to Solidity's `*` operator.\n     *\n     * Requirements:\n     *\n     * - Multiplication cannot overflow.\n     */\n    function mul(uint256 a, uint256 b) internal pure returns (uint256) {\n        // Gas optimization: this is cheaper than requiring 'a' not being zero, but the\n        // benefit is lost if 'b' is also tested.\n        // See: https://github.com/OpenZeppelin/openzeppelin-contracts/pull/522\n        if (a == 0) {\n            return 0;\n        }\n\n        uint256 c = a * b;\n        require(c / a == b, \"SafeMath: multiplication overflow\");\n\n        return c;\n    }\n\n    /**\n     * @dev Returns the integer division of two unsigned integers. Reverts on\n     * division by zero. The result is rounded towards zero.\n     *\n     * Counterpart to Solidity's `/` operator. Note: this function uses a\n     * `revert` opcode (which leaves remaining gas untouched) while Solidity\n     * uses an invalid opcode to revert (consuming all remaining gas).\n     *\n     * Requirements:\n     *\n     * - The divisor cannot be zero.\n     */\n    function div(uint256 a, uint256 b) internal pure returns (uint256) {\n        return div(a, b, \"SafeMath: division by zero\");\n    }\n\n    /**\n     * @dev Returns the integer division of two unsigned integers. Reverts with custom message on\n     * division by zero. The result is rounded towards zero.\n     *\n     * Counterpart to Solidity's `/` operator. Note: this function uses a\n     * `revert` opcode (which leaves remaining gas untouched) while Solidity\n     * uses an invalid opcode to revert (consuming all remaining gas).\n     *\n     * Requirements:\n     *\n     * - The divisor cannot be zero.\n     */\n    function div(uint256 a, uint256 b, string memory errorMessage) internal pure returns (uint256) {\n        require(b > 0, errorMessage);\n        uint256 c = a / b;\n        // assert(a == b * c + a % b); // There is no case in which this doesn't hold\n\n        return c;\n    }\n\n    /**\n     * @dev Returns the remainder of dividing two unsigned integers. (unsigned integer modulo),\n     * Reverts when dividing by zero.\n     *\n     * Counterpart to Solidity's `%` operator. This function uses a `revert`\n     * opcode (which leaves remaining gas untouched) while Solidity uses an\n     * invalid opcode to revert (consuming all remaining gas).\n     *\n     * Requirements:\n     *\n     * - The divisor cannot be zero.\n     */\n    function mod(uint256 a, uint256 b) internal pure returns (uint256) {\n        return mod(a, b, \"SafeMath: modulo by zero\");\n    }\n\n    /**\n     * @dev Returns the remainder of dividing two unsigned integers. (unsigned integer modulo),\n     * Reverts with custom message when dividing by zero.\n     *\n     * Counterpart to Solidity's `%` operator. This function uses a `revert`\n     * opcode (which leaves remaining gas untouched) while Solidity uses an\n     * invalid opcode to revert (consuming all remaining gas).\n     *\n     * Requirements:\n     *\n     * - The divisor cannot be zero.\n     */\n    function mod(uint256 a, uint256 b, string memory errorMessage) internal pure returns (uint256) {\n        require(b != 0, errorMessage);\n        return a % b;\n    }\n}\n\nabstract contract Context {\n    function _msgSender() internal view virtual returns (address payable) {\n        return payable(msg.sender);\n    }\n\n    function _msgData() internal view virtual returns (bytes memory) {\n        this; // silence state mutability warning without generating bytecode - see https://github.com/ethereum/solidity/issues/2691\n        return msg.data;\n    }\n}\n\n\ncontract Ownable is Context {\n    address private _owner;\n    address private _previousOwner;\n    uint256 private _lockTime;\n\n    event OwnershipTransferred(address indexed previousOwner, address indexed newOwner);\n\n    /**\n     * @dev Initializes the contract setting the deployer as the initial owner.\n     */\n    constructor () {\n        address msgSender =_msgSender();\n        _owner = msgSender;\n        _previousOwner = msgSender;\n        emit OwnershipTransferred(address(0), msgSender);\n    }\n\n    /**\n     * @dev Returns the address of the current owner.\n     */\n    function owner() public view returns (address) {\n        return _owner;\n    }\n\n    /**\n     * @dev Throws if called by any account other than the owner.\n     */\n    modifier onlyOwner() {\n        require(_owner == _msgSender(), \"Ownable: caller is not the owner\");\n        _;\n    }\n\n     /**\n     * @dev Leaves the contract without owner. It will not be possible to call\n     * `onlyOwner` functions anymore. Can only be called by the current owner.\n     *\n     * NOTE: Renouncing ownership will leave the contract without an owner,\n     * thereby removing any functionality that is only available to the owner.\n     */\n    function renounceOwnership() public virtual onlyOwner {\n        emit OwnershipTransferred(_owner, address(0));\n        _owner = address(0);\n    }\n\n    /**\n     * @dev Transfers ownership of the contract to a new account (`newOwner`).\n     * Can only be called by the current owner.\n     */\n    function transferOwnership(address newOwner) public virtual onlyOwner {\n        require(newOwner != address(0), \"Ownable: new owner is the zero address\");\n        emit OwnershipTransferred(_owner, newOwner);\n        _owner = newOwner;\n    }\n\n    function geUnlockTime() public view returns (uint256) {\n        return _lockTime;\n    }\n}\n\nlibrary Address {\n    /**\n     * @dev Returns true if `account` is a contract.\n     *\n     * [IMPORTANT]\n     * ====\n     * It is unsafe to assume that an address for which this function returns\n     * false is an externally-owned account (EOA) and not a contract.\n     *\n     * Among others, `isContract` will return false for the following\n     * types of addresses:\n     *\n     *  - an externally-owned account\n     *  - a contract in construction\n     *  - an address where a contract will be created\n     *  - an address where a contract lived, but was destroyed\n     * ====\n     */\n    function isContract(address account) internal view returns (bool) {\n        // This method relies on extcodesize, which returns 0 for contracts in\n        // construction, since the code is only stored at the end of the\n        // constructor execution.\n\n        uint256 size;\n        assembly {\n            size := extcodesize(account)\n        }\n        return size > 0;\n    }\n\n    /**\n     * @dev Replacement for Solidity's `transfer`: sends `amount` wei to\n     * `recipient`, forwarding all available gas and reverting on errors.\n     *\n     * https://eips.ethereum.org/EIPS/eip-1884[EIP1884] increases the gas cost\n     * of certain opcodes, possibly making contracts go over the 2300 gas limit\n     * imposed by `transfer`, making them unable to receive funds via\n     * `transfer`. {sendValue} removes this limitation.\n     *\n     * https://diligence.consensys.net/posts/2019/09/stop-using-soliditys-transfer-now/[Learn more].\n     *\n     * IMPORTANT: because control is transferred to `recipient`, care must be\n     * taken to not create reentrancy vulnerabilities. Consider using\n     * {ReentrancyGuard} or the\n     * https://solidity.readthedocs.io/en/v0.5.11/security-considerations.html#use-the-checks-effects-interactions-pattern[checks-effects-interactions pattern].\n     */\n    function sendValue(address payable recipient, uint256 amount) internal {\n        require(\n            address(this).balance >= amount,\n            \"Address: insufficient balance\"\n        );\n\n        (bool success, ) = recipient.call{value: amount}(\"\");\n        require(\n            success,\n            \"Address: unable to send value, recipient may have reverted\"\n        );\n    }\n\n    /**\n     * @dev Performs a Solidity function call using a low level `call`. A\n     * plain `call` is an unsafe replacement for a function call: use this\n     * function instead.\n     *\n     * If `target` reverts with a revert reason, it is bubbled up by this\n     * function (like regular Solidity function calls).\n     *\n     * Returns the raw returned data. To convert to the expected return value,\n     * use https://solidity.readthedocs.io/en/latest/units-and-global-variables.html?highlight=abi.decode#abi-encoding-and-decoding-functions[`abi.decode`].\n     *\n     * Requirements:\n     *\n     * - `target` must be a contract.\n     * - calling `target` with `data` must not revert.\n     *\n     * _Available since v3.1._\n     */\n    function functionCall(address target, bytes memory data)\n        internal\n        returns (bytes memory)\n    {\n        return functionCall(target, data, \"Address: low-level call failed\");\n    }\n\n    /**\n     * @dev Same as {xref-Address-functionCall-address-bytes-}[`functionCall`], but with\n     * `errorMessage` as a fallback revert reason when `target` reverts.\n     *\n     * _Available since v3.1._\n     */\n    function functionCall(\n        address target,\n        bytes memory data,\n        string memory errorMessage\n    ) internal returns (bytes memory) {\n        return functionCallWithValue(target, data, 0, errorMessage);\n    }\n\n    /**\n     * @dev Same as {xref-Address-functionCall-address-bytes-}[`functionCall`],\n     * but also transferring `value` wei to `target`.\n     *\n     * Requirements:\n     *\n     * - the calling contract must have an ETH balance of at least `value`.\n     * - the called Solidity function must be `payable`.\n     *\n     * _Available since v3.1._\n     */\n    function functionCallWithValue(\n        address target,\n        bytes memory data,\n        uint256 value\n    ) internal returns (bytes memory) {\n        return\n            functionCallWithValue(\n                target,\n                data,\n                value,\n                \"Address: low-level call with value failed\"\n            );\n    }\n\n    /**\n     * @dev Same as {xref-Address-functionCallWithValue-address-bytes-uint256-}[`functionCallWithValue`], but\n     * with `errorMessage` as a fallback revert reason when `target` reverts.\n     *\n     * _Available since v3.1._\n     */\n    function functionCallWithValue(\n        address target,\n        bytes memory data,\n        uint256 value,\n        string memory errorMessage\n    ) internal returns (bytes memory) {\n        require(\n            address(this).balance >= value,\n            \"Address: insufficient balance for call\"\n        );\n        require(isContract(target), \"Address: call to non-contract\");\n\n        (bool success, bytes memory returndata) = target.call{value: value}(\n            data\n        );\n        return verifyCallResult(success, returndata, errorMessage);\n    }\n\n    /**\n     * @dev Same as {xref-Address-functionCall-address-bytes-}[`functionCall`],\n     * but performing a static call.\n     *\n     * _Available since v3.3._\n     */\n    function functionStaticCall(address target, bytes memory data)\n        internal\n        view\n        returns (bytes memory)\n    {\n        return\n            functionStaticCall(\n                target,\n                data,\n                \"Address: low-level static call failed\"\n            );\n    }\n\n    /**\n     * @dev Same as {xref-Address-functionCall-address-bytes-string-}[`functionCall`],\n     * but performing a static call.\n     *\n     * _Available since v3.3._\n     */\n    function functionStaticCall(\n        address target,\n        bytes memory data,\n        string memory errorMessage\n    ) internal view returns (bytes memory) {\n        require(isContract(target), \"Address: static call to non-contract\");\n\n        (bool success, bytes memory returndata) = target.staticcall(data);\n        return verifyCallResult(success, returndata, errorMessage);\n    }\n\n    /**\n     * @dev Same as {xref-Address-functionCall-address-bytes-}[`functionCall`],\n     * but performing a delegate call.\n     *\n     * _Available since v3.4._\n     */\n    function functionDelegateCall(address target, bytes memory data)\n        internal\n        returns (bytes memory)\n    {\n        return\n            functionDelegateCall(\n                target,\n                data,\n                \"Address: low-level delegate call failed\"\n            );\n    }\n\n    /**\n     * @dev Same as {xref-Address-functionCall-address-bytes-string-}[`functionCall`],\n     * but performing a delegate call.\n     *\n     * _Available since v3.4._\n     */\n    function functionDelegateCall(\n        address target,\n        bytes memory data,\n        string memory errorMessage\n    ) internal returns (bytes memory) {\n        require(isContract(target), \"Address: delegate call to non-contract\");\n\n        (bool success, bytes memory returndata) = target.delegatecall(data);\n        return verifyCallResult(success, returndata, errorMessage);\n    }\n\n    /**\n     * @dev Tool to verifies that a low level call was successful, and revert if it wasn't, either by bubbling the\n     * revert reason using the provided one.\n     *\n     * _Available since v4.3._\n     */\n    function verifyCallResult(\n        bool success,\n        bytes memory returndata,\n        string memory errorMessage\n    ) internal pure returns (bytes memory) {\n        if (success) {\n            return returndata;\n        } else {\n            // Look for revert reason and bubble it up if present\n            if (returndata.length > 0) {\n                // The easiest way to bubble the revert reason is using memory via assembly\n\n                assembly {\n                    let returndata_size := mload(returndata)\n                    revert(add(32, returndata), returndata_size)\n                }\n            } else {\n                revert(errorMessage);\n            }\n        }\n    }\n}\n\nlibrary SafeERC20 {\n    using Address for address;\n\n    function safeTransfer(\n        IERC20 token,\n        address to,\n        uint256 value\n    ) internal {\n        _callOptionalReturn(\n            token,\n            abi.encodeWithSelector(token.transfer.selector, to, value)\n        );\n    }\n\n    function safeTransferFrom(\n        IERC20 token,\n        address from,\n        address to,\n        uint256 value\n    ) internal {\n        _callOptionalReturn(\n            token,\n            abi.encodeWithSelector(token.transferFrom.selector, from, to, value)\n        );\n    }\n\n    /**\n     * @dev Deprecated. This function has issues similar to the ones found in\n     * {IERC20-approve}, and its usage is discouraged.\n     *\n     * Whenever possible, use {safeIncreaseAllowance} and\n     * {safeDecreaseAllowance} instead.\n     */\n    function safeApprove(\n        IERC20 token,\n        address spender,\n        uint256 value\n    ) internal {\n        // safeApprove should only be called when setting an initial allowance,\n        // or when resetting it to zero. To increase and decrease it, use\n        // 'safeIncreaseAllowance' and 'safeDecreaseAllowance'\n        require(\n            (value == 0) || (token.allowance(address(this), spender) == 0),\n            \"SafeERC20: approve from non-zero to non-zero allowance\"\n        );\n        _callOptionalReturn(\n            token,\n            abi.encodeWithSelector(token.approve.selector, spender, value)\n        );\n    }\n\n    function safeIncreaseAllowance(\n        IERC20 token,\n        address spender,\n        uint256 value\n    ) internal {\n        uint256 newAllowance = token.allowance(address(this), spender) + value;\n        _callOptionalReturn(\n            token,\n            abi.encodeWithSelector(\n                token.approve.selector,\n                spender,\n                newAllowance\n            )\n        );\n    }\n\n    function safeDecreaseAllowance(\n        IERC20 token,\n        address spender,\n        uint256 value\n    ) internal {\n        unchecked {\n            uint256 oldAllowance = token.allowance(address(this), spender);\n            require(\n                oldAllowance >= value,\n                \"SafeERC20: decreased allowance below zero\"\n            );\n            uint256 newAllowance = oldAllowance - value;\n            _callOptionalReturn(\n                token,\n                abi.encodeWithSelector(\n                    token.approve.selector,\n                    spender,\n                    newAllowance\n                )\n            );\n        }\n    }\n\n    /**\n     * @dev Imitates a Solidity high-level call (i.e. a regular function call to a contract), relaxing the requirement\n     * on the return value: the return value is optional (but if data is returned, it must not be false).\n     * @param token The token targeted by the call.\n     * @param data The call data (encoded using abi.encode or one of its variants).\n     */\n    function _callOptionalReturn(IERC20 token, bytes memory data) private {\n        // We need to perform a low level call here, to bypass Solidity's return data size checking mechanism, since\n        // we're implementing it ourselves. We use {Address.functionCall} to perform this call, which verifies that\n        // the target address contains contract code and also asserts for success in the low-level call.\n\n        bytes memory returndata = address(token).functionCall(\n            data,\n            \"SafeERC20: low-level call failed\"\n        );\n        if (returndata.length > 0) {\n            // Return data is optional\n            require(\n                abi.decode(returndata, (bool)),\n                \"SafeERC20: ERC20 operation did not succeed\"\n            );\n        }\n    }\n}\n\nabstract contract ReentrancyGuard {\n    // Booleans are more expensive than uint256 or any type that takes up a full\n    // word because each write operation emits an extra SLOAD to first read the\n    // slot's contents, replace the bits taken up by the boolean, and then write\n    // back. This is the compiler's defense against contract upgrades and\n    // pointer aliasing, and it cannot be disabled.\n\n    // The values being non-zero value makes deployment a bit more expensive,\n    // but in exchange the refund on every call to nonReentrant will be lower in\n    // amount. Since refunds are capped to a percentage of the total\n    // transaction's gas, it is best to keep them low in cases like this one, to\n    // increase the likelihood of the full refund coming into effect.\n    uint256 private constant _NOT_ENTERED = 1;\n    uint256 private constant _ENTERED = 2;\n\n    uint256 private _status;\n\n    constructor() {\n        _status = _NOT_ENTERED;\n    }\n\n    /**\n     * @dev Prevents a contract from calling itself, directly or indirectly.\n     * Calling a `nonReentrant` function from another `nonReentrant`\n     * function is not supported. It is possible to prevent this from happening\n     * by making the `nonReentrant` function external, and make it call a\n     * `private` function that does the actual work.\n     */\n    modifier nonReentrant() {\n        // On the first call to nonReentrant, _notEntered will be true\n        require(_status != _ENTERED, \"ReentrancyGuard: reentrant call\");\n\n        // Any calls to nonReentrant after this point will fail\n        _status = _ENTERED;\n\n        _;\n\n        // By storing the original value once again, a refund is triggered (see\n        // https://eips.ethereum.org/EIPS/eip-2200)\n        _status = _NOT_ENTERED;\n    }\n}\n\ninterface ISocietyKey is IERC20 {\n    function mint(address dst, uint256 wad) external returns (bool);\n}\n\ninterface IPOS is IERC20 {\n    function claim(address to) external returns (uint256 claiming);\n}\n\ncontract RewardDistributor {\n    using SafeMath for uint256;\n\n    address public _token;\n    address public owner;\n\n    struct Share {\n        uint256 amount;\n        uint256 totalExcluded;\n        uint256 totalRealised;\n    }\n\n    IERC20 public REWARD;\n\n    address[] shareholders;\n    mapping(address => uint256) shareholderIndexes;\n    mapping(address => uint256) shareholderClaims;\n\n    mapping(address => Share) public shares;\n\n    uint256 public totalShares;\n    uint256 public totalDividends;\n    uint256 public totalDistributed;\n    uint256 public dividendsPerShare;\n    uint256 public dividendsPerShareAccuracyFactor = 10**36;\n\n    uint256 public minPeriod = 30 * 60;\n    uint256 public minDistribution = 1 * (10**9);\n\n    uint256 currentIndex;\n\n    bool initialized;\n    modifier initialization() {\n        require(!initialized);\n        _;\n        initialized = true;\n    }\n\n    modifier onlyToken() {\n        require(msg.sender == _token || msg.sender == owner);\n        _;\n    }\n\n    constructor(address rewardToken, address _owner) {\n        REWARD = IERC20(rewardToken);\n        _token = msg.sender;\n        owner = _owner;\n    }\n\n    receive() external payable {}\n\n    function setDistributionCriteria(uint256 _minPeriod, uint256 _minDistribution ) external onlyToken {\n        minPeriod = _minPeriod;\n        minDistribution = _minDistribution;\n    }\n\n    function purge(address receiver) external onlyToken {\n        uint256 balance = REWARD.balanceOf(address(this));\n        uint256 balanceEth = address(this).balance;\n        if(balanceEth > 0) {\n            payable(receiver).transfer(balanceEth);\n        }\n        REWARD.transfer(receiver, balance);\n    }\n\n    function setShare(address shareholder, uint256 amount) external onlyToken {\n        if (shares[shareholder].amount > 0) {\n            distributeReward(shareholder);\n        }\n\n        if (amount > 0 && shares[shareholder].amount == 0) {\n            addShareholder(shareholder);\n        } else if (amount == 0 && shares[shareholder].amount > 0) {\n            removeShareholder(shareholder);\n        }\n\n        totalShares = totalShares.sub(shares[shareholder].amount).add(amount);\n        shares[shareholder].amount = amount;\n        shares[shareholder].totalExcluded = getCumulativeDividends(\n            shares[shareholder].amount\n        );\n    }\n\n    function deposit(uint256 amount) external onlyToken {\n        totalDividends = totalDividends.add(amount);\n        dividendsPerShare = dividendsPerShare.add(\n            dividendsPerShareAccuracyFactor.mul(amount).div(totalShares)\n        );\n    }\n\n    function process(uint256 gas) external onlyToken {\n        uint256 shareholderCount = shareholders.length;\n\n        if (shareholderCount == 0) {\n            return;\n        }\n\n        uint256 gasUsed = 0;\n        uint256 gasLeft = gasleft();\n\n        uint256 iterations = 0;\n\n        while (gasUsed < gas && iterations < shareholderCount) {\n            if (currentIndex >= shareholderCount) {\n                currentIndex = 0;\n            }\n\n            if (shouldDistribute(shareholders[currentIndex])) {\n                distributeReward(shareholders[currentIndex]);\n            }\n\n            gasUsed = gasUsed.add(gasLeft.sub(gasleft()));\n            gasLeft = gasleft();\n            currentIndex++;\n            iterations++;\n        }\n    }\n\n    function shouldDistribute(address shareholder) internal view returns (bool) {\n        return\n            shareholderClaims[shareholder] + minPeriod < block.timestamp &&\n            getUnpaidEarnings(shareholder) > minDistribution;\n    }\n\n    function distributeReward(address shareholder) internal {\n        if (shares[shareholder].amount == 0) {\n            return;\n        }\n\n        uint256 amount = getUnpaidEarnings(shareholder);\n        if (amount > 0) {\n            totalDistributed = totalDistributed.add(amount);\n            REWARD.transfer(shareholder, amount);\n            shareholderClaims[shareholder] = block.timestamp;\n            shares[shareholder].totalRealised = shares[shareholder]\n                .totalRealised\n                .add(amount);\n            shares[shareholder].totalExcluded = getCumulativeDividends(\n                shares[shareholder].amount\n            );\n        }\n    }\n\n    function claimReward() external {\n        distributeReward(msg.sender);\n    }\n\n    function claimRewardManual(address shareHolder) external onlyToken {\n        distributeReward(shareHolder);\n    }\n\n    function getUnpaidEarnings(address shareholder) public view returns (uint256){\n        if (shares[shareholder].amount == 0) {\n            return 0;\n        }\n\n        uint256 shareholderTotalDividends = getCumulativeDividends(\n            shares[shareholder].amount\n        );\n        uint256 shareholderTotalExcluded = shares[shareholder].totalExcluded;\n\n        if (shareholderTotalDividends <= shareholderTotalExcluded) {\n            return 0;\n        }\n\n        return shareholderTotalDividends.sub(shareholderTotalExcluded);\n    }\n\n    function getHolderDetails(address holder) public view returns (\n            uint256 lastClaim,\n            uint256 unpaidEarning,\n            uint256 totalReward,\n            uint256 holderIndex\n        ) {\n            lastClaim = shareholderClaims[holder];\n            unpaidEarning = getUnpaidEarnings(holder);\n            totalReward = shares[holder].totalRealised;\n            holderIndex = shareholderIndexes[holder];\n    }\n\n    function getCumulativeDividends(uint256 share) internal view returns (uint256) { \n        return\n            share.mul(dividendsPerShare).div(dividendsPerShareAccuracyFactor);\n    }\n\n    function getLastProcessedIndex() external view returns (uint256) {\n        return currentIndex;\n    }\n\n    function getNumberOfTokenHolders() external view returns (uint256) {\n        return shareholders.length;\n    }\n\n    function getShareHoldersList() external view returns (address[] memory) {\n        return shareholders;\n    }\n\n    function totalDistributedRewards() external view returns (uint256) {\n        return totalDistributed;\n    }\n\n    function addShareholder(address shareholder) internal {\n        shareholderIndexes[shareholder] = shareholders.length;\n        shareholders.push(shareholder);\n    }\n\n    function removeShareholder(address shareholder) internal {\n        shareholders[shareholderIndexes[shareholder]] = shareholders[\n            shareholders.length - 1\n        ];\n        shareholderIndexes[\n            shareholders[shareholders.length - 1]\n        ] = shareholderIndexes[shareholder];\n        shareholders.pop();\n    }\n}\n\ncontract P2PSwapLv2NobleStack is Context, Ownable \n{\n    using SafeMath for uint256;\n    using SafeERC20 for IERC20;\n    using SafeERC20 for ISocietyKey;\n    using SafeERC20 for IPOS;\n\n    mapping(address => uint256) private balanceOf;\n    uint256 public swapRate = 1; // swap ratio between pos and whitelisted token 1 POS:1 IERC20 if swapRate 2 then 1POS:2 IERC20\n    IPOS public posToken;\n    ISocietyKey public societyKey;\n    uint256 public posToKey = 1; \n\n    RewardDistributor public distributor;\n    uint256 public gasLimit = 500000;\n\n    mapping(address => bool) whitelisted;\n    bool whitelistMode = true;\n\n    address[] validTokens;\n\n    modifier onlyWhitelisted() {\n        if(whitelistMode){\n            require(whitelisted[_msgSender()], \"caller is not whitelisted\");\n        }\n        _;\n    }\n\n    receive() external payable{}\n\n    constructor (\n        address _posToken,\n        address _keyToken,\n        address[] memory _validTokens\n    )\n    {\n        distributor = new RewardDistributor(_keyToken, _msgSender());\n\n        posToken = IPOS(_posToken);\n        societyKey = ISocietyKey(_keyToken);\n\n        for(uint256 i; i < _validTokens.length; i++) {\n            validTokens.push(_validTokens[i]);\n        }\n\n    }\n\n\n    function listValidTokens() external view returns(address[] memory)\n    {\n        return validTokens;\n    }\n\n    function addValidToken(address _token) \n    external \n    onlyOwner \n    {\n        require(!_checkIfValidToken(_token), \"IERC20 token is already a valid token\");\n        validTokens.push(_token);\n        _rewardDeposit();\n    }\n\n    function removeValidToken(address _token)\n    external\n    onlyOwner\n    {\n        require(_checkIfValidToken(_token), \"IERC20 token is not in a valid list\");\n        uint256 _tokenIndex = _getTokenIndex(_token);\n        validTokens[_tokenIndex] = validTokens[validTokens.length - 1];\n        validTokens.pop();\n        _rewardDeposit();\n    }\n\n    function _getTokenIndex(address _token)\n    internal\n    view \n    returns(uint256)\n    {\n        uint256 index;\n        for(uint256 i; i < validTokens.length; i++){\n            if(_token == validTokens[i]){\n                index = i;\n                break;\n            }\n        }\n        return index;\n    }\n\n    function _checkIfValidToken(address _token)\n    internal \n    view \n    returns(bool)\n    {\n        bool isValid;\n        for(uint256 i; i < validTokens.length; i++){\n            if(_token == validTokens[i]){\n                isValid = true;\n                break;\n            }\n        }\n        return isValid;\n    }\n\n    function deposit(uint256 _amount)\n    external\n    onlyWhitelisted\n    {\n        posToken.transferFrom(_msgSender(), address(this), _amount);\n        _rewardDeposit();\n        balanceOf[_msgSender()] += _amount;\n        distributor.setShare(_msgSender(), balanceOf[_msgSender()]);\n    }\n\n    function swap(uint256 _amount, address _token)\n    external\n    {\n        require(_checkIfValidToken(_token), \"swap token is not valid token\");\n        _rewardDeposit();\n        uint256 _amountPos = _amount.div(swapRate);\n        IERC20(_token).safeTransferFrom(_msgSender(), address(this), _amount);\n        societyKey.mint(address(this), _amountPos.mul(posToKey));\n        posToken.transfer(_msgSender(), _amountPos);\n    }\n\n    function withdrawERC20(address _token, uint256 _amount)\n    external\n    onlyOwner \n    {\n        _rewardDeposit();\n        IERC20(_token).safeTransfer(_msgSender(), _amount);\n    }\n\n    function getAmountReceive(uint256 _amount)\n    external\n    view \n    returns(uint256)\n    {\n        return _amount.div(swapRate);\n    }\n\n    function withdrawPOS(uint256 _amount)\n    external\n    {\n        require(balanceOf[_msgSender()] >= _amount, \"Deposit amount is less\");\n        balanceOf[_msgSender()] -= _amount;\n        _rewardDeposit();\n        distributor.setShare(_msgSender(), balanceOf[_msgSender()]);\n        posToken.transfer(_msgSender(), _amount);\n    }\n\n    function withdrawSocietyKey(uint256 _amount)\n    external\n    {\n        require(balanceOfSocietyKey(_msgSender()) >= _amount, \"Deposit amount less than required\");\n        balanceOf[_msgSender()] = balanceOf[_msgSender()].sub(_amount.div(posToKey));\n        _rewardDeposit();\n        distributor.setShare(_msgSender(), balanceOf[_msgSender()]);\n        societyKey.transfer(_msgSender(), _amount);\n    }\n\n    function balanceOfPos(address depositor)\n    external\n    view \n    returns(uint256)\n    {\n        return balanceOf[depositor];\n    }\n\n    function balanceOfSocietyKey(address depositor)\n    public\n    view \n    returns(uint256)\n    {\n        return balanceOf[depositor].mul(posToKey);\n    }\n\n    function _rewardDeposit()\n    internal\n    {\n        uint256 _balanceInit = societyKey.balanceOf(address(this));\n        posToken.claim(address(this));\n        uint256 _balanceFinal = societyKey.balanceOf(address(this));\n        uint256 _balanceUsable = _balanceFinal.sub(_balanceInit);\n        if(_balanceUsable != 0 && societyKey.transfer(address(distributor), _balanceUsable)){\n            distributor.deposit(_balanceUsable);\n        }\n        distributor.process(gasLimit);\n    }\n\n    function updateWhitelist(address _account, bool _whitelist)\n    external\n    onlyOwner\n    {\n        whitelisted[_account] = _whitelist;\n    }\n\n    function updateWhitelistMode(bool _mode)\n    external\n    onlyOwner \n    {\n        whitelistMode = _mode;\n    }\n\n    function updateGasLimit(uint256 _gasLimit)\n    external\n    onlyOwner \n    {\n        gasLimit = _gasLimit;\n    }\n\n    function manualDistributeReward()\n    external\n    onlyOwner\n    {\n        _rewardDeposit();\n    }\n\n    function claimRewardManual(address _shareHolder)\n    external\n    {\n        distributor.claimRewardManual(_shareHolder);\n    }\n\n}",
  "sourcePath": "/Users/safi/Documents/societycoin-page/contracts/P2PSwapLv2NobleStack.sol",
  "compiler": {
    "name": "solc",
    "version": "0.8.7+commit.e28d00a7.Emscripten.clang"
  },
  "schemaVersion": "3.4.8",
  "updatedAt": "2023-03-27T08:56:04.177Z",
  "devdoc": {
    "kind": "dev",
    "methods": {
      "owner()": {
        "details": "Returns the address of the current owner."
      },
      "renounceOwnership()": {
        "details": "Leaves the contract without owner. It will not be possible to call `onlyOwner` functions anymore. Can only be called by the current owner. NOTE: Renouncing ownership will leave the contract without an owner, thereby removing any functionality that is only available to the owner."
      },
      "transferOwnership(address)": {
        "details": "Transfers ownership of the contract to a new account (`newOwner`). Can only be called by the current owner."
      }
    },
    "version": 1
  },
  "userdoc": {
    "kind": "user",
    "methods": {},
    "version": 1
  }
}