{
  "contractName": "SocietyLimitSell",
  "abi": [
    {
      "inputs": [
        {
          "internalType": "address",
          "name": "_societyKey",
          "type": "address"
        },
        {
          "internalType": "address",
          "name": "_posToken",
          "type": "address"
        }
      ],
      "stateMutability": "nonpayable",
      "type": "constructor"
    },
    {
      "anonymous": false,
      "inputs": [
        {
          "indexed": false,
          "internalType": "uint256",
          "name": "orderId",
          "type": "uint256"
        },
        {
          "indexed": false,
          "internalType": "uint256",
          "name": "amountToBuy",
          "type": "uint256"
        },
        {
          "indexed": true,
          "internalType": "address",
          "name": "seller",
          "type": "address"
        },
        {
          "indexed": true,
          "internalType": "address",
          "name": "buyer",
          "type": "address"
        }
      ],
      "name": "Executed",
      "type": "event"
    },
    {
      "anonymous": false,
      "inputs": [
        {
          "indexed": true,
          "internalType": "address",
          "name": "seller",
          "type": "address"
        },
        {
          "indexed": false,
          "internalType": "uint256",
          "name": "orderId",
          "type": "uint256"
        },
        {
          "indexed": false,
          "internalType": "uint256",
          "name": "amountToSell",
          "type": "uint256"
        },
        {
          "indexed": false,
          "internalType": "uint256",
          "name": "rate",
          "type": "uint256"
        }
      ],
      "name": "LimitOrderCreated",
      "type": "event"
    },
    {
      "anonymous": false,
      "inputs": [
        {
          "indexed": false,
          "internalType": "uint256",
          "name": "orderId",
          "type": "uint256"
        }
      ],
      "name": "OrderRemoved",
      "type": "event"
    },
    {
      "anonymous": false,
      "inputs": [
        {
          "indexed": true,
          "internalType": "address",
          "name": "previousOwner",
          "type": "address"
        },
        {
          "indexed": true,
          "internalType": "address",
          "name": "newOwner",
          "type": "address"
        }
      ],
      "name": "OwnershipTransferred",
      "type": "event"
    },
    {
      "anonymous": false,
      "inputs": [
        {
          "indexed": false,
          "internalType": "uint256",
          "name": "_gas",
          "type": "uint256"
        }
      ],
      "name": "UpdateGas",
      "type": "event"
    },
    {
      "anonymous": false,
      "inputs": [
        {
          "indexed": false,
          "internalType": "uint256",
          "name": "_posToKey",
          "type": "uint256"
        }
      ],
      "name": "UpdatePosToKey",
      "type": "event"
    },
    {
      "anonymous": false,
      "inputs": [
        {
          "indexed": true,
          "internalType": "address",
          "name": "_societyKey",
          "type": "address"
        }
      ],
      "name": "UpdatedSctyKey",
      "type": "event"
    },
    {
      "inputs": [],
      "name": "distributor",
      "outputs": [
        {
          "internalType": "contract RewardDistributor",
          "name": "",
          "type": "address"
        }
      ],
      "stateMutability": "view",
      "type": "function"
    },
    {
      "inputs": [],
      "name": "distributorGas",
      "outputs": [
        {
          "internalType": "uint256",
          "name": "",
          "type": "uint256"
        }
      ],
      "stateMutability": "view",
      "type": "function"
    },
    {
      "inputs": [],
      "name": "geUnlockTime",
      "outputs": [
        {
          "internalType": "uint256",
          "name": "",
          "type": "uint256"
        }
      ],
      "stateMutability": "view",
      "type": "function"
    },
    {
      "inputs": [],
      "name": "lastOrderId",
      "outputs": [
        {
          "internalType": "uint256",
          "name": "",
          "type": "uint256"
        }
      ],
      "stateMutability": "view",
      "type": "function"
    },
    {
      "inputs": [
        {
          "internalType": "uint256",
          "name": "",
          "type": "uint256"
        }
      ],
      "name": "limitOrders",
      "outputs": [
        {
          "internalType": "uint256",
          "name": "orderId",
          "type": "uint256"
        },
        {
          "internalType": "contract IERC20",
          "name": "sellToken",
          "type": "address"
        },
        {
          "internalType": "contract IERC20",
          "name": "buyToken",
          "type": "address"
        },
        {
          "internalType": "uint256",
          "name": "amountToSell",
          "type": "uint256"
        },
        {
          "internalType": "address",
          "name": "seller",
          "type": "address"
        },
        {
          "internalType": "uint256",
          "name": "sellRate",
          "type": "uint256"
        }
      ],
      "stateMutability": "view",
      "type": "function"
    },
    {
      "inputs": [
        {
          "internalType": "uint256",
          "name": "",
          "type": "uint256"
        }
      ],
      "name": "orderIds",
      "outputs": [
        {
          "internalType": "uint256",
          "name": "",
          "type": "uint256"
        }
      ],
      "stateMutability": "view",
      "type": "function"
    },
    {
      "inputs": [
        {
          "internalType": "uint256",
          "name": "",
          "type": "uint256"
        }
      ],
      "name": "orderIdsIndex",
      "outputs": [
        {
          "internalType": "uint256",
          "name": "",
          "type": "uint256"
        }
      ],
      "stateMutability": "view",
      "type": "function"
    },
    {
      "inputs": [],
      "name": "owner",
      "outputs": [
        {
          "internalType": "address",
          "name": "",
          "type": "address"
        }
      ],
      "stateMutability": "view",
      "type": "function"
    },
    {
      "inputs": [],
      "name": "posToKey",
      "outputs": [
        {
          "internalType": "uint256",
          "name": "",
          "type": "uint256"
        }
      ],
      "stateMutability": "view",
      "type": "function"
    },
    {
      "inputs": [],
      "name": "posToken",
      "outputs": [
        {
          "internalType": "contract IPOS",
          "name": "",
          "type": "address"
        }
      ],
      "stateMutability": "view",
      "type": "function"
    },
    {
      "inputs": [],
      "name": "renounceOwnership",
      "outputs": [],
      "stateMutability": "nonpayable",
      "type": "function"
    },
    {
      "inputs": [],
      "name": "societyKey",
      "outputs": [
        {
          "internalType": "contract ISocietyKey",
          "name": "",
          "type": "address"
        }
      ],
      "stateMutability": "view",
      "type": "function"
    },
    {
      "inputs": [
        {
          "internalType": "address",
          "name": "newOwner",
          "type": "address"
        }
      ],
      "name": "transferOwnership",
      "outputs": [],
      "stateMutability": "nonpayable",
      "type": "function"
    },
    {
      "inputs": [
        {
          "internalType": "address",
          "name": "",
          "type": "address"
        }
      ],
      "name": "validTokenIndex",
      "outputs": [
        {
          "internalType": "uint256",
          "name": "",
          "type": "uint256"
        }
      ],
      "stateMutability": "view",
      "type": "function"
    },
    {
      "inputs": [
        {
          "internalType": "uint256",
          "name": "",
          "type": "uint256"
        }
      ],
      "name": "validTokens",
      "outputs": [
        {
          "internalType": "address",
          "name": "",
          "type": "address"
        }
      ],
      "stateMutability": "view",
      "type": "function"
    },
    {
      "inputs": [
        {
          "internalType": "address",
          "name": "token",
          "type": "address"
        },
        {
          "internalType": "address",
          "name": "to",
          "type": "address"
        },
        {
          "internalType": "uint256",
          "name": "amount",
          "type": "uint256"
        }
      ],
      "name": "withdrawERC20",
      "outputs": [],
      "stateMutability": "nonpayable",
      "type": "function"
    },
    {
      "inputs": [
        {
          "internalType": "address",
          "name": "_societyKey",
          "type": "address"
        }
      ],
      "name": "updateSocietyKey",
      "outputs": [],
      "stateMutability": "nonpayable",
      "type": "function"
    },
    {
      "inputs": [
        {
          "internalType": "address",
          "name": "tokenAddress",
          "type": "address"
        }
      ],
      "name": "validateToken",
      "outputs": [],
      "stateMutability": "nonpayable",
      "type": "function"
    },
    {
      "inputs": [
        {
          "internalType": "address",
          "name": "tokenAddress",
          "type": "address"
        }
      ],
      "name": "invalidateToken",
      "outputs": [],
      "stateMutability": "nonpayable",
      "type": "function"
    },
    {
      "inputs": [
        {
          "internalType": "address",
          "name": "_buyToken",
          "type": "address"
        },
        {
          "internalType": "uint256",
          "name": "amountToSell",
          "type": "uint256"
        },
        {
          "internalType": "uint256",
          "name": "rate",
          "type": "uint256"
        }
      ],
      "name": "createLimitOrder",
      "outputs": [],
      "stateMutability": "nonpayable",
      "type": "function"
    },
    {
      "inputs": [
        {
          "internalType": "uint256",
          "name": "orderId",
          "type": "uint256"
        },
        {
          "internalType": "uint256",
          "name": "amountToBuy",
          "type": "uint256"
        }
      ],
      "name": "executeLimitOrder",
      "outputs": [],
      "stateMutability": "nonpayable",
      "type": "function"
    },
    {
      "inputs": [
        {
          "internalType": "uint256",
          "name": "orderId",
          "type": "uint256"
        }
      ],
      "name": "removeOrder",
      "outputs": [],
      "stateMutability": "nonpayable",
      "type": "function"
    },
    {
      "inputs": [
        {
          "internalType": "uint256",
          "name": "orderId",
          "type": "uint256"
        }
      ],
      "name": "claimPosToSociety",
      "outputs": [],
      "stateMutability": "nonpayable",
      "type": "function"
    },
    {
      "inputs": [
        {
          "internalType": "uint256",
          "name": "_posToKey",
          "type": "uint256"
        }
      ],
      "name": "updatePosToKeyRatio",
      "outputs": [],
      "stateMutability": "nonpayable",
      "type": "function"
    },
    {
      "inputs": [],
      "name": "manualProcessReward",
      "outputs": [],
      "stateMutability": "nonpayable",
      "type": "function"
    },
    {
      "inputs": [
        {
          "internalType": "uint256",
          "name": "_distributorGas",
          "type": "uint256"
        }
      ],
      "name": "updateGas",
      "outputs": [],
      "stateMutability": "nonpayable",
      "type": "function"
    },
    {
      "inputs": [],
      "name": "claimRewardManual",
      "outputs": [],
      "stateMutability": "nonpayable",
      "type": "function"
    },
    {
      "inputs": [],
      "name": "purgeDistributor",
      "outputs": [],
      "stateMutability": "nonpayable",
      "type": "function"
    }
  ],
  "bytecode": "0x60806040526207a12060075560016009556105dc600a553480156200002357600080fd5b50604051620033f0380380620033f0833981016040819052620000469162000169565b60008054336001600160a01b031991821681178355600180549092168117909155604051909182917f8be0079c531659141344cd1fd0a4f28419497f9722a3daafe3b4186f6b6457e0908290a3506001600355600480546001600160a01b038085166001600160a01b031992831617909255600580549284169290911691909117905581620000d23390565b604051620000e0906200013e565b6001600160a01b03928316815291166020820152604001604051809103906000f08015801562000114573d6000803e3d6000fd5b50600680546001600160a01b0319166001600160a01b039290921691909117905550620001a19050565b611288806200216883390190565b80516001600160a01b03811681146200016457600080fd5b919050565b600080604083850312156200017d57600080fd5b62000188836200014c565b915062000198602084016200014c565b90509250929050565b611fb780620001b16000396000f3fe608060405234801561001057600080fd5b50600436106101c45760003560e01c80639645337a116100f9578063c020df4811610097578063c8a56f5a11610071578063c8a56f5a146103f8578063e9d3d16a14610418578063f2fde38b1461042b578063ff9e179b1461043e57600080fd5b8063c020df48146103bf578063c3e58e92146103d2578063c7d70679146103e557600080fd5b8063a3e2b495116100d3578063a3e2b49514610301578063b6c5232414610391578063bc3231d214610399578063bfe10928146103ac57600080fd5b80639645337a146102c85780639679b14a146102db578063993b9904146102ee57600080fd5b80634585cd7411610166578063715018a611610140578063715018a61461027557806377d925e21461027d5780638da5cb5b146102905780639532b6ab146102b557600080fd5b80634585cd74146102435780635662ecc71461026357806360e719621461026c57600080fd5b806334cc4d60116101a257806334cc4d601461020d5780633d747f67146102155780633ec574331461022857806344004cc11461023057600080fd5b80630806f6ef146101c95780630dadb440146101e557806323722084146101fa575b600080fd5b6101d260095481565b6040519081526020015b60405180910390f35b6101f86101f3366004611d56565b610446565b005b6101d2610208366004611dab565b6106a5565b6101f86106c6565b6101f8610223366004611cff565b6109b2565b6101f8610b1e565b6101f861023e366004611d1a565b610bb6565b6101d2610251366004611cff565b600e6020526000908152604090205481565b6101d2600a5481565b6101d260075481565b6101f8610bf9565b6101f861028b366004611dab565b610c6d565b6000546001600160a01b03165b6040516001600160a01b0390911681526020016101dc565b6101f86102c3366004611cff565b610cdb565b6101f86102d6366004611dab565b610db8565b6101f86102e9366004611dab565b610f3f565b6101f86102fc366004611cff565b6110a5565b61035361030f366004611dab565b600f6020526000908152604090208054600182015460028301546003840154600485015460059095015493946001600160a01b039384169492841693919291169086565b604080519687526001600160a01b039586166020880152938516938601939093526060850191909152909116608083015260a082015260c0016101dc565b6002546101d2565b6101f86103a7366004611ddd565b611119565b60065461029d906001600160a01b031681565b6101f86103cd366004611dab565b6113eb565b60045461029d906001600160a01b031681565b60055461029d906001600160a01b031681565b6101d2610406366004611dab565b600c6020526000908152604090205481565b61029d610426366004611dab565b611452565b6101f8610439366004611cff565b61147c565b6101f8611566565b61044f8361157d565b6104a05760405162461bcd60e51b815260206004820152601e60248201527f62757920746f6b656e206973206e6f7420612076616c696420746f6b656e000060448201526064015b60405180910390fd5b600a546104ae9060016115e7565b600a556104c9336005546001600160a01b031690308561164f565b33600090815260086020526040812080548492906104e8908490611e83565b90915550506006543360008181526008602052604090819020549051630a5b654b60e11b8152600481019290925260248201526001600160a01b03909116906314b6ca9690604401600060405180830381600087803b15801561054a57600080fd5b505af115801561055e573d6000803e3d6000fd5b50506040805160c081018252600a8054808352600580546001600160a01b0390811660208087019182528c8316878901908152606088018d81523360808a0190815260a08a018e81526000988952600f85528b89208b5181559551600180880180546001600160a01b0319908116938b1693909317905594516002880180548316918a16919091179055925160038701559051600486018054909316961695909517905592519190930155600b805485548552600c909352958320829055925492810185559390527f0175b7a638427703f0dbe7bb9bbf987a2551717b34e79f33b5b1008d1fa01db990920191909155915061065a90506106c6565b600a5460408051918252602082018590528181018490525133917f9b1ff02aa828b20b26e169ca116711becf6dc7279e80bce1dc677e4c3d374abf919081900360600190a250505050565b600b81815481106106b557600080fd5b600091825260209091200154905081565b600554604051630f41a04d60e11b81523060048201526001600160a01b0390911690631e83409a90602401602060405180830381600087803b15801561070b57600080fd5b505af115801561071f573d6000803e3d6000fd5b505050506040513d601f19601f820116820180604052508101906107439190611dc4565b50600480546040516370a0823160e01b815230928101929092526000916001600160a01b03909116906370a082319060240160206040518083038186803b15801561078d57600080fd5b505afa1580156107a1573d6000803e3d6000fd5b505050506040513d601f19601f820116820180604052508101906107c59190611dc4565b905080156108be5760065460405163b6b55f2560e01b8152600481018390526001600160a01b039091169063b6b55f2590602401600060405180830381600087803b15801561081357600080fd5b505af1158015610827573d6000803e3d6000fd5b50506004805460065460405163a9059cbb60e01b81526001600160a01b03918216938101939093526024830186905216925063a9059cbb9150604401602060405180830381600087803b15801561087d57600080fd5b505af1158015610891573d6000803e3d6000fd5b505050506040513d601f19601f820116820180604052508101906108b59190611d89565b6108be57600080fd5b600480546006546040516370a0823160e01b81526001600160a01b039182169381019390935216906370a082319060240160206040518083038186803b15801561090757600080fd5b505afa15801561091b573d6000803e3d6000fd5b505050506040513d601f19601f8201168201806040525081019061093f9190611dc4565b156109af576006546007546040516001624d3b8760e01b031981526001600160a01b039092169163ffb2c4799161097c9160040190815260200190565b600060405180830381600087803b15801561099657600080fd5b505af11580156109aa573d6000803e3d6000fd5b505050505b50565b6000546001600160a01b031633146109dc5760405162461bcd60e51b815260040161049790611e4e565b6109e58161157d565b610a3b5760405162461bcd60e51b815260206004820152602160248201527f546f6b656e206973206e6f7420696e2076616c696420746f6b656e206c6973746044820152601760f91b6064820152608401610497565b600d805460009190610a4f90600190611edc565b81548110610a5f57610a5f611f6b565b60009182526020808320909101546001600160a01b03858116808552600e9093526040808520549190921680855291842081905591909252600d805492935083929091908110610ab157610ab1611f6b565b9060005260206000200160006101000a8154816001600160a01b0302191690836001600160a01b03160217905550600d805480610af057610af0611f55565b600082815260209020810160001990810180546001600160a01b0319169055019055610b1a6106c6565b5050565b6000546001600160a01b03163314610b485760405162461bcd60e51b815260040161049790611e4e565b6006546001600160a01b031663a6871bc3335b6040516001600160e01b031960e084901b1681526001600160a01b039091166004820152602401600060405180830381600087803b158015610b9c57600080fd5b505af1158015610bb0573d6000803e3d6000fd5b50505050565b6000546001600160a01b03163314610be05760405162461bcd60e51b815260040161049790611e4e565b610bf46001600160a01b03841683836116ba565b505050565b6000546001600160a01b03163314610c235760405162461bcd60e51b815260040161049790611e4e565b600080546040516001600160a01b03909116907f8be0079c531659141344cd1fd0a4f28419497f9722a3daafe3b4186f6b6457e0908390a3600080546001600160a01b0319169055565b6000546001600160a01b03163314610c975760405162461bcd60e51b815260040161049790611e4e565b6009819055610ca46106c6565b6040518181527f21fd07ed3eda70eaef6ef35a402e96384d4fe6324e2957ef080d418d02dfa56c906020015b60405180910390a150565b6000546001600160a01b03163314610d055760405162461bcd60e51b815260040161049790611e4e565b610d0e8161157d565b15610d545760405162461bcd60e51b8152602060048201526016602482015275151bdad95b881a5cc8185b1c9958591e48185919195960521b6044820152606401610497565b600d80546001600160a01b0383166000818152600e60205260408120839055600183018455929092527fd7b6990105719101dabeb77144f2a3385c8033acd3af97e9423a695e81ad1eb50180546001600160a01b03191690911790556109af6106c6565b6000818152600f6020908152604091829020825160c0810184528154815260018201546001600160a01b0390811693820193909352600282015483169381019390935260038101546060840181905260048201549092166080840181905260059091015460a08401523314610e6f5760405162461bcd60e51b815260206004820152601f60248201527f63616c6c6572206973206e6f7420746865206f726465722063726561746f72006044820152606401610497565b610e78826116ea565b6006546001600160a01b03166314b6ca96336040516001600160e01b031960e084901b1681526001600160a01b03909116600482015260006024820152604401600060405180830381600087803b158015610ed257600080fd5b505af1158015610ee6573d6000803e3d6000fd5b50505050610f07610ef43390565b6005546001600160a01b031690836116ba565b6040518381527f2114a52d297f01ee99b38a96fbd79c650bf37e10c29e0967c6621187fbe253229060200160405180910390a1505050565b6000818152600f6020908152604091829020825160c0810184528154815260018201546001600160a01b0390811693820193909352600282015483169381019390935260038101546060840181905260048201549092166080840181905260059091015460a08401523314610ff65760405162461bcd60e51b815260206004820152601f60248201527f63616c6c6572206973206e6f7420746865206f726465722063726561746f72006044820152606401610497565b610fff826116ea565b61100881611784565b6006546001600160a01b03166314b6ca96336040516001600160e01b031960e084901b1681526001600160a01b03909116600482015260006024820152604401600060405180830381600087803b15801561106257600080fd5b505af1158015611076573d6000803e3d6000fd5b50505050610f076110843390565b6009546110929084906118d9565b6004546001600160a01b031691906116ba565b6000546001600160a01b031633146110cf5760405162461bcd60e51b815260040161049790611e4e565b600480546001600160a01b0319166001600160a01b0383169081179091556040517fbcd3469f9d5b31b9c7e22dc194631576fdaff868e46edc4329846a5398e5c40c90600090a250565b6111216106c6565b6000828152600f6020908152604091829020825160c0810184528154815260018201546001600160a01b03908116938201939093526002820154831693810193909352600381015460608401819052600482015490921660808401526005015460a08301528211156111e45760405162461bcd60e51b815260206004820152602660248201527f62757920616d6f756e7420697320686967686572207468616e206f7264657220604482015265185b5bdd5b9d60d21b6064820152608401610497565b60006111fd8260a00151846118d990919063ffffffff16565b606083015190915061120f9084611958565b606083015261122e3360408401516001600160a01b031690308461164f565b611245336005546001600160a01b031690856116ba565b61124e83611784565b61126b8260800151611092600954866118d990919063ffffffff16565b6000848152600f6020908152604080832085518155858301516001820180546001600160a01b03199081166001600160a01b03938416179091558784015160028401805483169184169190911790556060880151600384015560808801516004840180549092169216918217905560a0870151600590920191909155835260089091529020546112fb9084611958565b6080830180516001600160a01b0390811660009081526008602052604080822094909455600654925133825290849020549351630a5b654b60e11b81529082166004820152602481019390935216906314b6ca9690604401600060405180830381600087803b15801561136d57600080fd5b505af1158015611381573d6000803e3d6000fd5b5050505081606001516000141561139b5761139b826116ea565b6080820151604080518681526020810186905233926001600160a01b0316917f83eb98552d9199c2821a30c66086b77062b48ed93b8d0cfd2d876cad5d6d981c910160405180910390a350505050565b6000546001600160a01b031633146114155760405162461bcd60e51b815260040161049790611e4e565b60078190556114226106c6565b6040518181527fb52d1748ac5ddaf8ddb999734fc9d4752be400fa3436e2758b742a1005296d5990602001610cd0565b600d818154811061146257600080fd5b6000918252602090912001546001600160a01b0316905081565b6000546001600160a01b031633146114a65760405162461bcd60e51b815260040161049790611e4e565b6001600160a01b03811661150b5760405162461bcd60e51b815260206004820152602660248201527f4f776e61626c653a206e6577206f776e657220697320746865207a65726f206160448201526564647265737360d01b6064820152608401610497565b600080546040516001600160a01b03808516939216917f8be0079c531659141344cd1fd0a4f28419497f9722a3daafe3b4186f6b6457e091a3600080546001600160a01b0319166001600160a01b0392909216919091179055565b6006546001600160a01b0316634ad2ff9333610b5b565b60008060005b600d5460ff821610156115e057600d8160ff16815481106115a6576115a6611f6b565b6000918252602090912001546001600160a01b03858116911614156115ce57600191506115e0565b806115d881611f1f565b915050611583565b5092915050565b6000806115f48385611e83565b9050838110156116465760405162461bcd60e51b815260206004820152601b60248201527f536166654d6174683a206164646974696f6e206f766572666c6f7700000000006044820152606401610497565b90505b92915050565b6040516001600160a01b0380851660248301528316604482015260648101829052610bb09085906323b872dd60e01b906084015b60408051601f198184030181529190526020810180516001600160e01b03166001600160e01b03199093169290921790915261199a565b6040516001600160a01b038316602482015260448101829052610bf490849063a9059cbb60e01b90606401611683565b8051600080835260208084018281526040808601848152608087018581526060880186815260a08901878152888852600f909652929095208751815592516001840180546001600160a01b03199081166001600160a01b03938416179091559151600285018054841691831691909117905591516003840155935160048301805490951691161790925551600590910155610b1a81611a6c565b600480546040516370a0823160e01b815230928101929092526000916001600160a01b03909116906370a082319060240160206040518083038186803b1580156117cd57600080fd5b505afa1580156117e1573d6000803e3d6000fd5b505050506040513d601f19601f820116820180604052508101906118059190611dc4565b9050600061181e600954846118d990919063ffffffff16565b821015611849576118448261183e600954866118d990919063ffffffff16565b90611958565b61184c565b60005b90508015610bf457600480546040516340c10f1960e01b81523092810192909252602482018390526001600160a01b0316906340c10f1990604401602060405180830381600087803b1580156118a157600080fd5b505af11580156118b5573d6000803e3d6000fd5b505050506040513d601f19601f82011682018060405250810190610bb09190611d89565b6000826118e857506000611649565b60006118f48385611ebd565b9050826119018583611e9b565b146116465760405162461bcd60e51b815260206004820152602160248201527f536166654d6174683a206d756c7469706c69636174696f6e206f766572666c6f6044820152607760f81b6064820152608401610497565b600061164683836040518060400160405280601e81526020017f536166654d6174683a207375627472616374696f6e206f766572666c6f770000815250611b2f565b60006119ef826040518060400160405280602081526020017f5361666545524332303a206c6f772d6c6576656c2063616c6c206661696c6564815250856001600160a01b0316611b6b9092919063ffffffff16565b805190915015610bf45780806020019051810190611a0d9190611d89565b610bf45760405162461bcd60e51b815260206004820152602a60248201527f5361666545524332303a204552433230206f7065726174696f6e20646964206e6044820152691bdd081cdd58d8d9595960b21b6064820152608401610497565b600b8054611a7c90600190611edc565b81548110611a8c57611a8c611f6b565b9060005260206000200154600b600c60008481526020019081526020016000205481548110611abd57611abd611f6b565b600091825260209091200155600b8054611ad990600190611edc565b81548110611ae957611ae9611f6b565b6000918252602080832090910154838352600c909152604090912055600b805480611b1657611b16611f55565b6001900381819060005260206000200160009055905550565b60008184841115611b535760405162461bcd60e51b81526004016104979190611e1b565b506000611b608486611edc565b9150505b9392505050565b6060611b7a8484600085611b82565b949350505050565b606082471015611be35760405162461bcd60e51b815260206004820152602660248201527f416464726573733a20696e73756666696369656e742062616c616e636520666f6044820152651c8818d85b1b60d21b6064820152608401610497565b843b611c315760405162461bcd60e51b815260206004820152601d60248201527f416464726573733a2063616c6c20746f206e6f6e2d636f6e74726163740000006044820152606401610497565b600080866001600160a01b03168587604051611c4d9190611dff565b60006040518083038185875af1925050503d8060008114611c8a576040519150601f19603f3d011682016040523d82523d6000602084013e611c8f565b606091505b5091509150611c9f828286611caa565b979650505050505050565b60608315611cb9575081611b64565b825115611cc95782518084602001fd5b8160405162461bcd60e51b81526004016104979190611e1b565b80356001600160a01b0381168114611cfa57600080fd5b919050565b600060208284031215611d1157600080fd5b61164682611ce3565b600080600060608486031215611d2f57600080fd5b611d3884611ce3565b9250611d4660208501611ce3565b9150604084013590509250925092565b600080600060608486031215611d6b57600080fd5b611d7484611ce3565b95602085013595506040909401359392505050565b600060208284031215611d9b57600080fd5b8151801515811461164657600080fd5b600060208284031215611dbd57600080fd5b5035919050565b600060208284031215611dd657600080fd5b5051919050565b60008060408385031215611df057600080fd5b50508035926020909101359150565b60008251611e11818460208701611ef3565b9190910192915050565b6020815260008251806020840152611e3a816040850160208701611ef3565b601f01601f19169190910160400192915050565b6020808252818101527f4f776e61626c653a2063616c6c6572206973206e6f7420746865206f776e6572604082015260600190565b60008219821115611e9657611e96611f3f565b500190565b600082611eb857634e487b7160e01b600052601260045260246000fd5b500490565b6000816000190483118215151615611ed757611ed7611f3f565b500290565b600082821015611eee57611eee611f3f565b500390565b60005b83811015611f0e578181015183820152602001611ef6565b83811115610bb05750506000910152565b600060ff821660ff811415611f3657611f36611f3f565b60010192915050565b634e487b7160e01b600052601160045260246000fd5b634e487b7160e01b600052603160045260246000fd5b634e487b7160e01b600052603260045260246000fdfea264697066735822122049590ce69211503c2bcab6692c9b81052fe2e9026f75eea2d7b81e5700b6bb1e64736f6c6343000807003360806040526ec097ce7bc90715b34b9f1000000000600b55610708600c55633b9aca00600d5534801561003157600080fd5b50604051611288380380611288833981016040819052610050916100a7565b600280546001600160a01b039384166001600160a01b03199182161790915560008054821633179055600180549290931691161790556100da565b80516001600160a01b03811681146100a257600080fd5b919050565b600080604083850312156100ba57600080fd5b6100c38361008b565b91506100d16020840161008b565b90509250929050565b61119f806100e96000396000f3fe60806040526004361061014f5760003560e01c8063a6871bc3116100b6578063e2d2e2191161006f578063e2d2e219146103d4578063e7841ec0146103ea578063ecd0c0c3146103ff578063efca2eed1461041f578063ffb2c47914610435578063ffd49c841461045557600080fd5b8063a6871bc3146102f3578063a87df83214610313578063b6b55f2514610328578063b88a802f14610348578063cab34c081461035d578063ce7c2ac21461037d57600080fd5b80633a98ef39116101085780633a98ef39146102375780634ad2ff931461024d5780634fab0ae81461026d57806360379e13146102835780638da5cb5b146102a5578063997664d7146102dd57600080fd5b806309bbedde1461015b5780630a05cd011461017f57806311ce023d146101bf57806314b6ca96146101d557806328fd3198146101f75780632d48e8961461021757600080fd5b3661015657005b600080fd5b34801561016757600080fd5b506003545b6040519081526020015b60405180910390f35b34801561018b57600080fd5b5061019f61019a366004610f3f565b61046b565b604080519485526020850193909352918301526060820152608001610176565b3480156101cb57600080fd5b5061016c600b5481565b3480156101e157600080fd5b506101f56101f0366004610f5a565b6104c4565b005b34801561020357600080fd5b5061016c610212366004610f3f565b610651565b34801561022357600080fd5b506101f5610232366004610fd8565b6106da565b34801561024357600080fd5b5061016c60075481565b34801561025957600080fd5b506101f5610268366004610f3f565b610711565b34801561027957600080fd5b5061016c600d5481565b34801561028f57600080fd5b50610298610749565b6040516101769190610ffa565b3480156102b157600080fd5b506001546102c5906001600160a01b031681565b6040516001600160a01b039091168152602001610176565b3480156102e957600080fd5b5061016c60085481565b3480156102ff57600080fd5b506101f561030e366004610f3f565b6107ab565b34801561031f57600080fd5b5060095461016c565b34801561033457600080fd5b506101f5610343366004610fa6565b610920565b34801561035457600080fd5b506101f5610989565b34801561036957600080fd5b506002546102c5906001600160a01b031681565b34801561038957600080fd5b506103b9610398366004610f3f565b60066020526000908152604090208054600182015460029092015490919083565b60408051938452602084019290925290820152606001610176565b3480156103e057600080fd5b5061016c600a5481565b3480156103f657600080fd5b50600e5461016c565b34801561040b57600080fd5b506000546102c5906001600160a01b031681565b34801561042b57600080fd5b5061016c60095481565b34801561044157600080fd5b506101f5610450366004610fa6565b610994565b34801561046157600080fd5b5061016c600c5481565b6001600160a01b03811660009081526005602052604081205490808061049085610651565b6001600160a01b03909516600090815260066020908152604080832060020154600490925290912054949690949350915050565b6000546001600160a01b03163314806104e757506001546001600160a01b031633145b6104f057600080fd5b6001600160a01b038216600090815260066020526040902054156105175761051782610aa9565b60008111801561053d57506001600160a01b038216600090815260066020526040902054155b156105a357600380546001600160a01b0384166000818152600460205260408120839055600183018455929092527fc2575a0e9e593c00f959f8c92f12db2869c3395a3b0502d05e2516446f71f85b0180546001600160a01b03191690911790556105d6565b801580156105c857506001600160a01b03821660009081526006602052604090205415155b156105d6576105d682610bd4565b6001600160a01b03821660009081526006602052604090205460075461060791839161060191610ce9565b90610d34565b6007556001600160a01b038216600090815260066020526040902081905561062e81610d98565b6001600160a01b0390921660009081526006602052604090206001019190915550565b6001600160a01b03811660009081526006602052604081205461067657506000919050565b6001600160a01b03821660009081526006602052604081205461069890610d98565b6001600160a01b0384166000908152600660205260409020600101549091508082116106c8575060009392505050565b6106d28282610ce9565b949350505050565b6000546001600160a01b03163314806106fd57506001546001600160a01b031633145b61070657600080fd5b600c91909155600d55565b6000546001600160a01b031633148061073457506001546001600160a01b031633145b61073d57600080fd5b61074681610aa9565b50565b606060038054806020026020016040519081016040528092919081815260200182805480156107a157602002820191906000526020600020905b81546001600160a01b03168152600190910190602001808311610783575b5050505050905090565b6000546001600160a01b03163314806107ce57506001546001600160a01b031633145b6107d757600080fd5b6002546040516370a0823160e01b81523060048201526000916001600160a01b0316906370a082319060240160206040518083038186803b15801561081b57600080fd5b505afa15801561082f573d6000803e3d6000fd5b505050506040513d601f19601f820116820180604052508101906108539190610fbf565b9050478015610894576040516001600160a01b0384169082156108fc029083906000818181858888f19350505050158015610892573d6000803e3d6000fd5b505b60025460405163a9059cbb60e01b81526001600160a01b038581166004830152602482018590529091169063a9059cbb90604401602060405180830381600087803b1580156108e257600080fd5b505af11580156108f6573d6000803e3d6000fd5b505050506040513d601f19601f8201168201806040525081019061091a9190610f84565b50505050565b6000546001600160a01b031633148061094357506001546001600160a01b031633145b61094c57600080fd5b6008546109599082610d34565b600855600754600b546109839161097a916109749085610db5565b90610e34565b600a5490610d34565b600a5550565b61099233610aa9565b565b6000546001600160a01b03163314806109b757506001546001600160a01b031633145b6109c057600080fd5b600354806109cc575050565b6000805a905060005b84831080156109e357508381105b15610aa25783600e54106109f7576000600e555b610a296003600e5481548110610a0f57610a0f611153565b6000918252602090912001546001600160a01b0316610e76565b15610a6057610a606003600e5481548110610a4657610a46611153565b6000918252602090912001546001600160a01b0316610aa9565b610a75610a6e5a8490610ce9565b8490610d34565b92505a600e80549193506000610a8a8361110c565b91905055508080610a9a9061110c565b9150506109d5565b5050505050565b6001600160a01b038116600090815260066020526040902054610ac95750565b6000610ad482610651565b90508015610bd057600954610ae99082610d34565b60095560025460405163a9059cbb60e01b81526001600160a01b038481166004830152602482018490529091169063a9059cbb90604401602060405180830381600087803b158015610b3a57600080fd5b505af1158015610b4e573d6000803e3d6000fd5b505050506040513d601f19601f82011682018060405250810190610b729190610f84565b506001600160a01b03821660009081526005602090815260408083204290556006909152902060020154610ba69082610d34565b6001600160a01b038316600090815260066020526040902060028101919091555461062e90610d98565b5050565b60038054610be4906001906110f5565b81548110610bf457610bf4611153565b60009182526020808320909101546001600160a01b0384811684526004909252604090922054600380549290931692918110610c3257610c32611153565b600091825260208083209190910180546001600160a01b0319166001600160a01b03948516179055918316815260049182905260408120546003805491939291610c7e906001906110f5565b81548110610c8e57610c8e611153565b60009182526020808320909101546001600160a01b031683528201929092526040019020556003805480610cc457610cc461113d565b600082815260209020810160001990810180546001600160a01b031916905501905550565b6000610d2b83836040518060400160405280601e81526020017f536166654d6174683a207375627472616374696f6e206f766572666c6f770000815250610ebb565b90505b92915050565b600080610d41838561109c565b905083811015610d2b5760405162461bcd60e51b815260206004820152601b60248201527f536166654d6174683a206164646974696f6e206f766572666c6f77000000000060448201526064015b60405180910390fd5b6000610d2e600b54610974600a5485610db590919063ffffffff16565b600082610dc457506000610d2e565b6000610dd083856110d6565b905082610ddd85836110b4565b14610d2b5760405162461bcd60e51b815260206004820152602160248201527f536166654d6174683a206d756c7469706c69636174696f6e206f766572666c6f6044820152607760f81b6064820152608401610d8f565b6000610d2b83836040518060400160405280601a81526020017f536166654d6174683a206469766973696f6e206279207a65726f000000000000815250610ef5565b600c546001600160a01b03821660009081526005602052604081205490914291610ea0919061109c565b108015610d2e5750600d54610eb483610651565b1192915050565b60008184841115610edf5760405162461bcd60e51b8152600401610d8f9190611047565b506000610eec84866110f5565b95945050505050565b60008183610f165760405162461bcd60e51b8152600401610d8f9190611047565b506000610eec84866110b4565b80356001600160a01b0381168114610f3a57600080fd5b919050565b600060208284031215610f5157600080fd5b610d2b82610f23565b60008060408385031215610f6d57600080fd5b610f7683610f23565b946020939093013593505050565b600060208284031215610f9657600080fd5b81518015158114610d2b57600080fd5b600060208284031215610fb857600080fd5b5035919050565b600060208284031215610fd157600080fd5b5051919050565b60008060408385031215610feb57600080fd5b50508035926020909101359150565b6020808252825182820181905260009190848201906040850190845b8181101561103b5783516001600160a01b031683529284019291840191600101611016565b50909695505050505050565b600060208083528351808285015260005b8181101561107457858101830151858201604001528201611058565b81811115611086576000604083870101525b50601f01601f1916929092016040019392505050565b600082198211156110af576110af611127565b500190565b6000826110d157634e487b7160e01b600052601260045260246000fd5b500490565b60008160001904831182151516156110f0576110f0611127565b500290565b60008282101561110757611107611127565b500390565b600060001982141561112057611120611127565b5060010190565b634e487b7160e01b600052601160045260246000fd5b634e487b7160e01b600052603160045260246000fd5b634e487b7160e01b600052603260045260246000fdfea26469706673582212209a941e06f39de3f04994864d10214be62cdf9be7b9115d18a68af1da1fe3f20d64736f6c63430008070033",
  "immutableReferences": {},
  "source": "// SPDX-License-Identifier: MIT\n\npragma solidity ^ 0.8.7;\n\n\n/**\n * @dev Interface of the ERC20 standard as defined in the EIP.\n */\ninterface IERC20 {\n    /**\n     * @dev Returns the amount of tokens in existence.\n     */\n    function totalSupply() external view returns (uint256);\n\n    /**\n     * @dev Returns the amount of tokens owned by `account`.\n     */\n    function balanceOf(address account) external view returns (uint256);\n\n    /**\n     * @dev Moves `amount` tokens from the caller's account to `recipient`.\n     *\n     * Returns a boolean value indicating whether the operation succeeded.\n     *\n     * Emits a {Transfer} event.\n     */\n    function transfer(address recipient, uint256 amount) external returns (bool);\n\n    /**\n     * @dev Returns the remaining number of tokens that `spender` will be\n     * allowed to spend on behalf of `owner` through {transferFrom}. This is\n     * zero by default.\n     *\n     * This value changes when {approve} or {transferFrom} are called.\n     */\n    function allowance(address owner, address spender) external view returns (uint256);\n\n    /**\n     * @dev Sets `amount` as the allowance of `spender` over the caller's tokens.\n     *\n     * Returns a boolean value indicating whether the operation succeeded.\n     *\n     * IMPORTANT: Beware that changing an allowance with this method brings the risk\n     * that someone may use both the old and the new allowance by unfortunate\n     * transaction ordering. One possible solution to mitigate this race\n     * condition is to first reduce the spender's allowance to 0 and set the\n     * desired value afterwards:\n     * https://github.com/ethereum/EIPs/issues/20#issuecomment-263524729\n     *\n     * Emits an {Approval} event.\n     */\n    function approve(address spender, uint256 amount) external returns (bool);\n\n    /**\n     * @dev Moves `amount` tokens from `sender` to `recipient` using the\n     * allowance mechanism. `amount` is then deducted from the caller's\n     * allowance.\n     *\n     * Returns a boolean value indicating whether the operation succeeded.\n     *\n     * Emits a {Transfer} event.\n     */\n    function transferFrom(address sender, address recipient, uint256 amount) external returns (bool);\n\n    /**\n     * @dev Emitted when `value` tokens are moved from one account (`from`) to\n     * another (`to`).\n     *\n     * Note that `value` may be zero.\n     */\n    event Transfer(address indexed from, address indexed to, uint256 value);\n\n    /**\n     * @dev Emitted when the allowance of a `spender` for an `owner` is set by\n     * a call to {approve}. `value` is the new allowance.\n     */\n    event Approval(address indexed owner, address indexed spender, uint256 value);\n}\n\n \nlibrary SafeMath {\n    /**\n     * @dev Returns the addition of two unsigned integers, reverting on\n     * overflow.\n     *\n     * Counterpart to Solidity's `+` operator.\n     *\n     * Requirements:\n     *\n     * - Addition cannot overflow.\n     */\n    function add(uint256 a, uint256 b) internal pure returns (uint256) {\n        uint256 c = a + b;\n        require(c >= a, \"SafeMath: addition overflow\");\n\n        return c;\n    }\n\n    /**\n     * @dev Returns the subtraction of two unsigned integers, reverting on\n     * overflow (when the result is negative).\n     *\n     * Counterpart to Solidity's `-` operator.\n     *\n     * Requirements:\n     *\n     * - Subtraction cannot overflow.\n     */\n    function sub(uint256 a, uint256 b) internal pure returns (uint256) {\n        return sub(a, b, \"SafeMath: subtraction overflow\");\n    }\n\n    /**\n     * @dev Returns the subtraction of two unsigned integers, reverting with custom message on\n     * overflow (when the result is negative).\n     *\n     * Counterpart to Solidity's `-` operator.\n     *\n     * Requirements:\n     *\n     * - Subtraction cannot overflow.\n     */\n    function sub(uint256 a, uint256 b, string memory errorMessage) internal pure returns (uint256) {\n        require(b <= a, errorMessage);\n        uint256 c = a - b;\n\n        return c;\n    }\n\n    /**\n     * @dev Returns the multiplication of two unsigned integers, reverting on\n     * overflow.\n     *\n     * Counterpart to Solidity's `*` operator.\n     *\n     * Requirements:\n     *\n     * - Multiplication cannot overflow.\n     */\n    function mul(uint256 a, uint256 b) internal pure returns (uint256) {\n        // Gas optimization: this is cheaper than requiring 'a' not being zero, but the\n        // benefit is lost if 'b' is also tested.\n        // See: https://github.com/OpenZeppelin/openzeppelin-contracts/pull/522\n        if (a == 0) {\n            return 0;\n        }\n\n        uint256 c = a * b;\n        require(c / a == b, \"SafeMath: multiplication overflow\");\n\n        return c;\n    }\n\n    /**\n     * @dev Returns the integer division of two unsigned integers. Reverts on\n     * division by zero. The result is rounded towards zero.\n     *\n     * Counterpart to Solidity's `/` operator. Note: this function uses a\n     * `revert` opcode (which leaves remaining gas untouched) while Solidity\n     * uses an invalid opcode to revert (consuming all remaining gas).\n     *\n     * Requirements:\n     *\n     * - The divisor cannot be zero.\n     */\n    function div(uint256 a, uint256 b) internal pure returns (uint256) {\n        return div(a, b, \"SafeMath: division by zero\");\n    }\n\n    /**\n     * @dev Returns the integer division of two unsigned integers. Reverts with custom message on\n     * division by zero. The result is rounded towards zero.\n     *\n     * Counterpart to Solidity's `/` operator. Note: this function uses a\n     * `revert` opcode (which leaves remaining gas untouched) while Solidity\n     * uses an invalid opcode to revert (consuming all remaining gas).\n     *\n     * Requirements:\n     *\n     * - The divisor cannot be zero.\n     */\n    function div(uint256 a, uint256 b, string memory errorMessage) internal pure returns (uint256) {\n        require(b > 0, errorMessage);\n        uint256 c = a / b;\n        // assert(a == b * c + a % b); // There is no case in which this doesn't hold\n\n        return c;\n    }\n\n    /**\n     * @dev Returns the remainder of dividing two unsigned integers. (unsigned integer modulo),\n     * Reverts when dividing by zero.\n     *\n     * Counterpart to Solidity's `%` operator. This function uses a `revert`\n     * opcode (which leaves remaining gas untouched) while Solidity uses an\n     * invalid opcode to revert (consuming all remaining gas).\n     *\n     * Requirements:\n     *\n     * - The divisor cannot be zero.\n     */\n    function mod(uint256 a, uint256 b) internal pure returns (uint256) {\n        return mod(a, b, \"SafeMath: modulo by zero\");\n    }\n\n    /**\n     * @dev Returns the remainder of dividing two unsigned integers. (unsigned integer modulo),\n     * Reverts with custom message when dividing by zero.\n     *\n     * Counterpart to Solidity's `%` operator. This function uses a `revert`\n     * opcode (which leaves remaining gas untouched) while Solidity uses an\n     * invalid opcode to revert (consuming all remaining gas).\n     *\n     * Requirements:\n     *\n     * - The divisor cannot be zero.\n     */\n    function mod(uint256 a, uint256 b, string memory errorMessage) internal pure returns (uint256) {\n        require(b != 0, errorMessage);\n        return a % b;\n    }\n}\n\nabstract contract Context {\n    function _msgSender() internal view virtual returns (address payable) {\n        return payable(msg.sender);\n    }\n\n    function _msgData() internal view virtual returns (bytes memory) {\n        this; // silence state mutability warning without generating bytecode - see https://github.com/ethereum/solidity/issues/2691\n        return msg.data;\n    }\n}\n\n\ncontract Ownable is Context {\n    address private _owner;\n    address private _previousOwner;\n    uint256 private _lockTime;\n\n    event OwnershipTransferred(address indexed previousOwner, address indexed newOwner);\n\n    /**\n     * @dev Initializes the contract setting the deployer as the initial owner.\n     */\n    constructor () {\n        address msgSender =_msgSender();\n        _owner = msgSender;\n        _previousOwner = msgSender;\n        emit OwnershipTransferred(address(0), msgSender);\n    }\n\n    /**\n     * @dev Returns the address of the current owner.\n     */\n    function owner() public view returns (address) {\n        return _owner;\n    }\n\n    /**\n     * @dev Throws if called by any account other than the owner.\n     */\n    modifier onlyOwner() {\n        require(_owner == _msgSender(), \"Ownable: caller is not the owner\");\n        _;\n    }\n\n     /**\n     * @dev Leaves the contract without owner. It will not be possible to call\n     * `onlyOwner` functions anymore. Can only be called by the current owner.\n     *\n     * NOTE: Renouncing ownership will leave the contract without an owner,\n     * thereby removing any functionality that is only available to the owner.\n     */\n    function renounceOwnership() public virtual onlyOwner {\n        emit OwnershipTransferred(_owner, address(0));\n        _owner = address(0);\n    }\n\n    /**\n     * @dev Transfers ownership of the contract to a new account (`newOwner`).\n     * Can only be called by the current owner.\n     */\n    function transferOwnership(address newOwner) public virtual onlyOwner {\n        require(newOwner != address(0), \"Ownable: new owner is the zero address\");\n        emit OwnershipTransferred(_owner, newOwner);\n        _owner = newOwner;\n    }\n\n    function geUnlockTime() public view returns (uint256) {\n        return _lockTime;\n    }\n}\n\nlibrary Address {\n    /**\n     * @dev Returns true if `account` is a contract.\n     *\n     * [IMPORTANT]\n     * ====\n     * It is unsafe to assume that an address for which this function returns\n     * false is an externally-owned account (EOA) and not a contract.\n     *\n     * Among others, `isContract` will return false for the following\n     * types of addresses:\n     *\n     *  - an externally-owned account\n     *  - a contract in construction\n     *  - an address where a contract will be created\n     *  - an address where a contract lived, but was destroyed\n     * ====\n     */\n    function isContract(address account) internal view returns (bool) {\n        // This method relies on extcodesize, which returns 0 for contracts in\n        // construction, since the code is only stored at the end of the\n        // constructor execution.\n\n        uint256 size;\n        assembly {\n            size := extcodesize(account)\n        }\n        return size > 0;\n    }\n\n    /**\n     * @dev Replacement for Solidity's `transfer`: sends `amount` wei to\n     * `recipient`, forwarding all available gas and reverting on errors.\n     *\n     * https://eips.ethereum.org/EIPS/eip-1884[EIP1884] increases the gas cost\n     * of certain opcodes, possibly making contracts go over the 2300 gas limit\n     * imposed by `transfer`, making them unable to receive funds via\n     * `transfer`. {sendValue} removes this limitation.\n     *\n     * https://diligence.consensys.net/posts/2019/09/stop-using-soliditys-transfer-now/[Learn more].\n     *\n     * IMPORTANT: because control is transferred to `recipient`, care must be\n     * taken to not create reentrancy vulnerabilities. Consider using\n     * {ReentrancyGuard} or the\n     * https://solidity.readthedocs.io/en/v0.5.11/security-considerations.html#use-the-checks-effects-interactions-pattern[checks-effects-interactions pattern].\n     */\n    function sendValue(address payable recipient, uint256 amount) internal {\n        require(\n            address(this).balance >= amount,\n            \"Address: insufficient balance\"\n        );\n\n        (bool success, ) = recipient.call{value: amount}(\"\");\n        require(\n            success,\n            \"Address: unable to send value, recipient may have reverted\"\n        );\n    }\n\n    /**\n     * @dev Performs a Solidity function call using a low level `call`. A\n     * plain `call` is an unsafe replacement for a function call: use this\n     * function instead.\n     *\n     * If `target` reverts with a revert reason, it is bubbled up by this\n     * function (like regular Solidity function calls).\n     *\n     * Returns the raw returned data. To convert to the expected return value,\n     * use https://solidity.readthedocs.io/en/latest/units-and-global-variables.html?highlight=abi.decode#abi-encoding-and-decoding-functions[`abi.decode`].\n     *\n     * Requirements:\n     *\n     * - `target` must be a contract.\n     * - calling `target` with `data` must not revert.\n     *\n     * _Available since v3.1._\n     */\n    function functionCall(address target, bytes memory data)\n        internal\n        returns (bytes memory)\n    {\n        return functionCall(target, data, \"Address: low-level call failed\");\n    }\n\n    /**\n     * @dev Same as {xref-Address-functionCall-address-bytes-}[`functionCall`], but with\n     * `errorMessage` as a fallback revert reason when `target` reverts.\n     *\n     * _Available since v3.1._\n     */\n    function functionCall(\n        address target,\n        bytes memory data,\n        string memory errorMessage\n    ) internal returns (bytes memory) {\n        return functionCallWithValue(target, data, 0, errorMessage);\n    }\n\n    /**\n     * @dev Same as {xref-Address-functionCall-address-bytes-}[`functionCall`],\n     * but also transferring `value` wei to `target`.\n     *\n     * Requirements:\n     *\n     * - the calling contract must have an ETH balance of at least `value`.\n     * - the called Solidity function must be `payable`.\n     *\n     * _Available since v3.1._\n     */\n    function functionCallWithValue(\n        address target,\n        bytes memory data,\n        uint256 value\n    ) internal returns (bytes memory) {\n        return\n            functionCallWithValue(\n                target,\n                data,\n                value,\n                \"Address: low-level call with value failed\"\n            );\n    }\n\n    /**\n     * @dev Same as {xref-Address-functionCallWithValue-address-bytes-uint256-}[`functionCallWithValue`], but\n     * with `errorMessage` as a fallback revert reason when `target` reverts.\n     *\n     * _Available since v3.1._\n     */\n    function functionCallWithValue(\n        address target,\n        bytes memory data,\n        uint256 value,\n        string memory errorMessage\n    ) internal returns (bytes memory) {\n        require(\n            address(this).balance >= value,\n            \"Address: insufficient balance for call\"\n        );\n        require(isContract(target), \"Address: call to non-contract\");\n\n        (bool success, bytes memory returndata) = target.call{value: value}(\n            data\n        );\n        return verifyCallResult(success, returndata, errorMessage);\n    }\n\n    /**\n     * @dev Same as {xref-Address-functionCall-address-bytes-}[`functionCall`],\n     * but performing a static call.\n     *\n     * _Available since v3.3._\n     */\n    function functionStaticCall(address target, bytes memory data)\n        internal\n        view\n        returns (bytes memory)\n    {\n        return\n            functionStaticCall(\n                target,\n                data,\n                \"Address: low-level static call failed\"\n            );\n    }\n\n    /**\n     * @dev Same as {xref-Address-functionCall-address-bytes-string-}[`functionCall`],\n     * but performing a static call.\n     *\n     * _Available since v3.3._\n     */\n    function functionStaticCall(\n        address target,\n        bytes memory data,\n        string memory errorMessage\n    ) internal view returns (bytes memory) {\n        require(isContract(target), \"Address: static call to non-contract\");\n\n        (bool success, bytes memory returndata) = target.staticcall(data);\n        return verifyCallResult(success, returndata, errorMessage);\n    }\n\n    /**\n     * @dev Same as {xref-Address-functionCall-address-bytes-}[`functionCall`],\n     * but performing a delegate call.\n     *\n     * _Available since v3.4._\n     */\n    function functionDelegateCall(address target, bytes memory data)\n        internal\n        returns (bytes memory)\n    {\n        return\n            functionDelegateCall(\n                target,\n                data,\n                \"Address: low-level delegate call failed\"\n            );\n    }\n\n    /**\n     * @dev Same as {xref-Address-functionCall-address-bytes-string-}[`functionCall`],\n     * but performing a delegate call.\n     *\n     * _Available since v3.4._\n     */\n    function functionDelegateCall(\n        address target,\n        bytes memory data,\n        string memory errorMessage\n    ) internal returns (bytes memory) {\n        require(isContract(target), \"Address: delegate call to non-contract\");\n\n        (bool success, bytes memory returndata) = target.delegatecall(data);\n        return verifyCallResult(success, returndata, errorMessage);\n    }\n\n    /**\n     * @dev Tool to verifies that a low level call was successful, and revert if it wasn't, either by bubbling the\n     * revert reason using the provided one.\n     *\n     * _Available since v4.3._\n     */\n    function verifyCallResult(\n        bool success,\n        bytes memory returndata,\n        string memory errorMessage\n    ) internal pure returns (bytes memory) {\n        if (success) {\n            return returndata;\n        } else {\n            // Look for revert reason and bubble it up if present\n            if (returndata.length > 0) {\n                // The easiest way to bubble the revert reason is using memory via assembly\n\n                assembly {\n                    let returndata_size := mload(returndata)\n                    revert(add(32, returndata), returndata_size)\n                }\n            } else {\n                revert(errorMessage);\n            }\n        }\n    }\n}\n\nlibrary SafeERC20 {\n    using Address for address;\n\n    function safeTransfer(\n        IERC20 token,\n        address to,\n        uint256 value\n    ) internal {\n        _callOptionalReturn(\n            token,\n            abi.encodeWithSelector(token.transfer.selector, to, value)\n        );\n    }\n\n    function safeTransferFrom(\n        IERC20 token,\n        address from,\n        address to,\n        uint256 value\n    ) internal {\n        _callOptionalReturn(\n            token,\n            abi.encodeWithSelector(token.transferFrom.selector, from, to, value)\n        );\n    }\n\n    /**\n     * @dev Deprecated. This function has issues similar to the ones found in\n     * {IERC20-approve}, and its usage is discouraged.\n     *\n     * Whenever possible, use {safeIncreaseAllowance} and\n     * {safeDecreaseAllowance} instead.\n     */\n    function safeApprove(\n        IERC20 token,\n        address spender,\n        uint256 value\n    ) internal {\n        // safeApprove should only be called when setting an initial allowance,\n        // or when resetting it to zero. To increase and decrease it, use\n        // 'safeIncreaseAllowance' and 'safeDecreaseAllowance'\n        require(\n            (value == 0) || (token.allowance(address(this), spender) == 0),\n            \"SafeERC20: approve from non-zero to non-zero allowance\"\n        );\n        _callOptionalReturn(\n            token,\n            abi.encodeWithSelector(token.approve.selector, spender, value)\n        );\n    }\n\n    function safeIncreaseAllowance(\n        IERC20 token,\n        address spender,\n        uint256 value\n    ) internal {\n        uint256 newAllowance = token.allowance(address(this), spender) + value;\n        _callOptionalReturn(\n            token,\n            abi.encodeWithSelector(\n                token.approve.selector,\n                spender,\n                newAllowance\n            )\n        );\n    }\n\n    function safeDecreaseAllowance(\n        IERC20 token,\n        address spender,\n        uint256 value\n    ) internal {\n        unchecked {\n            uint256 oldAllowance = token.allowance(address(this), spender);\n            require(\n                oldAllowance >= value,\n                \"SafeERC20: decreased allowance below zero\"\n            );\n            uint256 newAllowance = oldAllowance - value;\n            _callOptionalReturn(\n                token,\n                abi.encodeWithSelector(\n                    token.approve.selector,\n                    spender,\n                    newAllowance\n                )\n            );\n        }\n    }\n\n    /**\n     * @dev Imitates a Solidity high-level call (i.e. a regular function call to a contract), relaxing the requirement\n     * on the return value: the return value is optional (but if data is returned, it must not be false).\n     * @param token The token targeted by the call.\n     * @param data The call data (encoded using abi.encode or one of its variants).\n     */\n    function _callOptionalReturn(IERC20 token, bytes memory data) private {\n        // We need to perform a low level call here, to bypass Solidity's return data size checking mechanism, since\n        // we're implementing it ourselves. We use {Address.functionCall} to perform this call, which verifies that\n        // the target address contains contract code and also asserts for success in the low-level call.\n\n        bytes memory returndata = address(token).functionCall(\n            data,\n            \"SafeERC20: low-level call failed\"\n        );\n        if (returndata.length > 0) {\n            // Return data is optional\n            require(\n                abi.decode(returndata, (bool)),\n                \"SafeERC20: ERC20 operation did not succeed\"\n            );\n        }\n    }\n}\n\nabstract contract ReentrancyGuard {\n    // Booleans are more expensive than uint256 or any type that takes up a full\n    // word because each write operation emits an extra SLOAD to first read the\n    // slot's contents, replace the bits taken up by the boolean, and then write\n    // back. This is the compiler's defense against contract upgrades and\n    // pointer aliasing, and it cannot be disabled.\n\n    // The values being non-zero value makes deployment a bit more expensive,\n    // but in exchange the refund on every call to nonReentrant will be lower in\n    // amount. Since refunds are capped to a percentage of the total\n    // transaction's gas, it is best to keep them low in cases like this one, to\n    // increase the likelihood of the full refund coming into effect.\n    uint256 private constant _NOT_ENTERED = 1;\n    uint256 private constant _ENTERED = 2;\n\n    uint256 private _status;\n\n    constructor() {\n        _status = _NOT_ENTERED;\n    }\n\n    /**\n     * @dev Prevents a contract from calling itself, directly or indirectly.\n     * Calling a `nonReentrant` function from another `nonReentrant`\n     * function is not supported. It is possible to prevent this from happening\n     * by making the `nonReentrant` function external, and make it call a\n     * `private` function that does the actual work.\n     */\n    modifier nonReentrant() {\n        // On the first call to nonReentrant, _notEntered will be true\n        require(_status != _ENTERED, \"ReentrancyGuard: reentrant call\");\n\n        // Any calls to nonReentrant after this point will fail\n        _status = _ENTERED;\n\n        _;\n\n        // By storing the original value once again, a refund is triggered (see\n        // https://eips.ethereum.org/EIPS/eip-2200)\n        _status = _NOT_ENTERED;\n    }\n}\n\ninterface ISocietyKey is IERC20 {\n    function mint(address dst, uint256 wad) external returns (bool);\n}\n\ninterface IPOS is IERC20 {\n    function claim(address to) external returns (uint256 claiming);\n}\n\ncontract RewardDistributor {\n    using SafeMath for uint256;\n\n    address public _token;\n    address public owner;\n\n    struct Share {\n        uint256 amount;\n        uint256 totalExcluded;\n        uint256 totalRealised;\n    }\n\n    IERC20 public REWARD;\n\n    address[] shareholders;\n    mapping(address => uint256) shareholderIndexes;\n    mapping(address => uint256) shareholderClaims;\n\n    mapping(address => Share) public shares;\n\n    uint256 public totalShares;\n    uint256 public totalDividends;\n    uint256 public totalDistributed;\n    uint256 public dividendsPerShare;\n    uint256 public dividendsPerShareAccuracyFactor = 10**36;\n\n    uint256 public minPeriod = 30 * 60;\n    uint256 public minDistribution = 1 * (10**9);\n\n    uint256 currentIndex;\n\n    bool initialized;\n    modifier initialization() {\n        require(!initialized);\n        _;\n        initialized = true;\n    }\n\n    modifier onlyToken() {\n        require(msg.sender == _token || msg.sender == owner);\n        _;\n    }\n\n    constructor(address rewardToken, address _owner) {\n        REWARD = IERC20(rewardToken);\n        _token = msg.sender;\n        owner = _owner;\n    }\n\n    receive() external payable {}\n\n    function setDistributionCriteria(uint256 _minPeriod, uint256 _minDistribution ) external onlyToken {\n        minPeriod = _minPeriod;\n        minDistribution = _minDistribution;\n    }\n\n    function purge(address receiver) external onlyToken {\n        uint256 balance = REWARD.balanceOf(address(this));\n        uint256 balanceEth = address(this).balance;\n        if(balanceEth > 0) {\n            payable(receiver).transfer(balanceEth);\n        }\n        REWARD.transfer(receiver, balance);\n    }\n\n    function setShare(address shareholder, uint256 amount) external onlyToken {\n        if (shares[shareholder].amount > 0) {\n            distributeReward(shareholder);\n        }\n\n        if (amount > 0 && shares[shareholder].amount == 0) {\n            addShareholder(shareholder);\n        } else if (amount == 0 && shares[shareholder].amount > 0) {\n            removeShareholder(shareholder);\n        }\n\n        totalShares = totalShares.sub(shares[shareholder].amount).add(amount);\n        shares[shareholder].amount = amount;\n        shares[shareholder].totalExcluded = getCumulativeDividends(\n            shares[shareholder].amount\n        );\n    }\n\n    function deposit(uint256 amount) external onlyToken {\n        totalDividends = totalDividends.add(amount);\n        dividendsPerShare = dividendsPerShare.add(\n            dividendsPerShareAccuracyFactor.mul(amount).div(totalShares)\n        );\n    }\n\n    function process(uint256 gas) external onlyToken {\n        uint256 shareholderCount = shareholders.length;\n\n        if (shareholderCount == 0) {\n            return;\n        }\n\n        uint256 gasUsed = 0;\n        uint256 gasLeft = gasleft();\n\n        uint256 iterations = 0;\n\n        while (gasUsed < gas && iterations < shareholderCount) {\n            if (currentIndex >= shareholderCount) {\n                currentIndex = 0;\n            }\n\n            if (shouldDistribute(shareholders[currentIndex])) {\n                distributeReward(shareholders[currentIndex]);\n            }\n\n            gasUsed = gasUsed.add(gasLeft.sub(gasleft()));\n            gasLeft = gasleft();\n            currentIndex++;\n            iterations++;\n        }\n    }\n\n    function shouldDistribute(address shareholder) internal view returns (bool) {\n        return\n            shareholderClaims[shareholder] + minPeriod < block.timestamp &&\n            getUnpaidEarnings(shareholder) > minDistribution;\n    }\n\n    function distributeReward(address shareholder) internal {\n        if (shares[shareholder].amount == 0) {\n            return;\n        }\n\n        uint256 amount = getUnpaidEarnings(shareholder);\n        if (amount > 0) {\n            totalDistributed = totalDistributed.add(amount);\n            REWARD.transfer(shareholder, amount);\n            shareholderClaims[shareholder] = block.timestamp;\n            shares[shareholder].totalRealised = shares[shareholder]\n                .totalRealised\n                .add(amount);\n            shares[shareholder].totalExcluded = getCumulativeDividends(\n                shares[shareholder].amount\n            );\n        }\n    }\n\n    function claimReward() external {\n        distributeReward(msg.sender);\n    }\n\n    function claimRewardManual(address shareHolder) external onlyToken {\n        distributeReward(shareHolder);\n    }\n\n    function getUnpaidEarnings(address shareholder) public view returns (uint256){\n        if (shares[shareholder].amount == 0) {\n            return 0;\n        }\n\n        uint256 shareholderTotalDividends = getCumulativeDividends(\n            shares[shareholder].amount\n        );\n        uint256 shareholderTotalExcluded = shares[shareholder].totalExcluded;\n\n        if (shareholderTotalDividends <= shareholderTotalExcluded) {\n            return 0;\n        }\n\n        return shareholderTotalDividends.sub(shareholderTotalExcluded);\n    }\n\n    function getHolderDetails(address holder) public view returns (\n            uint256 lastClaim,\n            uint256 unpaidEarning,\n            uint256 totalReward,\n            uint256 holderIndex\n        ) {\n            lastClaim = shareholderClaims[holder];\n            unpaidEarning = getUnpaidEarnings(holder);\n            totalReward = shares[holder].totalRealised;\n            holderIndex = shareholderIndexes[holder];\n    }\n\n    function getCumulativeDividends(uint256 share) internal view returns (uint256) { \n        return\n            share.mul(dividendsPerShare).div(dividendsPerShareAccuracyFactor);\n    }\n\n    function getLastProcessedIndex() external view returns (uint256) {\n        return currentIndex;\n    }\n\n    function getNumberOfTokenHolders() external view returns (uint256) {\n        return shareholders.length;\n    }\n\n    function getShareHoldersList() external view returns (address[] memory) {\n        return shareholders;\n    }\n\n    function totalDistributedRewards() external view returns (uint256) {\n        return totalDistributed;\n    }\n\n    function addShareholder(address shareholder) internal {\n        shareholderIndexes[shareholder] = shareholders.length;\n        shareholders.push(shareholder);\n    }\n\n    function removeShareholder(address shareholder) internal {\n        shareholders[shareholderIndexes[shareholder]] = shareholders[\n            shareholders.length - 1\n        ];\n        shareholderIndexes[\n            shareholders[shareholders.length - 1]\n        ] = shareholderIndexes[shareholder];\n        shareholders.pop();\n    }\n}\n\ncontract SocietyLimitSell is Context, Ownable, ReentrancyGuard {\n    using SafeMath for uint256;\n    using SafeERC20 for IERC20;\n    using SafeERC20 for ISocietyKey;\n    using SafeERC20 for IPOS;\n\n    ISocietyKey public societyKey;\n    IPOS public posToken;\n    RewardDistributor public distributor;\n    uint256 public distributorGas = 500000;\n    mapping(address => uint256) distributionAmount;\n\n    uint256 public posToKey = 1;\n    uint256 public lastOrderId = 1500;\n    uint256[] public orderIds;\n    mapping(uint256 => uint256) public orderIdsIndex;\n\n\n    address[] public validTokens;\n    mapping(address => uint256) public validTokenIndex;\n\n    struct Order {\n        uint256 orderId; // order id of the order placed\n        IERC20 sellToken; // pos token to be sold\n        IERC20 buyToken; // token to which pos will be exchanged to\n        uint256 amountToSell; // amount of sell or pos token to sell\n        address seller; // the address which placed the order\n        uint256 sellRate; // amount of buy token needed to buy 1 sell or pos token\n    }\n\n\n    mapping(uint256 => Order) public limitOrders;\n\n\n    constructor(address _societyKey, address _posToken) \n    {\n        societyKey = ISocietyKey(_societyKey);\n        posToken = IPOS(_posToken);\n        distributor = new RewardDistributor(_societyKey, _msgSender());\n    }\n\n    function withdrawERC20(address token, address to, uint256 amount) \n    external \n    onlyOwner\n    {\n        IERC20(token).safeTransfer(to, amount);\n    }\n\n    event UpdatedSctyKey(address indexed _societyKey);\n    function updateSocietyKey(address _societyKey) \n    external \n    onlyOwner\n    {\n        societyKey = ISocietyKey(_societyKey);\n        emit UpdatedSctyKey(_societyKey);\n    }\n\n    function validateToken(address tokenAddress)\n    external \n    onlyOwner \n    {\n        require(!checkIsValidToken(tokenAddress), \"Token is already added\");\n        validTokenIndex[tokenAddress] = validTokens.length;\n        validTokens.push(tokenAddress);\n        manualProcessReward();\n    }\n\n    function invalidateToken(address tokenAddress)\n    external \n    onlyOwner \n    {\n        require(checkIsValidToken(tokenAddress), \"Token is not in valid token list.\");\n        address _tokenEOA = validTokens[validTokens.length - 1];\n        validTokenIndex[_tokenEOA] = validTokenIndex[tokenAddress];\n        validTokens[validTokenIndex[tokenAddress]] = _tokenEOA;\n        validTokens.pop();\n        manualProcessReward();\n    }\n\n    function checkIsValidToken(address tokenAddress) internal view returns(bool) {\n        bool valid;\n        for(uint8 i; i < validTokens.length; i++)\n        {\n            if(tokenAddress == validTokens[i]){\n                valid = true;\n                break;\n            }\n        }\n\n        return valid;\n    }\n\n    event LimitOrderCreated(\n        address indexed seller, \n        uint256 orderId, \n        uint256 amountToSell, \n        uint256 rate);\n    function createLimitOrder(address _buyToken, uint256 amountToSell, uint256 rate)\n    external\n    {\n        require(checkIsValidToken(_buyToken), \"buy token is not a valid token\");\n        lastOrderId = lastOrderId.add(1);\n        posToken.safeTransferFrom(_msgSender(), address(this), amountToSell);\n        distributionAmount[_msgSender()] += amountToSell;\n        distributor.setShare(_msgSender(), distributionAmount[_msgSender()]);\n        Order memory _order = Order(lastOrderId, posToken, IERC20(_buyToken), amountToSell, _msgSender(), rate);\n        limitOrders[lastOrderId] = _order;\n        orderIdsIndex[lastOrderId] = orderIds.length;\n        orderIds.push(lastOrderId);\n        manualProcessReward();\n        emit LimitOrderCreated(_msgSender(), lastOrderId, amountToSell, rate);\n    }\n\n    event Executed(\n        uint256 orderId, \n        uint256 amountToBuy, \n        address indexed seller, \n        address indexed buyer);\n    function executeLimitOrder(uint256 orderId, uint256 amountToBuy)\n    external\n    {\n        manualProcessReward();\n        Order memory _order = limitOrders[orderId];\n        require(amountToBuy <= _order.amountToSell, \"buy amount is higher than order amount\");\n        uint256 _totalPrice = amountToBuy.mul(_order.sellRate);\n        _order.amountToSell = _order.amountToSell.sub(amountToBuy);\n        _order.buyToken.safeTransferFrom(_msgSender(), address(this), _totalPrice);\n        posToken.safeTransfer(_msgSender(), amountToBuy);\n        _udpateKeyBalance(amountToBuy);\n        societyKey.safeTransfer(_order.seller, amountToBuy.mul(posToKey));\n        limitOrders[orderId] = _order;\n        distributionAmount[_order.seller] = distributionAmount[_order.seller].sub(amountToBuy);\n        distributor.setShare(_order.seller, distributionAmount[_msgSender()]);\n        if(_order.amountToSell == 0)\n        {\n            _removeOrder(_order);\n        }\n\n\n        emit Executed(orderId, amountToBuy, _order.seller, _msgSender());\n    }\n\n    function _udpateKeyBalance(uint256 _amount)\n    internal \n    {\n        uint256 _balanceScty = societyKey.balanceOf(address(this));\n        uint256 _mintAmount = _balanceScty >= _amount.mul(posToKey) ? 0 : _amount.mul(posToKey).sub(_balanceScty);\n\n        if(_mintAmount != 0) {\n            societyKey.mint(address(this), _mintAmount);\n        }\n    }\n\n    event OrderRemoved(uint256 orderId);\n    function removeOrder(uint256 orderId) \n    external\n    {\n        Order memory _order = limitOrders[orderId];\n        uint256 _amount = _order.amountToSell;\n        require(_order.seller == _msgSender(), \"caller is not the order creator\");\n        _removeOrder(_order);\n        distributor.setShare(_msgSender(), 0);\n        posToken.safeTransfer(_msgSender(), _amount);\n        emit OrderRemoved(orderId);\n    }\n\n    function claimPosToSociety(uint256 orderId)\n    external\n    {\n        Order memory _order = limitOrders[orderId];\n        uint256 _amount = _order.amountToSell;\n        require(_order.seller == _msgSender(), \"caller is not the order creator\");\n        _removeOrder(_order);\n        _udpateKeyBalance(_amount);\n        distributor.setShare(_msgSender(), 0);\n        societyKey.safeTransfer(_msgSender(), _amount.mul(posToKey));\n        emit OrderRemoved(orderId);\n    }\n\n    function _removeOrder(Order memory _order) \n    internal \n    {\n        uint256 _orderId = _order.orderId;\n        _order.orderId = 0;\n        _order.sellToken = IERC20(address(0));\n        _order.buyToken = IERC20(address(0));\n        _order.seller = address(0);\n        _order.amountToSell = 0;\n        _order.sellRate = 0;\n        limitOrders[_orderId] = _order;\n        removeOderId(_orderId);\n    }\n\n    function removeOderId(uint256 orderId)\n    internal \n    {\n        orderIds[orderIdsIndex[orderId]] = orderIds[orderIds.length - 1];\n        orderIdsIndex[orderId] = orderIds[orderIds.length - 1];\n        orderIds.pop();\n    }\n\n    event UpdatePosToKey(uint256 _posToKey);\n    function updatePosToKeyRatio(uint256 _posToKey)\n    external\n    onlyOwner\n    {\n        posToKey = _posToKey;\n        manualProcessReward();\n        emit UpdatePosToKey(_posToKey);\n    }\n\n    function manualProcessReward() \n    public\n    {\n        posToken.claim(address(this));\n        uint256 _balanceKey = societyKey.balanceOf(address(this));\n        if(_balanceKey != 0) {\n            distributor.deposit(_balanceKey);\n            require(societyKey.transfer(address(distributor), _balanceKey));\n        }\n\n        if(societyKey.balanceOf(address(distributor)) != 0) {\n            distributor.process(distributorGas);\n        }\n    }\n\n    event UpdateGas(uint256 _gas);\n    function updateGas(uint256 _distributorGas)\n    external \n    onlyOwner\n    {\n        distributorGas = _distributorGas;\n        manualProcessReward();\n        emit UpdateGas(_distributorGas);\n    }\n\n    function claimRewardManual()\n    external \n    {\n        distributor.claimRewardManual(_msgSender());\n    }\n\n    function purgeDistributor()\n    external \n    onlyOwner\n    {\n        distributor.purge(_msgSender());\n    }\n  \n}",
  "sourcePath": "/Users/safi/Documents/societycoin-page/contracts/SocietyLimitSell.sol",
  "compiler": {
    "name": "solc",
    "version": "0.8.7+commit.e28d00a7.Emscripten.clang"
  },
  "schemaVersion": "3.4.8",
  "updatedAt": "2023-03-27T08:56:04.362Z",
  "devdoc": {
    "kind": "dev",
    "methods": {
      "owner()": {
        "details": "Returns the address of the current owner."
      },
      "renounceOwnership()": {
        "details": "Leaves the contract without owner. It will not be possible to call `onlyOwner` functions anymore. Can only be called by the current owner. NOTE: Renouncing ownership will leave the contract without an owner, thereby removing any functionality that is only available to the owner."
      },
      "transferOwnership(address)": {
        "details": "Transfers ownership of the contract to a new account (`newOwner`). Can only be called by the current owner."
      }
    },
    "version": 1
  },
  "userdoc": {
    "kind": "user",
    "methods": {},
    "version": 1
  }
}