{
  "contractName": "SocietyH2OFunding",
  "abi": [
    {
      "inputs": [
        {
          "internalType": "address",
          "name": "_stakingToken",
          "type": "address"
        },
        {
          "internalType": "address",
          "name": "_rewardToken",
          "type": "address"
        },
        {
          "internalType": "address",
          "name": "_feeAddress",
          "type": "address"
        }
      ],
      "stateMutability": "nonpayable",
      "type": "constructor"
    },
    {
      "inputs": [
        {
          "internalType": "address",
          "name": "",
          "type": "address"
        }
      ],
      "name": "balanceOf",
      "outputs": [
        {
          "internalType": "uint256",
          "name": "",
          "type": "uint256"
        }
      ],
      "stateMutability": "view",
      "type": "function"
    },
    {
      "inputs": [],
      "name": "duration",
      "outputs": [
        {
          "internalType": "uint256",
          "name": "",
          "type": "uint256"
        }
      ],
      "stateMutability": "view",
      "type": "function"
    },
    {
      "inputs": [],
      "name": "feeAddress",
      "outputs": [
        {
          "internalType": "address",
          "name": "",
          "type": "address"
        }
      ],
      "stateMutability": "view",
      "type": "function"
    },
    {
      "inputs": [],
      "name": "finishAt",
      "outputs": [
        {
          "internalType": "uint256",
          "name": "",
          "type": "uint256"
        }
      ],
      "stateMutability": "view",
      "type": "function"
    },
    {
      "inputs": [],
      "name": "owner",
      "outputs": [
        {
          "internalType": "address",
          "name": "",
          "type": "address"
        }
      ],
      "stateMutability": "view",
      "type": "function"
    },
    {
      "inputs": [],
      "name": "posToken",
      "outputs": [
        {
          "internalType": "contract IPosToken",
          "name": "",
          "type": "address"
        }
      ],
      "stateMutability": "view",
      "type": "function"
    },
    {
      "inputs": [],
      "name": "rewardPerTokenStored",
      "outputs": [
        {
          "internalType": "uint256",
          "name": "",
          "type": "uint256"
        }
      ],
      "stateMutability": "view",
      "type": "function"
    },
    {
      "inputs": [],
      "name": "rewardRate",
      "outputs": [
        {
          "internalType": "uint256",
          "name": "",
          "type": "uint256"
        }
      ],
      "stateMutability": "view",
      "type": "function"
    },
    {
      "inputs": [],
      "name": "rewards",
      "outputs": [
        {
          "internalType": "uint256",
          "name": "",
          "type": "uint256"
        }
      ],
      "stateMutability": "view",
      "type": "function"
    },
    {
      "inputs": [],
      "name": "rewardsToken",
      "outputs": [
        {
          "internalType": "contract IERC20",
          "name": "",
          "type": "address"
        }
      ],
      "stateMutability": "view",
      "type": "function"
    },
    {
      "inputs": [],
      "name": "stakingToken",
      "outputs": [
        {
          "internalType": "contract IERC20",
          "name": "",
          "type": "address"
        }
      ],
      "stateMutability": "view",
      "type": "function"
    },
    {
      "inputs": [],
      "name": "totalSupply",
      "outputs": [
        {
          "internalType": "uint256",
          "name": "",
          "type": "uint256"
        }
      ],
      "stateMutability": "view",
      "type": "function"
    },
    {
      "inputs": [],
      "name": "updatedAt",
      "outputs": [
        {
          "internalType": "uint256",
          "name": "",
          "type": "uint256"
        }
      ],
      "stateMutability": "view",
      "type": "function"
    },
    {
      "inputs": [],
      "name": "userRewardPerTokenPaid",
      "outputs": [
        {
          "internalType": "uint256",
          "name": "",
          "type": "uint256"
        }
      ],
      "stateMutability": "view",
      "type": "function"
    },
    {
      "inputs": [
        {
          "internalType": "address",
          "name": "_posToken",
          "type": "address"
        }
      ],
      "name": "updatePosToken",
      "outputs": [],
      "stateMutability": "nonpayable",
      "type": "function"
    },
    {
      "inputs": [],
      "name": "lastTimeRewardApplicable",
      "outputs": [
        {
          "internalType": "uint256",
          "name": "",
          "type": "uint256"
        }
      ],
      "stateMutability": "view",
      "type": "function"
    },
    {
      "inputs": [],
      "name": "rewardPerToken",
      "outputs": [
        {
          "internalType": "uint256",
          "name": "",
          "type": "uint256"
        }
      ],
      "stateMutability": "view",
      "type": "function"
    },
    {
      "inputs": [
        {
          "internalType": "uint256",
          "name": "_amount",
          "type": "uint256"
        }
      ],
      "name": "stake",
      "outputs": [],
      "stateMutability": "nonpayable",
      "type": "function"
    },
    {
      "inputs": [
        {
          "internalType": "uint256",
          "name": "_amount",
          "type": "uint256"
        }
      ],
      "name": "withdraw",
      "outputs": [],
      "stateMutability": "nonpayable",
      "type": "function"
    },
    {
      "inputs": [],
      "name": "earned",
      "outputs": [
        {
          "internalType": "uint256",
          "name": "",
          "type": "uint256"
        }
      ],
      "stateMutability": "view",
      "type": "function"
    },
    {
      "inputs": [],
      "name": "getReward",
      "outputs": [],
      "stateMutability": "nonpayable",
      "type": "function"
    },
    {
      "inputs": [
        {
          "internalType": "uint256",
          "name": "_duration",
          "type": "uint256"
        }
      ],
      "name": "setRewardsDuration",
      "outputs": [],
      "stateMutability": "nonpayable",
      "type": "function"
    },
    {
      "inputs": [
        {
          "internalType": "uint256",
          "name": "_amount",
          "type": "uint256"
        }
      ],
      "name": "notifyRewardAmount",
      "outputs": [],
      "stateMutability": "nonpayable",
      "type": "function"
    }
  ],
  "bytecode": "0x60c060405234801561001057600080fd5b50604051610d8e380380610d8e83398101604081905261002f91610098565b60018054336001600160a01b031991821617909155606093841b6001600160601b03199081166080529290931b90911660a052600280549092166001600160a01b039091161790556100db565b80516001600160a01b038116811461009357600080fd5b919050565b6000806000606084860312156100ad57600080fd5b6100b68461007c565b92506100c46020850161007c565b91506100d26040850161007c565b90509250925092565b60805160601c60a05160601c610c6c610122600039600081816102ba0152818161063501526107db01526000818161021c0152818161049501526108c00152610c6c6000f3fe608060405234801561001057600080fd5b506004361061014d5760003560e01c80637519ab50116100c3578063c7d706791161007c578063c7d7067914610287578063cc1a378f1461029a578063cd3daf9d146102ad578063d1af0c7d146102b5578063d6f19262146102dc578063df136d65146102e457600080fd5b80637519ab501461023e5780637b0a47ee1461024757806380faa57d146102505780638da5cb5b146102585780639ec5a8941461026b578063a694fc3a1461027457600080fd5b80633d18b912116101155780633d18b912146101b257806341275358146101ba5780635aec7aee146101e557806367d3b488146101ee57806370a08231146101f757806372f702f31461021757600080fd5b80630fb5a6b41461015257806311f7c0461461016e57806318160ddd146101835780632e1a7d4d1461018c5780633c6b16ab1461019f575b600080fd5b61015b60035481565b6040519081526020015b60405180910390f35b61018161017c366004610b0b565b6102ed565b005b61015b600a5481565b61018161019a366004610b56565b610342565b6101816101ad366004610b56565b61051f565b61018161072d565b6002546101cd906001600160a01b031681565b6040516001600160a01b039091168152602001610165565b61015b60085481565b61015b60045481565b61015b610205366004610b0b565b600b6020526000908152604090205481565b6101cd7f000000000000000000000000000000000000000000000000000000000000000081565b61015b60055481565b61015b60065481565b61015b610816565b6001546101cd906001600160a01b031681565b61015b60095481565b610181610282366004610b56565b610829565b6000546101cd906001600160a01b031681565b6101816102a8366004610b56565b610a0b565b61015b610a8b565b6101cd7f000000000000000000000000000000000000000000000000000000000000000081565b61015b610ace565b61015b60075481565b6001546001600160a01b031633146103205760405162461bcd60e51b815260040161031790610b88565b60405180910390fd5b600080546001600160a01b0319166001600160a01b0392909216919091179055565b3361034b610a8b565b600755610356610816565b6005556001600160a01b0381161561037a57610370610ace565b6009556007546008555b600082116103b75760405162461bcd60e51b815260206004820152600a6024820152690616d6f756e74203d20360b41b6044820152606401610317565b336000908152600b6020526040812080548492906103d6908490610c09565b9250508190555081600a60008282546103ef9190610c09565b9091555050600054604051632770a7eb60e21b8152336004820152602481018490526001600160a01b0390911690639dc29fac90604401602060405180830381600087803b15801561044057600080fd5b505af1158015610454573d6000803e3d6000fd5b505050506040513d601f19601f820116820180604052508101906104789190610b34565b5060405163a9059cbb60e01b8152336004820152602481018390527f00000000000000000000000000000000000000000000000000000000000000006001600160a01b03169063a9059cbb906044015b602060405180830381600087803b1580156104e257600080fd5b505af11580156104f6573d6000803e3d6000fd5b505050506040513d601f19601f8201168201806040525081019061051a9190610b34565b505050565b6001546001600160a01b031633146105495760405162461bcd60e51b815260040161031790610b88565b6000610553610a8b565b60075561055e610816565b6005556001600160a01b0381161561058257610578610ace565b6009556007546008555b60045442106105a0576003546105989083610bc8565b6006556105dc565b6000600654426004546105b39190610c09565b6105bd9190610bea565b6003549091506105cd8285610bb0565b6105d79190610bc8565b600655505b6000600654116106205760405162461bcd60e51b815260206004820152600f60248201526e07265776172642072617465203d203608c1b6044820152606401610317565b6040516370a0823160e01b81523060048201527f00000000000000000000000000000000000000000000000000000000000000006001600160a01b0316906370a082319060240160206040518083038186803b15801561067f57600080fd5b505afa158015610693573d6000803e3d6000fd5b505050506040513d601f19601f820116820180604052508101906106b79190610b6f565b6003546006546106c79190610bea565b11156107155760405162461bcd60e51b815260206004820152601760248201527f72657761726420616d6f756e74203e2062616c616e63650000000000000000006044820152606401610317565b6003546107229042610bb0565b600455505042600555565b33610736610a8b565b600755610741610816565b6005556001600160a01b038116156107655761075b610ace565b6009556007546008555b6002546001600160a01b031633146107b15760405162461bcd60e51b815260206004820152600f60248201526e4e6f7420666565206164647265737360881b6044820152606401610317565b600954801561081257600060095560405163a9059cbb60e01b8152336004820152602481018290527f00000000000000000000000000000000000000000000000000000000000000006001600160a01b03169063a9059cbb906044016104c8565b5050565b600061082460045442610af2565b905090565b33610832610a8b565b60075561083d610816565b6005556001600160a01b0381161561086157610857610ace565b6009556007546008555b6000821161089e5760405162461bcd60e51b815260206004820152600a6024820152690616d6f756e74203d20360b41b6044820152606401610317565b6040516323b872dd60e01b8152336004820152306024820152604481018390527f00000000000000000000000000000000000000000000000000000000000000006001600160a01b0316906323b872dd90606401602060405180830381600087803b15801561090c57600080fd5b505af1158015610920573d6000803e3d6000fd5b505050506040513d601f19601f820116820180604052508101906109449190610b34565b506000546040516340c10f1960e01b8152336004820152602481018490526001600160a01b03909116906340c10f1990604401602060405180830381600087803b15801561099157600080fd5b505af11580156109a5573d6000803e3d6000fd5b505050506040513d601f19601f820116820180604052508101906109c99190610b34565b50336000908152600b6020526040812080548492906109e9908490610bb0565b9250508190555081600a6000828254610a029190610bb0565b90915550505050565b6001546001600160a01b03163314610a355760405162461bcd60e51b815260040161031790610b88565b4260045410610a865760405162461bcd60e51b815260206004820152601c60248201527f726577617264206475726174696f6e206e6f742066696e6973686564000000006044820152606401610317565b600355565b6000600a5460001415610a9f575060075490565b600554610aaa610816565b610ab49190610c09565b600654610ac19190610bea565b6007546108249190610bb0565b6000600954600854610ade610a8b565b610ae89190610c09565b6108249190610bb0565b600081831115610b025781610b04565b825b9392505050565b600060208284031215610b1d57600080fd5b81356001600160a01b0381168114610b0457600080fd5b600060208284031215610b4657600080fd5b81518015158114610b0457600080fd5b600060208284031215610b6857600080fd5b5035919050565b600060208284031215610b8157600080fd5b5051919050565b6020808252600e908201526d1b9bdd08185d5d1a1bdc9a5e995960921b604082015260600190565b60008219821115610bc357610bc3610c20565b500190565b600082610be557634e487b7160e01b600052601260045260246000fd5b500490565b6000816000190483118215151615610c0457610c04610c20565b500290565b600082821015610c1b57610c1b610c20565b500390565b634e487b7160e01b600052601160045260246000fdfea264697066735822122012f1473dc98afccfd7b717c5cd433665b2e26dbd045fefad26a96b3711bc000664736f6c63430008070033",
  "immutableReferences": {
    "40246": [
      {
        "length": 32,
        "start": 540
      },
      {
        "length": 32,
        "start": 1173
      },
      {
        "length": 32,
        "start": 2240
      }
    ],
    "40249": [
      {
        "length": 32,
        "start": 698
      },
      {
        "length": 32,
        "start": 1589
      },
      {
        "length": 32,
        "start": 2011
      }
    ]
  },
  "source": "//SPDX-License-Identifier: MIT\npragma solidity ^ 0.8.7;\n\ncontract SocietyH2OFunding {\n    IERC20 public immutable stakingToken;\n    IERC20 public immutable rewardsToken;\n    IPosToken public posToken;\n\n    address public owner;\n    address public feeAddress;\n\n    // Duration of rewards to be paid out (in seconds)\n    uint public duration;\n    // Timestamp of when the rewards finish\n    uint public finishAt;\n    // Minimum of last updated time and reward finish time\n    uint public updatedAt;\n    // Reward to be paid out per second\n    uint public rewardRate;\n    // Sum of (reward rate * dt * 1e18 / total supply)\n    uint public rewardPerTokenStored;\n    // User address => rewardPerTokenStored\n    uint public userRewardPerTokenPaid;\n    // User address => rewards to be claimed\n    uint public rewards;\n\n    // Total staked\n    uint public totalSupply;\n    // User address => staked amount\n    mapping(address => uint) public balanceOf;\n\n    constructor(\n\t\taddress _stakingToken, \n\t\taddress _rewardToken,  \n\t\taddress _feeAddress\n\t\t) {\n        owner = msg.sender;\n        stakingToken = IERC20(_stakingToken);\n        rewardsToken = IERC20(_rewardToken);\n        feeAddress = _feeAddress;\n    }\n\n    modifier onlyOwner() {\n        require(msg.sender == owner, \"not authorized\");\n        _;\n    }\n\n    modifier updateReward(address _account) {\n        rewardPerTokenStored = rewardPerToken();\n        updatedAt = lastTimeRewardApplicable();\n\n        if (_account != address(0)) {\n            rewards = earned();\n            userRewardPerTokenPaid = rewardPerTokenStored;\n        }\n\n        _;\n    }\n\n\tfunction updatePosToken(address _posToken) external onlyOwner {\n\t\tposToken = IPosToken(_posToken);\n\t}\n\n    function lastTimeRewardApplicable() public view returns (uint) {\n        return _min(finishAt, block.timestamp);\n    }\n\n    function rewardPerToken() public view returns (uint) {\n        if (totalSupply == 0) {\n            return rewardPerTokenStored;\n        }\n\n        return\n            rewardPerTokenStored +\n            (rewardRate * (lastTimeRewardApplicable() - updatedAt));\n    }\n\n    function stake(uint _amount) external updateReward(msg.sender) {\n        require(_amount > 0, \"amount = 0\");\n        stakingToken.transferFrom(msg.sender, address(this), _amount);\n\n        // mint POS tokens to the stakers\n        posToken.mint(msg.sender, _amount);\n\n        balanceOf[msg.sender] += _amount;\n        totalSupply += _amount;\n    }\n\n    function withdraw(uint _amount) external updateReward(msg.sender) {\n        require(_amount > 0, \"amount = 0\");\n        balanceOf[msg.sender] -= _amount;\n        totalSupply -= _amount;\n\n        // burn POS tokens from the unstakers\n        posToken.burn(msg.sender, _amount);\n\n        stakingToken.transfer(msg.sender, _amount);\n    }\n\n    function earned() public view returns (uint) {\n        return\n            ((rewardPerToken() - userRewardPerTokenPaid)) + rewards;\n    }\n\n    function getReward() external updateReward(msg.sender) {\n        require(msg.sender == feeAddress, \"Not fee address\");\n        uint reward = rewards;\n        if (reward > 0) {\n            rewards = 0;\n            rewardsToken.transfer(msg.sender, reward);\n        }\n    }\n\n    function setRewardsDuration(uint _duration) external onlyOwner {\n        require(finishAt < block.timestamp, \"reward duration not finished\");\n        duration = _duration;\n    }\n\n    function notifyRewardAmount(\n        uint _amount\n    ) external onlyOwner updateReward(address(0)) {\n        if (block.timestamp >= finishAt) {\n            rewardRate = _amount / duration;\n        } else {\n            uint remainingRewards = (finishAt - block.timestamp) * rewardRate;\n            rewardRate = (_amount + remainingRewards) / duration;\n        }\n\n        require(rewardRate > 0, \"reward rate = 0\");\n        require(\n            rewardRate * duration <= rewardsToken.balanceOf(address(this)),\n            \"reward amount > balance\"\n        );\n\n        finishAt = block.timestamp + duration;\n        updatedAt = block.timestamp;\n    }\n\n    function _min(uint x, uint y) private pure returns (uint) {\n        return x <= y ? x : y;\n    }\n}\n\ninterface IPosToken {\n\tfunction mint(address account, uint256 amount) external returns(bool);\n\tfunction burn(address account, uint256 amount) external returns(bool);\n}\n\n\n/**\n * @dev Interface of the ERC20 standard as defined in the EIP.\n */\ninterface IERC20 {\n    /**\n     * @dev Returns the amount of tokens in existence.\n     */\n    function totalSupply() external view returns (uint256);\n\n    /**\n     * @dev Returns the amount of tokens owned by `account`.\n     */\n    function balanceOf(address account) external view returns (uint256);\n\n    /**\n     * @dev Moves `amount` tokens from the caller's account to `recipient`.\n     *\n     * Returns a boolean value indicating whether the operation succeeded.\n     *\n     * Emits a {Transfer} event.\n     */\n    function transfer(address recipient, uint256 amount) external returns (bool);\n\n    /**\n     * @dev Returns the remaining number of tokens that `spender` will be\n     * allowed to spend on behalf of `owner` through {transferFrom}. This is\n     * zero by default.\n     *\n     * This value changes when {approve} or {transferFrom} are called.\n     */\n    function allowance(address owner, address spender) external view returns (uint256);\n\n    /**\n     * @dev Sets `amount` as the allowance of `spender` over the caller's tokens.\n     *\n     * Returns a boolean value indicating whether the operation succeeded.\n     *\n     * IMPORTANT: Beware that changing an allowance with this method brings the risk\n     * that someone may use both the old and the new allowance by unfortunate\n     * transaction ordering. One possible solution to mitigate this race\n     * condition is to first reduce the spender's allowance to 0 and set the\n     * desired value afterwards:\n     * https://github.com/ethereum/EIPs/issues/20#issuecomment-263524729\n     *\n     * Emits an {Approval} event.\n     */\n    function approve(address spender, uint256 amount) external returns (bool);\n\n    /**\n     * @dev Moves `amount` tokens from `sender` to `recipient` using the\n     * allowance mechanism. `amount` is then deducted from the caller's\n     * allowance.\n     *\n     * Returns a boolean value indicating whether the operation succeeded.\n     *\n     * Emits a {Transfer} event.\n     */\n    function transferFrom(address sender, address recipient, uint256 amount) external returns (bool);\n\n    /**\n     * @dev Emitted when `value` tokens are moved from one account (`from`) to\n     * another (`to`).\n     *\n     * Note that `value` may be zero.\n     */\n    event Transfer(address indexed from, address indexed to, uint256 value);\n\n    /**\n     * @dev Emitted when the allowance of a `spender` for an `owner` is set by\n     * a call to {approve}. `value` is the new allowance.\n     */\n    event Approval(address indexed owner, address indexed spender, uint256 value);\n}",
  "sourcePath": "/Users/safi/Documents/societycoin-page/contracts/SocietyH2OFunding.sol",
  "compiler": {
    "name": "solc",
    "version": "0.8.7+commit.e28d00a7.Emscripten.clang"
  },
  "schemaVersion": "3.4.8",
  "updatedAt": "2023-03-27T08:56:04.325Z",
  "devdoc": {
    "kind": "dev",
    "methods": {},
    "version": 1
  },
  "userdoc": {
    "kind": "user",
    "methods": {},
    "version": 1
  }
}