{
  "contractName": "Staking_NTScty",
  "abi": [
    {
      "inputs": [
        {
          "internalType": "address",
          "name": "_stakingToken",
          "type": "address"
        },
        {
          "internalType": "address",
          "name": "_rewardToken",
          "type": "address"
        },
        {
          "internalType": "uint256",
          "name": "_minDistributionAmount",
          "type": "uint256"
        }
      ],
      "stateMutability": "nonpayable",
      "type": "constructor"
    },
    {
      "anonymous": false,
      "inputs": [
        {
          "indexed": true,
          "internalType": "address",
          "name": "previousOwner",
          "type": "address"
        },
        {
          "indexed": true,
          "internalType": "address",
          "name": "newOwner",
          "type": "address"
        }
      ],
      "name": "OwnershipTransferred",
      "type": "event"
    },
    {
      "anonymous": false,
      "inputs": [
        {
          "indexed": true,
          "internalType": "address",
          "name": "_posToken",
          "type": "address"
        }
      ],
      "name": "PosTokenUpdated",
      "type": "event"
    },
    {
      "anonymous": false,
      "inputs": [
        {
          "indexed": true,
          "internalType": "address",
          "name": "to",
          "type": "address"
        },
        {
          "indexed": false,
          "internalType": "uint256",
          "name": "amount",
          "type": "uint256"
        }
      ],
      "name": "PurgedETH",
      "type": "event"
    },
    {
      "anonymous": false,
      "inputs": [
        {
          "indexed": true,
          "internalType": "address",
          "name": "_tokenAddress",
          "type": "address"
        },
        {
          "indexed": false,
          "internalType": "address",
          "name": "to",
          "type": "address"
        },
        {
          "indexed": false,
          "internalType": "uint256",
          "name": "amount",
          "type": "uint256"
        }
      ],
      "name": "PurgedToken",
      "type": "event"
    },
    {
      "anonymous": false,
      "inputs": [
        {
          "indexed": true,
          "internalType": "address",
          "name": "_whitelisted",
          "type": "address"
        }
      ],
      "name": "RemovedWhitelist",
      "type": "event"
    },
    {
      "anonymous": false,
      "inputs": [
        {
          "indexed": false,
          "internalType": "uint256",
          "name": "balance",
          "type": "uint256"
        }
      ],
      "name": "RewardDistributed",
      "type": "event"
    },
    {
      "anonymous": false,
      "inputs": [
        {
          "indexed": true,
          "internalType": "address",
          "name": "account",
          "type": "address"
        },
        {
          "indexed": false,
          "internalType": "uint256",
          "name": "amount",
          "type": "uint256"
        }
      ],
      "name": "Staked",
      "type": "event"
    },
    {
      "anonymous": false,
      "inputs": [
        {
          "indexed": true,
          "internalType": "address",
          "name": "_stakingToken",
          "type": "address"
        },
        {
          "indexed": true,
          "internalType": "address",
          "name": "_rewardToken",
          "type": "address"
        }
      ],
      "name": "TokensUpdated",
      "type": "event"
    },
    {
      "anonymous": false,
      "inputs": [
        {
          "indexed": true,
          "internalType": "address",
          "name": "_whitelist",
          "type": "address"
        }
      ],
      "name": "Whitelisted",
      "type": "event"
    },
    {
      "anonymous": false,
      "inputs": [
        {
          "indexed": true,
          "internalType": "address",
          "name": "account",
          "type": "address"
        },
        {
          "indexed": false,
          "internalType": "uint256",
          "name": "amount",
          "type": "uint256"
        }
      ],
      "name": "WithdrawnStaking",
      "type": "event"
    },
    {
      "inputs": [],
      "name": "distributionAmount",
      "outputs": [
        {
          "internalType": "uint256",
          "name": "",
          "type": "uint256"
        }
      ],
      "stateMutability": "view",
      "type": "function"
    },
    {
      "inputs": [],
      "name": "distributor",
      "outputs": [
        {
          "internalType": "contract RewardDistributor",
          "name": "",
          "type": "address"
        }
      ],
      "stateMutability": "view",
      "type": "function"
    },
    {
      "inputs": [],
      "name": "gas",
      "outputs": [
        {
          "internalType": "uint256",
          "name": "",
          "type": "uint256"
        }
      ],
      "stateMutability": "view",
      "type": "function"
    },
    {
      "inputs": [],
      "name": "lastDistributionBlock",
      "outputs": [
        {
          "internalType": "uint256",
          "name": "",
          "type": "uint256"
        }
      ],
      "stateMutability": "view",
      "type": "function"
    },
    {
      "inputs": [],
      "name": "owner",
      "outputs": [
        {
          "internalType": "address",
          "name": "",
          "type": "address"
        }
      ],
      "stateMutability": "view",
      "type": "function"
    },
    {
      "inputs": [],
      "name": "posToken",
      "outputs": [
        {
          "internalType": "contract IPosToken",
          "name": "",
          "type": "address"
        }
      ],
      "stateMutability": "view",
      "type": "function"
    },
    {
      "inputs": [],
      "name": "renounceOwnership",
      "outputs": [],
      "stateMutability": "nonpayable",
      "type": "function"
    },
    {
      "inputs": [],
      "name": "rewardDelay",
      "outputs": [
        {
          "internalType": "uint256",
          "name": "",
          "type": "uint256"
        }
      ],
      "stateMutability": "view",
      "type": "function"
    },
    {
      "inputs": [],
      "name": "rewardRate",
      "outputs": [
        {
          "internalType": "uint256",
          "name": "",
          "type": "uint256"
        }
      ],
      "stateMutability": "view",
      "type": "function"
    },
    {
      "inputs": [],
      "name": "rewardToken",
      "outputs": [
        {
          "internalType": "contract IERC20",
          "name": "",
          "type": "address"
        }
      ],
      "stateMutability": "view",
      "type": "function"
    },
    {
      "inputs": [],
      "name": "stakingToken",
      "outputs": [
        {
          "internalType": "contract IERC20",
          "name": "",
          "type": "address"
        }
      ],
      "stateMutability": "view",
      "type": "function"
    },
    {
      "inputs": [
        {
          "internalType": "address",
          "name": "newOwner",
          "type": "address"
        }
      ],
      "name": "transferOwnership",
      "outputs": [],
      "stateMutability": "nonpayable",
      "type": "function"
    },
    {
      "stateMutability": "payable",
      "type": "receive"
    },
    {
      "inputs": [
        {
          "internalType": "address",
          "name": "_stakingToken",
          "type": "address"
        },
        {
          "internalType": "address",
          "name": "_rewardToken",
          "type": "address"
        }
      ],
      "name": "updateTokens",
      "outputs": [],
      "stateMutability": "nonpayable",
      "type": "function"
    },
    {
      "inputs": [
        {
          "internalType": "address",
          "name": "_posToken",
          "type": "address"
        }
      ],
      "name": "updatePosToken",
      "outputs": [],
      "stateMutability": "nonpayable",
      "type": "function"
    },
    {
      "inputs": [
        {
          "internalType": "address",
          "name": "_whitelist",
          "type": "address"
        }
      ],
      "name": "addWhitelist",
      "outputs": [],
      "stateMutability": "nonpayable",
      "type": "function"
    },
    {
      "inputs": [
        {
          "internalType": "address",
          "name": "_whitelisted",
          "type": "address"
        }
      ],
      "name": "removeFromWhitelist",
      "outputs": [],
      "stateMutability": "nonpayable",
      "type": "function"
    },
    {
      "inputs": [
        {
          "internalType": "uint256",
          "name": "amount",
          "type": "uint256"
        }
      ],
      "name": "stake",
      "outputs": [],
      "stateMutability": "nonpayable",
      "type": "function"
    },
    {
      "inputs": [
        {
          "internalType": "uint256",
          "name": "amount",
          "type": "uint256"
        }
      ],
      "name": "withdraw",
      "outputs": [],
      "stateMutability": "nonpayable",
      "type": "function"
    },
    {
      "inputs": [
        {
          "internalType": "address",
          "name": "_tokenAddress",
          "type": "address"
        },
        {
          "internalType": "address",
          "name": "to",
          "type": "address"
        },
        {
          "internalType": "uint256",
          "name": "amount",
          "type": "uint256"
        }
      ],
      "name": "purgeToken",
      "outputs": [],
      "stateMutability": "nonpayable",
      "type": "function"
    },
    {
      "inputs": [
        {
          "internalType": "address",
          "name": "to",
          "type": "address"
        },
        {
          "internalType": "uint256",
          "name": "amount",
          "type": "uint256"
        }
      ],
      "name": "purgeETH",
      "outputs": [],
      "stateMutability": "nonpayable",
      "type": "function"
    },
    {
      "inputs": [],
      "name": "claim",
      "outputs": [],
      "stateMutability": "nonpayable",
      "type": "function"
    },
    {
      "inputs": [
        {
          "internalType": "address",
          "name": "shareHolder",
          "type": "address"
        }
      ],
      "name": "calculate",
      "outputs": [
        {
          "internalType": "uint256",
          "name": "",
          "type": "uint256"
        }
      ],
      "stateMutability": "view",
      "type": "function"
    },
    {
      "inputs": [
        {
          "internalType": "address",
          "name": "receiver",
          "type": "address"
        }
      ],
      "name": "purgeDistributor",
      "outputs": [],
      "stateMutability": "nonpayable",
      "type": "function"
    },
    {
      "inputs": [],
      "name": "manualProcessReward",
      "outputs": [],
      "stateMutability": "nonpayable",
      "type": "function"
    },
    {
      "inputs": [],
      "name": "manualDistributeReward",
      "outputs": [],
      "stateMutability": "nonpayable",
      "type": "function"
    },
    {
      "inputs": [
        {
          "internalType": "uint256",
          "name": "_rewardRate",
          "type": "uint256"
        },
        {
          "internalType": "uint256",
          "name": "_rewardDelay",
          "type": "uint256"
        },
        {
          "internalType": "uint256",
          "name": "_distributionAmount",
          "type": "uint256"
        }
      ],
      "name": "updateDistributionCritearea",
      "outputs": [],
      "stateMutability": "nonpayable",
      "type": "function"
    }
  ],
  "bytecode": "0x608060405268056bc75e2d631000006007556207a120600c553480156200002557600080fd5b5060405162002ac538038062002ac5833981016040819052620000489162000151565b600080546001600160a01b031916339081178255604051909182917f8be0079c531659141344cd1fd0a4f28419497f9722a3daafe3b4186f6b6457e0908290a350600180546001600160a01b038086166001600160a01b0319928316179092556002805492851692909116919091179055600a8190556040518290620000ce9062000126565b6001600160a01b039091168152602001604051809103906000f080158015620000fb573d6000803e3d6000fd5b50600b80546001600160a01b0319166001600160a01b03929092169190911790555062000192915050565b611129806200199c83390190565b80516001600160a01b03811681146200014c57600080fd5b919050565b6000806000606084860312156200016757600080fd5b620001728462000134565b9250620001826020850162000134565b9150604084015190509250925092565b6117fa80620001a26000396000f3fe6080604052600436106101855760003560e01c80638da5cb5b116100d1578063c7d706791161008a578063f2bc79a311610064578063f2bc79a314610428578063f2fde38b1461043e578063f7c618c11461045e578063f80f5dd51461047e57600080fd5b8063c7d70679146103c8578063d1a7216f146103e8578063e7aa29e31461040857600080fd5b80638da5cb5b1461031f57806398e2ee4f1461033d578063a694fc3a1461035d578063b0e0c6811461037d578063bb88841114610393578063bfe10928146103a857600080fd5b806370fe1ad11161013e5780637b0a47ee116101185780637b0a47ee146102a957806383266322146102bf578063879f5e4c146102df5780638ab1d681146102ff57600080fd5b806370fe1ad114610246578063715018a61461025c57806372f702f31461027157600080fd5b806311f7c046146101915780632e1a7d4d146101b357806334cc4d60146101d35780634e71d92d146101e857806350003ca6146101fd5780636ca7c2161461023057600080fd5b3661018c57005b600080fd5b34801561019d57600080fd5b506101b16101ac3660046115e0565b61049e565b005b3480156101bf57600080fd5b506101b16101ce3660046116bd565b61051b565b3480156101df57600080fd5b506101b161075b565b3480156101f457600080fd5b506101b16107c7565b34801561020957600080fd5b5061021d6102183660046115e0565b6107f7565b6040519081526020015b60405180910390f35b34801561023c57600080fd5b5061021d600c5481565b34801561025257600080fd5b5061021d60085481565b34801561026857600080fd5b506101b161087b565b34801561027d57600080fd5b50600154610291906001600160a01b031681565b6040516001600160a01b039091168152602001610227565b3480156102b557600080fd5b5061021d60075481565b3480156102cb57600080fd5b506101b16102da3660046115e0565b6108ef565b3480156102eb57600080fd5b506101b16102fa366004611635565b61097c565b34801561030b57600080fd5b506101b161031a3660046115e0565b610a75565b34801561032b57600080fd5b506000546001600160a01b0316610291565b34801561034957600080fd5b506101b16103583660046116ef565b610c94565b34801561036957600080fd5b506101b16103783660046116bd565b610cd6565b34801561038957600080fd5b5061021d600a5481565b34801561039f57600080fd5b506101b1610e3c565b3480156103b457600080fd5b50600b54610291906001600160a01b031681565b3480156103d457600080fd5b50600354610291906001600160a01b031681565b3480156103f457600080fd5b506101b1610403366004611671565b610e70565b34801561041457600080fd5b506101b1610423366004611602565b610f7b565b34801561043457600080fd5b5061021d60095481565b34801561044a57600080fd5b506101b16104593660046115e0565b611003565b34801561046a57600080fd5b50600254610291906001600160a01b031681565b34801561048a57600080fd5b506101b16104993660046115e0565b6110ed565b6000546001600160a01b031633146104d15760405162461bcd60e51b81526004016104c89061171b565b60405180910390fd5b600380546001600160a01b0319166001600160a01b0383169081179091556040517f1ad4e66cfdad423b6949d0d754fca349bfa451063930a0f8865c2639f978fd6890600090a250565b60035481906001600160a01b03166370a08231336040516001600160e01b031960e084901b1681526001600160a01b03909116600482015260240160206040518083038186803b15801561056e57600080fd5b505afa158015610582573d6000803e3d6000fd5b505050506040513d601f19601f820116820180604052508101906105a691906116d6565b10156105f45760405162461bcd60e51b815260206004820152601c60248201527f6e6f7420656e6f75676820504f5320746f6b656e20746f206275726e0000000060448201526064016104c8565b6003546001600160a01b0316639dc29fac336040516001600160e01b031960e084901b1681526001600160a01b03909116600482015260248101849052604401602060405180830381600087803b15801561064e57600080fd5b505af1158015610662573d6000803e3d6000fd5b505050506040513d601f19601f82011682018060405250810190610686919061169b565b506001546001600160a01b031663a9059cbb336040516001600160e01b031960e084901b1681526001600160a01b03909116600482015260248101849052604401602060405180830381600087803b1580156106e157600080fd5b505af11580156106f5573d6000803e3d6000fd5b505050506040513d601f19601f82011682018060405250810190610719919061169b565b50610722611282565b60405181815233907fb15c0cc309273a90d35f59296565af556110340224f887c266b90f141eb4da59906020015b60405180910390a250565b600b54600c546040516001624d3b8760e01b031981526001600160a01b039092169163ffb2c479916107939160040190815260200190565b600060405180830381600087803b1580156107ad57600080fd5b505af11580156107c1573d6000803e3d6000fd5b50505050565b600b54604051634ad2ff9360e01b81523360048201526001600160a01b0390911690634ad2ff9390602401610793565b600b5460405163051fa63360e31b81526001600160a01b03838116600483015260009216906328fd31989060240160206040518083038186803b15801561083d57600080fd5b505afa158015610851573d6000803e3d6000fd5b505050506040513d601f19601f8201168201806040525081019061087591906116d6565b92915050565b6000546001600160a01b031633146108a55760405162461bcd60e51b81526004016104c89061171b565b600080546040516001600160a01b03909116907f8be0079c531659141344cd1fd0a4f28419497f9722a3daafe3b4186f6b6457e0908390a3600080546001600160a01b0319169055565b6000546001600160a01b031633146109195760405162461bcd60e51b81526004016104c89061171b565b600b5460405163a6871bc360e01b81526001600160a01b0383811660048301529091169063a6871bc3906024015b600060405180830381600087803b15801561096157600080fd5b505af1158015610975573d6000803e3d6000fd5b5050505050565b6000546001600160a01b031633146109a65760405162461bcd60e51b81526004016104c89061171b565b60405163a9059cbb60e01b81526001600160a01b0383811660048301526024820183905284169063a9059cbb90604401602060405180830381600087803b1580156109f057600080fd5b505af1158015610a04573d6000803e3d6000fd5b505050506040513d601f19601f82011682018060405250810190610a28919061169b565b50604080516001600160a01b038481168252602082018490528516917fd72d6577fc35270640eacfb24e19f7ca99a2318a13426e6607cc46bfa55cb91f91015b60405180910390a2505050565b6000546001600160a01b03163314610a9f5760405162461bcd60e51b81526004016104c89061171b565b6001600160a01b03811660009081526006602052604090205460ff16610b075760405162461bcd60e51b815260206004820152601f60248201527f61646472657373206973206e6f7420696e207468652077686974656c6973740060448201526064016104c8565b6001600160a01b03811660009081526005602052604090205460048054610b3090600190611750565b81548110610b4057610b406117ae565b600091825260209091200154600480546001600160a01b039092169183908110610b6c57610b6c6117ae565b9060005260206000200160006101000a8154816001600160a01b0302191690836001600160a01b031602179055506004805480610bab57610bab611798565b60008281526020808220830160001990810180546001600160a01b03191690559092019092556001600160a01b03848116835260069091526040808320805460ff19169055600b549051630a5b654b60e11b81529116916314b6ca9691610c2a9186916004016001600160a01b03929092168252602082015260400190565b600060405180830381600087803b158015610c4457600080fd5b505af1158015610c58573d6000803e3d6000fd5b50506040516001600160a01b03851692507f441e43beaf2db8af6e1f9f7a6b9f0dcc36fcf83a2904264c9ab624068242efff9150600090a25050565b6000546001600160a01b03163314610cbe5760405162461bcd60e51b81526004016104c89061171b565b6008829055600a819055610cd183611504565b505050565b6001546001600160a01b03166323b872dd336040516001600160e01b031960e084901b1681526001600160a01b03909116600482015230602482015260448101849052606401602060405180830381600087803b158015610d3657600080fd5b505af1158015610d4a573d6000803e3d6000fd5b505050506040513d601f19601f82011682018060405250810190610d6e919061169b565b506003546001600160a01b03166340c10f19336040516001600160e01b031960e084901b1681526001600160a01b03909116600482015260248101849052604401602060405180830381600087803b158015610dc957600080fd5b505af1158015610ddd573d6000803e3d6000fd5b505050506040513d601f19601f82011682018060405250810190610e01919061169b565b50610e0a611282565b60405181815233907f9e71bc8eea02a63969f509818f2dafb9254532904319f9dbda79b67bd34a5f3d90602001610750565b6000546001600160a01b03163314610e665760405162461bcd60e51b81526004016104c89061171b565b610e6e611282565b565b6000546001600160a01b03163314610e9a5760405162461bcd60e51b81526004016104c89061171b565b6000826001600160a01b031682604051610ebd906203078360ec1b815260030190565b60006040518083038185875af1925050503d8060008114610efa576040519150601f19603f3d011682016040523d82523d6000602084013e610eff565b606091505b5050905080610f405760405162461bcd60e51b815260206004820152600d60248201526c756e7375636365737366756c2160981b60448201526064016104c8565b826001600160a01b03167f19ac0dde6d3940140bef5feedf548259b934d47f09a49705eb13663dc5c723e883604051610a6891815260200190565b6000546001600160a01b03163314610fa55760405162461bcd60e51b81526004016104c89061171b565b600180546001600160a01b03199081166001600160a01b03858116918217909355600280549092169284169283179091556040517fdcc6331013de89f8c595d5328f0a724194f113cb6f8f2a707b3dff6de13f0d1790600090a35050565b6000546001600160a01b0316331461102d5760405162461bcd60e51b81526004016104c89061171b565b6001600160a01b0381166110925760405162461bcd60e51b815260206004820152602660248201527f4f776e61626c653a206e6577206f776e657220697320746865207a65726f206160448201526564647265737360d01b60648201526084016104c8565b600080546040516001600160a01b03808516939216917f8be0079c531659141344cd1fd0a4f28419497f9722a3daafe3b4186f6b6457e091a3600080546001600160a01b0319166001600160a01b0392909216919091179055565b6000546001600160a01b031633146111175760405162461bcd60e51b81526004016104c89061171b565b6001600160a01b03811660009081526006602052604090205460ff16156111765760405162461bcd60e51b8152602060048201526013602482015272185b1c9958591e481dda1a5d195b1a5cdd1959606a1b60448201526064016104c8565b600480546001600160a01b038381166000818152600660209081526040808320805460ff19166001908117909155600590925280832086905586549182018755918690527f8a35acfbc15ff81a39ae7d344fd709f28e8600b4aa8c65c6b64bfe7fe36bd19b0180546001600160a01b03191683179055600b546007549151630a5b654b60e11b815295860192909252602485015291929116906314b6ca9690604401600060405180830381600087803b15801561123257600080fd5b505af1158015611246573d6000803e3d6000fd5b50506040516001600160a01b03851692507faab7954e9d246b167ef88aeddad35209ca2489d95a8aeb59e288d9b19fae5a549150600090a25050565b6002546040516370a0823160e01b81523060048201526000916001600160a01b0316906370a082319060240160206040518083038186803b1580156112c657600080fd5b505afa1580156112da573d6000803e3d6000fd5b505050506040513d601f19601f820116820180604052508101906112fe91906116d6565b9050600a54811061143f57600254600b54600a5460405163a9059cbb60e01b81526001600160a01b039283166004820152602481019190915291169063a9059cbb90604401602060405180830381600087803b15801561135d57600080fd5b505af1158015611371573d6000803e3d6000fd5b505050506040513d601f19601f82011682018060405250810190611395919061169b565b1561143f5742600955600b54600a5460405163b6b55f2560e01b81526001600160a01b039092169163b6b55f25916113d39160040190815260200190565b600060405180830381600087803b1580156113ed57600080fd5b505af1158015611401573d6000803e3d6000fd5b505050507f04944120d2e185fc95ba63f3ca24c385ec4c5215a801c8766c96486d7fc4ed8e8160405161143691815260200190565b60405180910390a15b600254600b546040516370a0823160e01b81526001600160a01b03918216600482015260009291909116906370a082319060240160206040518083038186803b15801561148b57600080fd5b505afa15801561149f573d6000803e3d6000fd5b505050506040513d601f19601f820116820180604052508101906114c391906116d6565b111561150157600b54600c546040516001624d3b8760e01b031981526001600160a01b039092169163ffb2c479916109479160040190815260200190565b50565b600781905560005b6004548110156115c057600b54600480546001600160a01b03909216916314b6ca96919084908110611540576115406117ae565b60009182526020909120015460075460405160e084901b6001600160e01b03191681526001600160a01b0390921660048301526024820152604401600060405180830381600087803b15801561159557600080fd5b505af11580156115a9573d6000803e3d6000fd5b5050505080806115b890611767565b91505061150c565b5050565b80356001600160a01b03811681146115db57600080fd5b919050565b6000602082840312156115f257600080fd5b6115fb826115c4565b9392505050565b6000806040838503121561161557600080fd5b61161e836115c4565b915061162c602084016115c4565b90509250929050565b60008060006060848603121561164a57600080fd5b611653846115c4565b9250611661602085016115c4565b9150604084013590509250925092565b6000806040838503121561168457600080fd5b61168d836115c4565b946020939093013593505050565b6000602082840312156116ad57600080fd5b815180151581146115fb57600080fd5b6000602082840312156116cf57600080fd5b5035919050565b6000602082840312156116e857600080fd5b5051919050565b60008060006060848603121561170457600080fd5b505081359360208301359350604090920135919050565b6020808252818101527f4f776e61626c653a2063616c6c6572206973206e6f7420746865206f776e6572604082015260600190565b60008282101561176257611762611782565b500390565b600060001982141561177b5761177b611782565b5060010190565b634e487b7160e01b600052601160045260246000fd5b634e487b7160e01b600052603160045260246000fd5b634e487b7160e01b600052603260045260246000fdfea26469706673582212208ac4478fe9106c7a2ab0e561488b8a03bc57eb270913e6c1f9e94c2830de3fee64736f6c6343000807003360806040526ec097ce7bc90715b34b9f1000000000600a55610708600b55633b9aca00600c5534801561003157600080fd5b506040516111293803806111298339810160408190526100509161007e565b600180546001600160a01b039092166001600160a01b031992831617905560008054909116331790556100ae565b60006020828403121561009057600080fd5b81516001600160a01b03811681146100a757600080fd5b9392505050565b61106c806100bd6000396000f3fe6080604052600436106101445760003560e01c8063a6871bc3116100b6578063e2d2e2191161006f578063e2d2e219146103a9578063e7841ec0146103bf578063ecd0c0c3146103d4578063efca2eed146103f4578063ffb2c4791461040a578063ffd49c841461042a57600080fd5b8063a6871bc3146102b0578063a87df832146102d0578063b6b55f25146102e5578063b88a802f14610305578063cab34c081461031a578063ce7c2ac21461035257600080fd5b80632d48e896116101085780632d48e8961461020c5780633a98ef391461022c5780634ad2ff93146102425780634fab0ae81461026257806360379e1314610278578063997664d71461029a57600080fd5b806309bbedde146101505780630a05cd011461017457806311ce023d146101b457806314b6ca96146101ca57806328fd3198146101ec57600080fd5b3661014b57005b600080fd5b34801561015c57600080fd5b506002545b6040519081526020015b60405180910390f35b34801561018057600080fd5b5061019461018f366004610e61565b610440565b60408051948552602085019390935291830152606082015260800161016b565b3480156101c057600080fd5b50610161600a5481565b3480156101d657600080fd5b506101ea6101e5366004610e7c565b610499565b005b3480156101f857600080fd5b50610161610207366004610e61565b610611565b34801561021857600080fd5b506101ea610227366004610efa565b61069a565b34801561023857600080fd5b5061016160065481565b34801561024e57600080fd5b506101ea61025d366004610e61565b6106bc565b34801561026e57600080fd5b50610161600c5481565b34801561028457600080fd5b5061028d6106df565b60405161016b9190610f1c565b3480156102a657600080fd5b5061016160075481565b3480156102bc57600080fd5b506101ea6102cb366004610e61565b610741565b3480156102dc57600080fd5b50600854610161565b3480156102f157600080fd5b506101ea610300366004610ec8565b6108a1565b34801561031157600080fd5b506101ea6108f5565b34801561032657600080fd5b5060015461033a906001600160a01b031681565b6040516001600160a01b03909116815260200161016b565b34801561035e57600080fd5b5061038e61036d366004610e61565b60056020526000908152604090208054600182015460029092015490919083565b6040805193845260208401929092529082015260600161016b565b3480156103b557600080fd5b5061016160095481565b3480156103cb57600080fd5b50600d54610161565b3480156103e057600080fd5b5060005461033a906001600160a01b031681565b34801561040057600080fd5b5061016160085481565b34801561041657600080fd5b506101ea610425366004610ec8565b610900565b34801561043657600080fd5b50610161600b5481565b6001600160a01b03811660009081526004602052604081205490808061046585610611565b6001600160a01b03909516600090815260056020908152604080832060020154600390925290912054949690949350915050565b6000546001600160a01b031633146104b057600080fd5b6001600160a01b038216600090815260056020526040902054156104d7576104d782610a00565b6000811180156104fd57506001600160a01b038216600090815260056020526040902054155b1561056357600280546001600160a01b0384166000818152600360205260408120839055600183018455929092527f405787fa12a823e0f2b7631cc41b3ba8828b3321ca811111fa75cd3aa3bb5ace0180546001600160a01b0319169091179055610596565b8015801561058857506001600160a01b03821660009081526005602052604090205415155b156105965761059682610b2b565b6001600160a01b0382166000908152600560205260409020546006546105c79183916105c191610c40565b90610caa565b6006556001600160a01b03821660009081526005602052604090208190556105ee81610d09565b6001600160a01b0390921660009081526005602052604090206001019190915550565b6001600160a01b03811660009081526005602052604081205461063657506000919050565b6001600160a01b03821660009081526005602052604081205461065890610d09565b6001600160a01b038416600090815260056020526040902060010154909150808211610688575060009392505050565b6106928282610c40565b949350505050565b6000546001600160a01b031633146106b157600080fd5b600b91909155600c55565b6000546001600160a01b031633146106d357600080fd5b6106dc81610a00565b50565b6060600280548060200260200160405190810160405280929190818152602001828054801561073757602002820191906000526020600020905b81546001600160a01b03168152600190910190602001808311610719575b5050505050905090565b6000546001600160a01b0316331461075857600080fd5b6001546040516370a0823160e01b81523060048201526000916001600160a01b0316906370a082319060240160206040518083038186803b15801561079c57600080fd5b505afa1580156107b0573d6000803e3d6000fd5b505050506040513d601f19601f820116820180604052508101906107d49190610ee1565b9050478015610815576040516001600160a01b0384169082156108fc029083906000818181858888f19350505050158015610813573d6000803e3d6000fd5b505b60015460405163a9059cbb60e01b81526001600160a01b038581166004830152602482018590529091169063a9059cbb90604401602060405180830381600087803b15801561086357600080fd5b505af1158015610877573d6000803e3d6000fd5b505050506040513d601f19601f8201168201806040525081019061089b9190610ea6565b50505050565b6000546001600160a01b031633146108b857600080fd5b6007546108c59082610caa565b600755600654600a546108ef916108e6916108e09085610d26565b90610da5565b60095490610caa565b60095550565b6108fe33610a00565b565b6000546001600160a01b0316331461091757600080fd5b60025480610923575050565b6000805a905060005b848310801561093a57508381105b156109f95783600d541061094e576000600d555b6109806002600d548154811061096657610966611020565b6000918252602090912001546001600160a01b0316610e00565b156109b7576109b76002600d548154811061099d5761099d611020565b6000918252602090912001546001600160a01b0316610a00565b6109cc6109c55a8490610c40565b8490610caa565b92505a600d805491935060006109e183610fd9565b919050555080806109f190610fd9565b91505061092c565b5050505050565b6001600160a01b038116600090815260056020526040902054610a205750565b6000610a2b82610611565b90508015610b2757600854610a409082610caa565b60085560015460405163a9059cbb60e01b81526001600160a01b038481166004830152602482018490529091169063a9059cbb90604401602060405180830381600087803b158015610a9157600080fd5b505af1158015610aa5573d6000803e3d6000fd5b505050506040513d601f19601f82011682018060405250810190610ac99190610ea6565b506001600160a01b03821660009081526004602090815260408083204290556005909152902060020154610afd9082610caa565b6001600160a01b03831660009081526005602052604090206002810191909155546105ee90610d09565b5050565b60028054610b3b90600190610fc2565b81548110610b4b57610b4b611020565b60009182526020808320909101546001600160a01b0384811684526003909252604090922054600280549290931692918110610b8957610b89611020565b600091825260208083209190910180546001600160a01b0319166001600160a01b03948516179055918316815260039182905260408120546002805491939291610bd590600190610fc2565b81548110610be557610be5611020565b60009182526020808320909101546001600160a01b031683528201929092526040019020556002805480610c1b57610c1b61100a565b600082815260209020810160001990810180546001600160a01b031916905501905550565b600082821115610c975760405162461bcd60e51b815260206004820152601e60248201527f536166654d6174683a207375627472616374696f6e206f766572666c6f77000060448201526064015b60405180910390fd5b610ca18284610fc2565b90505b92915050565b600080610cb78385610f69565b905083811015610ca15760405162461bcd60e51b815260206004820152601b60248201527f536166654d6174683a206164646974696f6e206f766572666c6f7700000000006044820152606401610c8e565b6000610ca4600a546108e060095485610d2690919063ffffffff16565b600082610d3557506000610ca4565b6000610d418385610fa3565b905082610d4e8583610f81565b14610ca15760405162461bcd60e51b815260206004820152602160248201527f536166654d6174683a206d756c7469706c69636174696f6e206f766572666c6f6044820152607760f81b6064820152608401610c8e565b6000808211610df65760405162461bcd60e51b815260206004820152601a60248201527f536166654d6174683a206469766973696f6e206279207a65726f0000000000006044820152606401610c8e565b610ca18284610f81565b600b546001600160a01b03821660009081526004602052604081205490914291610e2a9190610f69565b108015610ca45750600c54610e3e83610611565b1192915050565b80356001600160a01b0381168114610e5c57600080fd5b919050565b600060208284031215610e7357600080fd5b610ca182610e45565b60008060408385031215610e8f57600080fd5b610e9883610e45565b946020939093013593505050565b600060208284031215610eb857600080fd5b81518015158114610ca157600080fd5b600060208284031215610eda57600080fd5b5035919050565b600060208284031215610ef357600080fd5b5051919050565b60008060408385031215610f0d57600080fd5b50508035926020909101359150565b6020808252825182820181905260009190848201906040850190845b81811015610f5d5783516001600160a01b031683529284019291840191600101610f38565b50909695505050505050565b60008219821115610f7c57610f7c610ff4565b500190565b600082610f9e57634e487b7160e01b600052601260045260246000fd5b500490565b6000816000190483118215151615610fbd57610fbd610ff4565b500290565b600082821015610fd457610fd4610ff4565b500390565b6000600019821415610fed57610fed610ff4565b5060010190565b634e487b7160e01b600052601160045260246000fd5b634e487b7160e01b600052603160045260246000fd5b634e487b7160e01b600052603260045260246000fdfea2646970667358221220416d271abac3438ebbd3f8d6b0abdd8b83bb4fe5f209b5e0ca4de8e7f6314add64736f6c63430008070033",
  "immutableReferences": {},
  "source": "//SPDX-License-Identifier: MIT\n\npragma solidity ^ 0.8.7;\n\n\n\n/**\n * @dev Interface of the ERC20 standard as defined in the EIP.\n */\ninterface IERC20 {\n    /**\n     * @dev Returns the amount of tokens in existence.\n     */\n    function totalSupply() external view returns (uint256);\n\n    /**\n     * @dev Returns the amount of tokens owned by `account`.\n     */\n    function balanceOf(address account) external view returns (uint256);\n\n    /**\n     * @dev Moves `amount` tokens from the caller's account to `recipient`.\n     *\n     * Returns a boolean value indicating whether the operation succeeded.\n     *\n     * Emits a {Transfer} event.\n     */\n    function transfer(address recipient, uint256 amount) external returns (bool);\n\n    /**\n     * @dev Returns the remaining number of tokens that `spender` will be\n     * allowed to spend on behalf of `owner` through {transferFrom}. This is\n     * zero by default.\n     *\n     * This value changes when {approve} or {transferFrom} are called.\n     */\n    function allowance(address owner, address spender) external view returns (uint256);\n\n    /**\n     * @dev Sets `amount` as the allowance of `spender` over the caller's tokens.\n     *\n     * Returns a boolean value indicating whether the operation succeeded.\n     *\n     * IMPORTANT: Beware that changing an allowance with this method brings the risk\n     * that someone may use both the old and the new allowance by unfortunate\n     * transaction ordering. One possible solution to mitigate this race\n     * condition is to first reduce the spender's allowance to 0 and set the\n     * desired value afterwards:\n     * https://github.com/ethereum/EIPs/issues/20#issuecomment-263524729\n     *\n     * Emits an {Approval} event.\n     */\n    function approve(address spender, uint256 amount) external returns (bool);\n\n    /**\n     * @dev Moves `amount` tokens from `sender` to `recipient` using the\n     * allowance mechanism. `amount` is then deducted from the caller's\n     * allowance.\n     *\n     * Returns a boolean value indicating whether the operation succeeded.\n     *\n     * Emits a {Transfer} event.\n     */\n    function transferFrom(address sender, address recipient, uint256 amount) external returns (bool);\n\n    /**\n     * @dev Emitted when `value` tokens are moved from one account (`from`) to\n     * another (`to`).\n     *\n     * Note that `value` may be zero.\n     */\n    event Transfer(address indexed from, address indexed to, uint256 value);\n\n    /**\n     * @dev Emitted when the allowance of a `spender` for an `owner` is set by\n     * a call to {approve}. `value` is the new allowance.\n     */\n    event Approval(address indexed owner, address indexed spender, uint256 value);\n}\n\ninterface IPosToken is IERC20 {\n    function mint(address recipient, uint256 amount) external returns(bool);\n    function burn(address spender, uint256 amount) external returns(bool);\n}\n\n/**\n * @dev Wrappers over Solidity's arithmetic operations with added overflow\n * checks.\n *\n * Arithmetic operations in Solidity wrap on overflow. This can easily result\n * in bugs, because programmers usually assume that an overflow raises an\n * error, which is the standard behavior in high level programming languages.\n * `SafeMath` restores this intuition by reverting the transaction when an\n * operation overflows.\n *\n * Using this library instead of the unchecked operations eliminates an entire\n * class of bugs, so it's recommended to use it always.\n */\nlibrary SafeMath {\n    /**\n     * @dev Returns the addition of two unsigned integers, with an overflow flag.\n     *\n     * _Available since v3.4._\n     */\n    function tryAdd(uint256 a, uint256 b) internal pure returns (bool, uint256) {\n        uint256 c = a + b;\n        if (c < a) return (false, 0);\n        return (true, c);\n    }\n\n    /**\n     * @dev Returns the substraction of two unsigned integers, with an overflow flag.\n     *\n     * _Available since v3.4._\n     */\n    function trySub(uint256 a, uint256 b) internal pure returns (bool, uint256) {\n        if (b > a) return (false, 0);\n        return (true, a - b);\n    }\n\n    /**\n     * @dev Returns the multiplication of two unsigned integers, with an overflow flag.\n     *\n     * _Available since v3.4._\n     */\n    function tryMul(uint256 a, uint256 b) internal pure returns (bool, uint256) {\n        // Gas optimization: this is cheaper than requiring 'a' not being zero, but the\n        // benefit is lost if 'b' is also tested.\n        // See: https://github.com/OpenZeppelin/openzeppelin-contracts/pull/522\n        if (a == 0) return (true, 0);\n        uint256 c = a * b;\n        if (c / a != b) return (false, 0);\n        return (true, c);\n    }\n\n    /**\n     * @dev Returns the division of two unsigned integers, with a division by zero flag.\n     *\n     * _Available since v3.4._\n     */\n    function tryDiv(uint256 a, uint256 b) internal pure returns (bool, uint256) {\n        if (b == 0) return (false, 0);\n        return (true, a / b);\n    }\n\n    /**\n     * @dev Returns the remainder of dividing two unsigned integers, with a division by zero flag.\n     *\n     * _Available since v3.4._\n     */\n    function tryMod(uint256 a, uint256 b) internal pure returns (bool, uint256) {\n        if (b == 0) return (false, 0);\n        return (true, a % b);\n    }\n\n    /**\n     * @dev Returns the addition of two unsigned integers, reverting on\n     * overflow.\n     *\n     * Counterpart to Solidity's `+` operator.\n     *\n     * Requirements:\n     *\n     * - Addition cannot overflow.\n     */\n    function add(uint256 a, uint256 b) internal pure returns (uint256) {\n        uint256 c = a + b;\n        require(c >= a, \"SafeMath: addition overflow\");\n        return c;\n    }\n\n    /**\n     * @dev Returns the subtraction of two unsigned integers, reverting on\n     * overflow (when the result is negative).\n     *\n     * Counterpart to Solidity's `-` operator.\n     *\n     * Requirements:\n     *\n     * - Subtraction cannot overflow.\n     */\n    function sub(uint256 a, uint256 b) internal pure returns (uint256) {\n        require(b <= a, \"SafeMath: subtraction overflow\");\n        return a - b;\n    }\n\n    /**\n     * @dev Returns the multiplication of two unsigned integers, reverting on\n     * overflow.\n     *\n     * Counterpart to Solidity's `*` operator.\n     *\n     * Requirements:\n     *\n     * - Multiplication cannot overflow.\n     */\n    function mul(uint256 a, uint256 b) internal pure returns (uint256) {\n        if (a == 0) return 0;\n        uint256 c = a * b;\n        require(c / a == b, \"SafeMath: multiplication overflow\");\n        return c;\n    }\n\n    /**\n     * @dev Returns the integer division of two unsigned integers, reverting on\n     * division by zero. The result is rounded towards zero.\n     *\n     * Counterpart to Solidity's `/` operator. Note: this function uses a\n     * `revert` opcode (which leaves remaining gas untouched) while Solidity\n     * uses an invalid opcode to revert (consuming all remaining gas).\n     *\n     * Requirements:\n     *\n     * - The divisor cannot be zero.\n     */\n    function div(uint256 a, uint256 b) internal pure returns (uint256) {\n        require(b > 0, \"SafeMath: division by zero\");\n        return a / b;\n    }\n\n    /**\n     * @dev Returns the remainder of dividing two unsigned integers. (unsigned integer modulo),\n     * reverting when dividing by zero.\n     *\n     * Counterpart to Solidity's `%` operator. This function uses a `revert`\n     * opcode (which leaves remaining gas untouched) while Solidity uses an\n     * invalid opcode to revert (consuming all remaining gas).\n     *\n     * Requirements:\n     *\n     * - The divisor cannot be zero.\n     */\n    function mod(uint256 a, uint256 b) internal pure returns (uint256) {\n        require(b > 0, \"SafeMath: modulo by zero\");\n        return a % b;\n    }\n\n    /**\n     * @dev Returns the subtraction of two unsigned integers, reverting with custom message on\n     * overflow (when the result is negative).\n     *\n     * CAUTION: This function is deprecated because it requires allocating memory for the error\n     * message unnecessarily. For custom revert reasons use {trySub}.\n     *\n     * Counterpart to Solidity's `-` operator.\n     *\n     * Requirements:\n     *\n     * - Subtraction cannot overflow.\n     */\n    function sub(uint256 a, uint256 b, string memory errorMessage) internal pure returns (uint256) {\n        require(b <= a, errorMessage);\n        return a - b;\n    }\n\n    /**\n     * @dev Returns the integer division of two unsigned integers, reverting with custom message on\n     * division by zero. The result is rounded towards zero.\n     *\n     * CAUTION: This function is deprecated because it requires allocating memory for the error\n     * message unnecessarily. For custom revert reasons use {tryDiv}.\n     *\n     * Counterpart to Solidity's `/` operator. Note: this function uses a\n     * `revert` opcode (which leaves remaining gas untouched) while Solidity\n     * uses an invalid opcode to revert (consuming all remaining gas).\n     *\n     * Requirements:\n     *\n     * - The divisor cannot be zero.\n     */\n    function div(uint256 a, uint256 b, string memory errorMessage) internal pure returns (uint256) {\n        require(b > 0, errorMessage);\n        return a / b;\n    }\n\n    /**\n     * @dev Returns the remainder of dividing two unsigned integers. (unsigned integer modulo),\n     * reverting with custom message when dividing by zero.\n     *\n     * CAUTION: This function is deprecated because it requires allocating memory for the error\n     * message unnecessarily. For custom revert reasons use {tryMod}.\n     *\n     * Counterpart to Solidity's `%` operator. This function uses a `revert`\n     * opcode (which leaves remaining gas untouched) while Solidity uses an\n     * invalid opcode to revert (consuming all remaining gas).\n     *\n     * Requirements:\n     *\n     * - The divisor cannot be zero.\n     */\n    function mod(uint256 a, uint256 b, string memory errorMessage) internal pure returns (uint256) {\n        require(b > 0, errorMessage);\n        return a % b;\n    }\n}\n\n/*\n * @dev Provides information about the current execution context, including the\n * sender of the transaction and its data. While these are generally available\n * via msg.sender and msg.data, they should not be accessed in such a direct\n * manner, since when dealing with GSN meta-transactions the account sending and\n * paying for execution may not be the actual sender (as far as an application\n * is concerned).\n *\n * This contract is only required for intermediate, library-like contracts.\n */\nabstract contract Context {\n    function _msgSender() internal view virtual returns (address payable) {\n        return payable(msg.sender);\n    }\n\n    function _msgData() internal view virtual returns (bytes memory) {\n        this; // silence state mutability warning without generating bytecode - see https://github.com/ethereum/solidity/issues/2691\n        return msg.data;\n    }\n}\n\n/**\n * @dev Contract module which provides a basic access control mechanism, where\n * there is an account (an owner) that can be granted exclusive access to\n * specific functions.\n *\n * By default, the owner account will be the one that deploys the contract. This\n * can later be changed with {transferOwnership}.\n *\n * This module is used through inheritance. It will make available the modifier\n * `onlyOwner`, which can be applied to your functions to restrict their use to\n * the owner.\n */\nabstract contract Ownable is Context {\n    address private _owner;\n\n    event OwnershipTransferred(address indexed previousOwner, address indexed newOwner);\n\n    /**\n     * @dev Initializes the contract setting the deployer as the initial owner.\n     */\n    constructor () {\n        address msgSender = _msgSender();\n        _owner = msgSender;\n        emit OwnershipTransferred(address(0), msgSender);\n    }\n\n    /**\n     * @dev Returns the address of the current owner.\n     */\n    function owner() public view virtual returns (address) {\n        return _owner;\n    }\n\n    /**\n     * @dev Throws if called by any account other than the owner.\n     */\n    modifier onlyOwner() {\n        require(owner() == _msgSender(), \"Ownable: caller is not the owner\");\n        _;\n    }\n\n    /**\n     * @dev Leaves the contract without owner. It will not be possible to call\n     * `onlyOwner` functions anymore. Can only be called by the current owner.\n     *\n     * NOTE: Renouncing ownership will leave the contract without an owner,\n     * thereby removing any functionality that is only available to the owner.\n     */\n    function renounceOwnership() public virtual onlyOwner {\n        emit OwnershipTransferred(_owner, address(0));\n        _owner = address(0);\n    }\n\n    /**\n     * @dev Transfers ownership of the contract to a new account (`newOwner`).\n     * Can only be called by the current owner.\n     */\n    function transferOwnership(address newOwner) public virtual onlyOwner {\n        require(newOwner != address(0), \"Ownable: new owner is the zero address\");\n        emit OwnershipTransferred(_owner, newOwner);\n        _owner = newOwner;\n    }\n}\n\ncontract RewardDistributor {\n    using SafeMath for uint256;\n\n    address public _token;\n\n    struct Share {\n        uint256 amount;\n        uint256 totalExcluded;\n        uint256 totalRealised;\n    }\n\n    IERC20 public REWARD;\n\n    address[] shareholders;\n    mapping(address => uint256) shareholderIndexes;\n    mapping(address => uint256) shareholderClaims;\n\n    mapping(address => Share) public shares;\n\n    uint256 public totalShares;\n    uint256 public totalDividends;\n    uint256 public totalDistributed;\n    uint256 public dividendsPerShare;\n    uint256 public dividendsPerShareAccuracyFactor = 10**36;\n\n    uint256 public minPeriod = 30 * 60;\n    uint256 public minDistribution = 1 * (10**9);\n\n    uint256 currentIndex;\n\n    bool initialized;\n    modifier initialization() {\n        require(!initialized);\n        _;\n        initialized = true;\n    }\n\n    modifier onlyToken() {\n        require(msg.sender == _token);\n        _;\n    }\n\n    constructor(address rewardToken) {\n        REWARD = IERC20(rewardToken);\n        _token = msg.sender;\n    }\n\n    receive() external payable {}\n\n    function setDistributionCriteria(uint256 _minPeriod, uint256 _minDistribution ) external onlyToken {\n        minPeriod = _minPeriod;\n        minDistribution = _minDistribution;\n    }\n\n    function purge(address receiver) external onlyToken {\n        uint256 balance = REWARD.balanceOf(address(this));\n        uint256 balanceEth = address(this).balance;\n        if(balanceEth > 0) {\n            payable(receiver).transfer(balanceEth);\n        }\n        REWARD.transfer(receiver, balance);\n    }\n\n    function setShare(address shareholder, uint256 amount) external onlyToken {\n        if (shares[shareholder].amount > 0) {\n            distributeReward(shareholder);\n        }\n\n        if (amount > 0 && shares[shareholder].amount == 0) {\n            addShareholder(shareholder);\n        } else if (amount == 0 && shares[shareholder].amount > 0) {\n            removeShareholder(shareholder);\n        }\n\n        totalShares = totalShares.sub(shares[shareholder].amount).add(amount);\n        shares[shareholder].amount = amount;\n        shares[shareholder].totalExcluded = getCumulativeDividends(\n            shares[shareholder].amount\n        );\n    }\n\n    function deposit(uint256 amount) external onlyToken {\n        totalDividends = totalDividends.add(amount);\n        dividendsPerShare = dividendsPerShare.add(\n            dividendsPerShareAccuracyFactor.mul(amount).div(totalShares)\n        );\n    }\n\n    function process(uint256 gas) external onlyToken {\n        uint256 shareholderCount = shareholders.length;\n\n        if (shareholderCount == 0) {\n            return;\n        }\n\n        uint256 gasUsed = 0;\n        uint256 gasLeft = gasleft();\n\n        uint256 iterations = 0;\n\n        while (gasUsed < gas && iterations < shareholderCount) {\n            if (currentIndex >= shareholderCount) {\n                currentIndex = 0;\n            }\n\n            if (shouldDistribute(shareholders[currentIndex])) {\n                distributeReward(shareholders[currentIndex]);\n            }\n\n            gasUsed = gasUsed.add(gasLeft.sub(gasleft()));\n            gasLeft = gasleft();\n            currentIndex++;\n            iterations++;\n        }\n    }\n\n    function shouldDistribute(address shareholder) internal view returns (bool) {\n        return\n            shareholderClaims[shareholder] + minPeriod < block.timestamp &&\n            getUnpaidEarnings(shareholder) > minDistribution;\n    }\n\n    function distributeReward(address shareholder) internal {\n        if (shares[shareholder].amount == 0) {\n            return;\n        }\n\n        uint256 amount = getUnpaidEarnings(shareholder);\n        if (amount > 0) {\n            totalDistributed = totalDistributed.add(amount);\n            REWARD.transfer(shareholder, amount);\n            shareholderClaims[shareholder] = block.timestamp;\n            shares[shareholder].totalRealised = shares[shareholder]\n                .totalRealised\n                .add(amount);\n            shares[shareholder].totalExcluded = getCumulativeDividends(\n                shares[shareholder].amount\n            );\n        }\n    }\n\n    function claimReward() external {\n        distributeReward(msg.sender);\n    }\n\n    function claimRewardManual(address shareHolder) external onlyToken {\n        distributeReward(shareHolder);\n    }\n\n    function getUnpaidEarnings(address shareholder) public view returns (uint256){\n        if (shares[shareholder].amount == 0) {\n            return 0;\n        }\n\n        uint256 shareholderTotalDividends = getCumulativeDividends(\n            shares[shareholder].amount\n        );\n        uint256 shareholderTotalExcluded = shares[shareholder].totalExcluded;\n\n        if (shareholderTotalDividends <= shareholderTotalExcluded) {\n            return 0;\n        }\n\n        return shareholderTotalDividends.sub(shareholderTotalExcluded);\n    }\n\n    function getHolderDetails(address holder) public view returns (\n            uint256 lastClaim,\n            uint256 unpaidEarning,\n            uint256 totalReward,\n            uint256 holderIndex\n        ) {\n            lastClaim = shareholderClaims[holder];\n            unpaidEarning = getUnpaidEarnings(holder);\n            totalReward = shares[holder].totalRealised;\n            holderIndex = shareholderIndexes[holder];\n    }\n\n    function getCumulativeDividends(uint256 share) internal view returns (uint256) { \n        return\n            share.mul(dividendsPerShare).div(dividendsPerShareAccuracyFactor);\n    }\n\n    function getLastProcessedIndex() external view returns (uint256) {\n        return currentIndex;\n    }\n\n    function getNumberOfTokenHolders() external view returns (uint256) {\n        return shareholders.length;\n    }\n\n    function getShareHoldersList() external view returns (address[] memory) {\n        return shareholders;\n    }\n\n    function totalDistributedRewards() external view returns (uint256) {\n        return totalDistributed;\n    }\n\n    function addShareholder(address shareholder) internal {\n        shareholderIndexes[shareholder] = shareholders.length;\n        shareholders.push(shareholder);\n    }\n\n    function removeShareholder(address shareholder) internal {\n        shareholders[shareholderIndexes[shareholder]] = shareholders[\n            shareholders.length - 1\n        ];\n        shareholderIndexes[\n            shareholders[shareholders.length - 1]\n        ] = shareholderIndexes[shareholder];\n        shareholders.pop();\n    }\n}\n\ncontract Staking_NTScty is Context, Ownable {\n    using SafeMath for uint256;\n    // staking token address\n    IERC20 public stakingToken;\n    // reward token address\n    IERC20 public rewardToken;\n    // pos token\n    IPosToken public posToken;\n    // whitelist addresses \n    address[] private whitelistAddress;\n    // whitelist address index\n    mapping(address => uint256) private whitelistIndex;\n    // check if it in whitelist\n    mapping(address => bool) private isWhitelisted;\n\n    // Reward distributor\n    uint256 public rewardRate = 100 ether;\n    uint256 public rewardDelay;\n    uint256 public lastDistributionBlock;\n    uint256 public distributionAmount;\n    RewardDistributor public distributor;\n    uint256 public gas = 500000;\n\n    constructor (\n        address _stakingToken,\n        address _rewardToken,\n        uint256 _minDistributionAmount\n    ) \n    \n    {\n        stakingToken = IERC20(_stakingToken);\n        rewardToken = IERC20(_rewardToken);\n        distributionAmount = _minDistributionAmount;\n        distributor = new RewardDistributor(_rewardToken);\n    }\n\n    receive() external payable {}\n\n    event TokensUpdated(address indexed _stakingToken, address indexed _rewardToken);\n    function updateTokens(address _stakingToken, address _rewardToken) external onlyOwner {\n        stakingToken = IERC20(_stakingToken);\n        rewardToken = IERC20(_rewardToken);\n        emit TokensUpdated(_stakingToken, _rewardToken);\n    }\n\n    event PosTokenUpdated(address indexed _posToken);\n    function updatePosToken(address _posToken) external onlyOwner {\n        posToken = IPosToken(_posToken);\n        emit PosTokenUpdated(_posToken);\n    }\n\n    event Whitelisted(address indexed _whitelist);\n    function addWhitelist(address _whitelist) external onlyOwner {\n        require(!isWhitelisted[_whitelist], \"already whitelisted\");\n        uint256 index = whitelistAddress.length;\n        isWhitelisted[_whitelist] = true;\n        whitelistIndex[_whitelist] = index;\n        whitelistAddress.push(_whitelist);\n        distributor.setShare(_whitelist, rewardRate);\n        emit Whitelisted(_whitelist);\n    }\n\n    event RemovedWhitelist(address indexed _whitelisted);\n    function removeFromWhitelist(address _whitelisted) external onlyOwner {\n        require(isWhitelisted[_whitelisted], \"address is not in the whitelist\");\n        uint256 index = whitelistIndex[_whitelisted];\n        whitelistAddress[index] = whitelistAddress[whitelistAddress.length - 1];\n        whitelistAddress.pop();\n        isWhitelisted[_whitelisted] = false;\n        distributor.setShare(_whitelisted, 0);\n        emit RemovedWhitelist(_whitelisted);\n    }\n\n    event Staked(address indexed account, uint256 amount);\n    function stake(uint256 amount) external {\n        stakingToken.transferFrom(_msgSender(), address(this), amount);\n        posToken.mint(_msgSender(), amount);\n        distributeReward();\n        emit Staked(_msgSender(), amount);\n    }\n\n    event WithdrawnStaking(address indexed account, uint256 amount);\n    function withdraw(uint256 amount) external {\n        require(posToken.balanceOf(_msgSender()) >= amount, \"not enough POS token to burn\");\n        posToken.burn(_msgSender(), amount);\n        stakingToken.transfer(_msgSender(), amount);\n        distributeReward();\n        emit WithdrawnStaking(_msgSender(), amount);\n    }\n\n    event PurgedToken(address indexed _tokenAddress, address to, uint256 amount);\n    function purgeToken(address _tokenAddress, address to, uint256 amount) external onlyOwner {\n        IERC20(_tokenAddress).transfer(to, amount);\n        emit PurgedToken(_tokenAddress, to, amount);\n    }\n\n    event PurgedETH(address indexed to, uint256 amount);\n    function purgeETH(address to, uint256 amount) external onlyOwner {\n        (bool success, ) = to.call{value: amount}(\"0x0\");\n        require(success, \"unsuccessful!\");\n        emit PurgedETH(to, amount);\n    }\n\n    event RewardDistributed(uint256 balance);\n    function distributeReward() internal {\n        uint256 balance = rewardToken.balanceOf(address(this));\n        if(balance >= distributionAmount) {\n            if(rewardToken.transfer(address(distributor), distributionAmount)){\n                lastDistributionBlock = block.timestamp;\n                distributor.deposit(distributionAmount);\n                emit RewardDistributed(balance);\n            }\n        }\n        \n        if(rewardToken.balanceOf(address(distributor)) > 0){\n            distributor.process(gas);\n        }\n    }\n\n    function claim() external {\n        distributor.claimRewardManual(_msgSender());\n    }\n\n    function calculate(address shareHolder) external view returns(uint256) {\n        return distributor.getUnpaidEarnings(shareHolder);\n    }\n\n    function purgeDistributor(address receiver) external onlyOwner {\n        distributor.purge(receiver);\n    }\n\n    function manualProcessReward() external {\n        distributor.process(gas);\n    }\n\n    function manualDistributeReward() external onlyOwner {\n        distributeReward();\n    }\n\n     function updateDistributionCritearea(\n        uint256 _rewardRate,\n        uint256 _rewardDelay,\n        uint256 _distributionAmount\n    ) external onlyOwner {\n        rewardDelay = _rewardDelay;\n        distributionAmount = _distributionAmount;\n        setNewRewardRate(_rewardRate);\n    }\n\n    function setNewRewardRate(uint256 _rewardRate) internal {\n        rewardRate = _rewardRate;\n        for(uint256 i; i < whitelistAddress.length; i++) {\n            distributor.setShare(whitelistAddress[i], rewardRate);\n        }\n    }\n}",
  "sourcePath": "/Users/safi/Documents/societycoin-page/contracts/Staking_NTScty.sol",
  "compiler": {
    "name": "solc",
    "version": "0.8.7+commit.e28d00a7.Emscripten.clang"
  },
  "schemaVersion": "3.4.8",
  "updatedAt": "2023-03-27T08:56:04.428Z",
  "devdoc": {
    "kind": "dev",
    "methods": {
      "owner()": {
        "details": "Returns the address of the current owner."
      },
      "renounceOwnership()": {
        "details": "Leaves the contract without owner. It will not be possible to call `onlyOwner` functions anymore. Can only be called by the current owner. NOTE: Renouncing ownership will leave the contract without an owner, thereby removing any functionality that is only available to the owner."
      },
      "transferOwnership(address)": {
        "details": "Transfers ownership of the contract to a new account (`newOwner`). Can only be called by the current owner."
      }
    },
    "version": 1
  },
  "userdoc": {
    "kind": "user",
    "methods": {},
    "version": 1
  }
}